{
	"contracts/todoList.sol": {
		"TodoList": {
			"abi": [
				{
					"anonymous": false,
					"inputs": [
						{
							"indexed": false,
							"internalType": "address",
							"name": "user",
							"type": "address"
						},
						{
							"indexed": false,
							"internalType": "uint256",
							"name": "id",
							"type": "uint256"
						}
					],
					"name": "TaskCompleted",
					"type": "event"
				},
				{
					"anonymous": false,
					"inputs": [
						{
							"indexed": false,
							"internalType": "address",
							"name": "user",
							"type": "address"
						},
						{
							"indexed": false,
							"internalType": "uint256",
							"name": "id",
							"type": "uint256"
						},
						{
							"indexed": false,
							"internalType": "string",
							"name": "content",
							"type": "string"
						}
					],
					"name": "TaskCreated",
					"type": "event"
				},
				{
					"inputs": [
						{
							"internalType": "string",
							"name": "_content",
							"type": "string"
						}
					],
					"name": "createTask",
					"outputs": [],
					"stateMutability": "nonpayable",
					"type": "function"
				},
				{
					"inputs": [],
					"name": "getAllTask",
					"outputs": [
						{
							"components": [
								{
									"internalType": "uint256",
									"name": "id",
									"type": "uint256"
								},
								{
									"internalType": "string",
									"name": "content",
									"type": "string"
								},
								{
									"internalType": "bool",
									"name": "completed",
									"type": "bool"
								}
							],
							"internalType": "struct TodoList.Task[]",
							"name": "",
							"type": "tuple[]"
						}
					],
					"stateMutability": "view",
					"type": "function"
				},
				{
					"inputs": [],
					"name": "getTaskCount",
					"outputs": [
						{
							"internalType": "uint256",
							"name": "",
							"type": "uint256"
						}
					],
					"stateMutability": "view",
					"type": "function"
				},
				{
					"inputs": [
						{
							"internalType": "uint256",
							"name": "_id",
							"type": "uint256"
						}
					],
					"name": "toggleCompleted",
					"outputs": [],
					"stateMutability": "nonpayable",
					"type": "function"
				},
				{
					"inputs": [
						{
							"internalType": "address",
							"name": "",
							"type": "address"
						},
						{
							"internalType": "uint256",
							"name": "",
							"type": "uint256"
						}
					],
					"name": "userTasks",
					"outputs": [
						{
							"internalType": "uint256",
							"name": "id",
							"type": "uint256"
						},
						{
							"internalType": "string",
							"name": "content",
							"type": "string"
						},
						{
							"internalType": "bool",
							"name": "completed",
							"type": "bool"
						}
					],
					"stateMutability": "view",
					"type": "function"
				}
			],
			"devdoc": {
				"kind": "dev",
				"methods": {},
				"version": 1
			},
			"evm": {
				"assembly": "    /* \"contracts/todoList.sol\":57:1035  contract TodoList {... */\n  mstore(0x40, 0x80)\n  callvalue\n  dup1\n  iszero\n  tag_1\n  jumpi\n  revert(0x00, 0x00)\ntag_1:\n  pop\n  dataSize(sub_0)\n  dup1\n  dataOffset(sub_0)\n  0x00\n  codecopy\n  0x00\n  return\nstop\n\nsub_0: assembly {\n        /* \"contracts/todoList.sol\":57:1035  contract TodoList {... */\n      mstore(0x40, 0x80)\n      callvalue\n      dup1\n      iszero\n      tag_1\n      jumpi\n      revert(0x00, 0x00)\n    tag_1:\n      pop\n      jumpi(tag_2, lt(calldatasize, 0x04))\n      shr(0xe0, calldataload(0x00))\n      dup1\n      0x111002aa\n      eq\n      tag_3\n      jumpi\n      dup1\n      0x1bbaf3cf\n      eq\n      tag_4\n      jumpi\n      dup1\n      0x455f5024\n      eq\n      tag_5\n      jumpi\n      dup1\n      0x66873a55\n      eq\n      tag_6\n      jumpi\n      dup1\n      0xc17a340e\n      eq\n      tag_7\n      jumpi\n    tag_2:\n      revert(0x00, 0x00)\n        /* \"contracts/todoList.sol\":382:616  function createTask(string memory _content) public {... */\n    tag_3:\n      tag_8\n      0x04\n      dup1\n      calldatasize\n      sub\n      dup2\n      add\n      swap1\n      tag_9\n      swap2\n      swap1\n      tag_10\n      jump\t// in\n    tag_9:\n      tag_11\n      jump\t// in\n    tag_8:\n      stop\n        /* \"contracts/todoList.sol\":930:1033  function getAllTask() public view returns (Task[] memory) {... */\n    tag_4:\n      tag_12\n      tag_13\n      jump\t// in\n    tag_12:\n      mload(0x40)\n      tag_14\n      swap2\n      swap1\n      tag_15\n      jump\t// in\n    tag_14:\n      mload(0x40)\n      dup1\n      swap2\n      sub\n      swap1\n      return\n        /* \"contracts/todoList.sol\":622:815  function toggleCompleted(uint _id) public {... */\n    tag_5:\n      tag_16\n      0x04\n      dup1\n      calldatasize\n      sub\n      dup2\n      add\n      swap1\n      tag_17\n      swap2\n      swap1\n      tag_18\n      jump\t// in\n    tag_17:\n      tag_19\n      jump\t// in\n    tag_16:\n      stop\n        /* \"contracts/todoList.sol\":220:264  mapping (address => Task[]) public userTasks */\n    tag_6:\n      tag_20\n      0x04\n      dup1\n      calldatasize\n      sub\n      dup2\n      add\n      swap1\n      tag_21\n      swap2\n      swap1\n      tag_22\n      jump\t// in\n    tag_21:\n      tag_23\n      jump\t// in\n    tag_20:\n      mload(0x40)\n      tag_24\n      swap4\n      swap3\n      swap2\n      swap1\n      tag_25\n      jump\t// in\n    tag_24:\n      mload(0x40)\n      dup1\n      swap2\n      sub\n      swap1\n      return\n        /* \"contracts/todoList.sol\":821:924  function getTaskCount() public view returns (uint) {... */\n    tag_7:\n      tag_26\n      tag_27\n      jump\t// in\n    tag_26:\n      mload(0x40)\n      tag_28\n      swap2\n      swap1\n      tag_29\n      jump\t// in\n    tag_28:\n      mload(0x40)\n      dup1\n      swap2\n      sub\n      swap1\n      return\n        /* \"contracts/todoList.sol\":382:616  function createTask(string memory _content) public {... */\n    tag_11:\n        /* \"contracts/todoList.sol\":443:454  uint taskId */\n      0x00\n        /* \"contracts/todoList.sol\":457:466  userTasks */\n      0x00\n        /* \"contracts/todoList.sol\":457:478  userTasks[msg.sender] */\n      0x00\n        /* \"contracts/todoList.sol\":467:477  msg.sender */\n      caller\n        /* \"contracts/todoList.sol\":457:478  userTasks[msg.sender] */\n      0xffffffffffffffffffffffffffffffffffffffff\n      and\n      0xffffffffffffffffffffffffffffffffffffffff\n      and\n      dup2\n      mstore\n      0x20\n      add\n      swap1\n      dup2\n      mstore\n      0x20\n      add\n      0x00\n      keccak256\n        /* \"contracts/todoList.sol\":457:485  userTasks[msg.sender].length */\n      dup1\n      sload\n      swap1\n      pop\n        /* \"contracts/todoList.sol\":443:485  uint taskId = userTasks[msg.sender].length */\n      swap1\n      pop\n        /* \"contracts/todoList.sol\":495:504  userTasks */\n      0x00\n        /* \"contracts/todoList.sol\":495:516  userTasks[msg.sender] */\n      0x00\n        /* \"contracts/todoList.sol\":505:515  msg.sender */\n      caller\n        /* \"contracts/todoList.sol\":495:516  userTasks[msg.sender] */\n      0xffffffffffffffffffffffffffffffffffffffff\n      and\n      0xffffffffffffffffffffffffffffffffffffffff\n      and\n      dup2\n      mstore\n      0x20\n      add\n      swap1\n      dup2\n      mstore\n      0x20\n      add\n      0x00\n      keccak256\n        /* \"contracts/todoList.sol\":522:551  Task(taskId, _content, false) */\n      mload(0x40)\n      dup1\n      0x60\n      add\n      0x40\n      mstore\n      dup1\n        /* \"contracts/todoList.sol\":527:533  taskId */\n      dup4\n        /* \"contracts/todoList.sol\":522:551  Task(taskId, _content, false) */\n      dup2\n      mstore\n      0x20\n      add\n        /* \"contracts/todoList.sol\":535:543  _content */\n      dup5\n        /* \"contracts/todoList.sol\":522:551  Task(taskId, _content, false) */\n      dup2\n      mstore\n      0x20\n      add\n        /* \"contracts/todoList.sol\":545:550  false */\n      0x00\n        /* \"contracts/todoList.sol\":522:551  Task(taskId, _content, false) */\n      iszero\n      iszero\n      dup2\n      mstore\n      pop\n        /* \"contracts/todoList.sol\":495:552  userTasks[msg.sender].push(Task(taskId, _content, false)) */\n      swap1\n      dup1\n      0x01\n      dup2\n      sload\n      add\n      dup1\n      dup3\n      sstore\n      dup1\n      swap2\n      pop\n      pop\n      0x01\n      swap1\n      sub\n      swap1\n      0x00\n      mstore\n      keccak256(0x00, 0x20)\n      swap1\n      0x03\n      mul\n      add\n      0x00\n      swap1\n      swap2\n      swap1\n      swap2\n      swap1\n      swap2\n      pop\n      0x00\n      dup3\n      add\n      mload\n      dup2\n      0x00\n      add\n      sstore\n      0x20\n      dup3\n      add\n      mload\n      dup2\n      0x01\n      add\n      swap1\n      dup2\n      tag_32\n      swap2\n      swap1\n      tag_33\n      jump\t// in\n    tag_32:\n      pop\n      0x40\n      dup3\n      add\n      mload\n      dup2\n      0x02\n      add\n      exp(0x0100, 0x00)\n      dup2\n      sload\n      dup2\n      0xff\n      mul\n      not\n      and\n      swap1\n      dup4\n      iszero\n      iszero\n      mul\n      or\n      swap1\n      sstore\n      pop\n      pop\n      pop\n        /* \"contracts/todoList.sol\":568:609  TaskCreated(msg.sender, taskId, _content) */\n      0xa211005f5319202ee7ab6815fc340564635fb1eee9bc5a55aa10048c5b471dc4\n        /* \"contracts/todoList.sol\":580:590  msg.sender */\n      caller\n        /* \"contracts/todoList.sol\":592:598  taskId */\n      dup3\n        /* \"contracts/todoList.sol\":600:608  _content */\n      dup5\n        /* \"contracts/todoList.sol\":568:609  TaskCreated(msg.sender, taskId, _content) */\n      mload(0x40)\n      tag_34\n      swap4\n      swap3\n      swap2\n      swap1\n      tag_35\n      jump\t// in\n    tag_34:\n      mload(0x40)\n      dup1\n      swap2\n      sub\n      swap1\n      log1\n        /* \"contracts/todoList.sol\":433:616  {... */\n      pop\n        /* \"contracts/todoList.sol\":382:616  function createTask(string memory _content) public {... */\n      pop\n      jump\t// out\n        /* \"contracts/todoList.sol\":930:1033  function getAllTask() public view returns (Task[] memory) {... */\n    tag_13:\n        /* \"contracts/todoList.sol\":973:986  Task[] memory */\n      0x60\n        /* \"contracts/todoList.sol\":1005:1014  userTasks */\n      0x00\n        /* \"contracts/todoList.sol\":1005:1026  userTasks[msg.sender] */\n      0x00\n        /* \"contracts/todoList.sol\":1015:1025  msg.sender */\n      caller\n        /* \"contracts/todoList.sol\":1005:1026  userTasks[msg.sender] */\n      0xffffffffffffffffffffffffffffffffffffffff\n      and\n      0xffffffffffffffffffffffffffffffffffffffff\n      and\n      dup2\n      mstore\n      0x20\n      add\n      swap1\n      dup2\n      mstore\n      0x20\n      add\n      0x00\n      keccak256\n        /* \"contracts/todoList.sol\":998:1026  return userTasks[msg.sender] */\n      dup1\n      sload\n      dup1\n      0x20\n      mul\n      0x20\n      add\n      mload(0x40)\n      swap1\n      dup2\n      add\n      0x40\n      mstore\n      dup1\n      swap3\n      swap2\n      swap1\n      dup2\n      dup2\n      mstore\n      0x20\n      add\n      0x00\n      swap1\n    tag_37:\n      dup3\n      dup3\n      lt\n      iszero\n      tag_38\n      jumpi\n      dup4\n      dup3\n      swap1\n      0x00\n      mstore\n      keccak256(0x00, 0x20)\n      swap1\n      0x03\n      mul\n      add\n      mload(0x40)\n      dup1\n      0x60\n      add\n      0x40\n      mstore\n      swap1\n      dup2\n      0x00\n      dup3\n      add\n      sload\n      dup2\n      mstore\n      0x20\n      add\n      0x01\n      dup3\n      add\n      dup1\n      sload\n      tag_40\n      swap1\n      tag_41\n      jump\t// in\n    tag_40:\n      dup1\n      0x1f\n      add\n      0x20\n      dup1\n      swap2\n      div\n      mul\n      0x20\n      add\n      mload(0x40)\n      swap1\n      dup2\n      add\n      0x40\n      mstore\n      dup1\n      swap3\n      swap2\n      swap1\n      dup2\n      dup2\n      mstore\n      0x20\n      add\n      dup3\n      dup1\n      sload\n      tag_42\n      swap1\n      tag_41\n      jump\t// in\n    tag_42:\n      dup1\n      iszero\n      tag_43\n      jumpi\n      dup1\n      0x1f\n      lt\n      tag_44\n      jumpi\n      0x0100\n      dup1\n      dup4\n      sload\n      div\n      mul\n      dup4\n      mstore\n      swap2\n      0x20\n      add\n      swap2\n      jump(tag_43)\n    tag_44:\n      dup3\n      add\n      swap2\n      swap1\n      0x00\n      mstore\n      keccak256(0x00, 0x20)\n      swap1\n    tag_45:\n      dup2\n      sload\n      dup2\n      mstore\n      swap1\n      0x01\n      add\n      swap1\n      0x20\n      add\n      dup1\n      dup4\n      gt\n      tag_45\n      jumpi\n      dup3\n      swap1\n      sub\n      0x1f\n      and\n      dup3\n      add\n      swap2\n    tag_43:\n      pop\n      pop\n      pop\n      pop\n      pop\n      dup2\n      mstore\n      0x20\n      add\n      0x02\n      dup3\n      add\n      0x00\n      swap1\n      sload\n      swap1\n      0x0100\n      exp\n      swap1\n      div\n      0xff\n      and\n      iszero\n      iszero\n      iszero\n      iszero\n      dup2\n      mstore\n      pop\n      pop\n      dup2\n      mstore\n      0x20\n      add\n      swap1\n      0x01\n      add\n      swap1\n      jump(tag_37)\n    tag_38:\n      pop\n      pop\n      pop\n      pop\n      swap1\n      pop\n        /* \"contracts/todoList.sol\":930:1033  function getAllTask() public view returns (Task[] memory) {... */\n      swap1\n      jump\t// out\n        /* \"contracts/todoList.sol\":622:815  function toggleCompleted(uint _id) public {... */\n    tag_19:\n        /* \"contracts/todoList.sol\":674:691  Task storage task */\n      0x00\n        /* \"contracts/todoList.sol\":694:703  userTasks */\n      0x00\n        /* \"contracts/todoList.sol\":694:715  userTasks[msg.sender] */\n      0x00\n        /* \"contracts/todoList.sol\":704:714  msg.sender */\n      caller\n        /* \"contracts/todoList.sol\":694:715  userTasks[msg.sender] */\n      0xffffffffffffffffffffffffffffffffffffffff\n      and\n      0xffffffffffffffffffffffffffffffffffffffff\n      and\n      dup2\n      mstore\n      0x20\n      add\n      swap1\n      dup2\n      mstore\n      0x20\n      add\n      0x00\n      keccak256\n        /* \"contracts/todoList.sol\":716:719  _id */\n      dup3\n        /* \"contracts/todoList.sol\":694:720  userTasks[msg.sender][_id] */\n      dup2\n      sload\n      dup2\n      lt\n      tag_47\n      jumpi\n      tag_48\n      tag_49\n      jump\t// in\n    tag_48:\n    tag_47:\n      swap1\n      0x00\n      mstore\n      keccak256(0x00, 0x20)\n      swap1\n      0x03\n      mul\n      add\n        /* \"contracts/todoList.sol\":674:720  Task storage task = userTasks[msg.sender][_id] */\n      swap1\n      pop\n        /* \"contracts/todoList.sol\":748:752  task */\n      dup1\n        /* \"contracts/todoList.sol\":748:762  task.completed */\n      0x02\n      add\n      0x00\n      swap1\n      sload\n      swap1\n      0x0100\n      exp\n      swap1\n      div\n      0xff\n      and\n        /* \"contracts/todoList.sol\":747:762  !task.completed */\n      iszero\n        /* \"contracts/todoList.sol\":730:734  task */\n      dup2\n        /* \"contracts/todoList.sol\":730:744  task.completed */\n      0x02\n      add\n      0x00\n        /* \"contracts/todoList.sol\":730:762  task.completed = !task.completed */\n      0x0100\n      exp\n      dup2\n      sload\n      dup2\n      0xff\n      mul\n      not\n      and\n      swap1\n      dup4\n      iszero\n      iszero\n      mul\n      or\n      swap1\n      sstore\n      pop\n        /* \"contracts/todoList.sol\":778:808  TaskCompleted(msg.sender, _id) */\n      0xf684d89bb0f42287bf32838774e4b7f8a60c11804b3c6d1791fa55f306792643\n        /* \"contracts/todoList.sol\":792:802  msg.sender */\n      caller\n        /* \"contracts/todoList.sol\":804:807  _id */\n      dup4\n        /* \"contracts/todoList.sol\":778:808  TaskCompleted(msg.sender, _id) */\n      mload(0x40)\n      tag_51\n      swap3\n      swap2\n      swap1\n      tag_52\n      jump\t// in\n    tag_51:\n      mload(0x40)\n      dup1\n      swap2\n      sub\n      swap1\n      log1\n        /* \"contracts/todoList.sol\":664:815  {... */\n      pop\n        /* \"contracts/todoList.sol\":622:815  function toggleCompleted(uint _id) public {... */\n      pop\n      jump\t// out\n        /* \"contracts/todoList.sol\":220:264  mapping (address => Task[]) public userTasks */\n    tag_23:\n      mstore(0x20, 0x00)\n      dup2\n      0x00\n      mstore\n      keccak256(0x00, 0x40)\n      dup2\n      dup2\n      sload\n      dup2\n      lt\n      tag_53\n      jumpi\n      0x00\n      dup1\n      revert\n    tag_53:\n      swap1\n      0x00\n      mstore\n      keccak256(0x00, 0x20)\n      swap1\n      0x03\n      mul\n      add\n      0x00\n      swap2\n      pop\n      swap2\n      pop\n      pop\n      dup1\n      0x00\n      add\n      sload\n      swap1\n      dup1\n      0x01\n      add\n      dup1\n      sload\n      tag_55\n      swap1\n      tag_41\n      jump\t// in\n    tag_55:\n      dup1\n      0x1f\n      add\n      0x20\n      dup1\n      swap2\n      div\n      mul\n      0x20\n      add\n      mload(0x40)\n      swap1\n      dup2\n      add\n      0x40\n      mstore\n      dup1\n      swap3\n      swap2\n      swap1\n      dup2\n      dup2\n      mstore\n      0x20\n      add\n      dup3\n      dup1\n      sload\n      tag_56\n      swap1\n      tag_41\n      jump\t// in\n    tag_56:\n      dup1\n      iszero\n      tag_57\n      jumpi\n      dup1\n      0x1f\n      lt\n      tag_58\n      jumpi\n      0x0100\n      dup1\n      dup4\n      sload\n      div\n      mul\n      dup4\n      mstore\n      swap2\n      0x20\n      add\n      swap2\n      jump(tag_57)\n    tag_58:\n      dup3\n      add\n      swap2\n      swap1\n      0x00\n      mstore\n      keccak256(0x00, 0x20)\n      swap1\n    tag_59:\n      dup2\n      sload\n      dup2\n      mstore\n      swap1\n      0x01\n      add\n      swap1\n      0x20\n      add\n      dup1\n      dup4\n      gt\n      tag_59\n      jumpi\n      dup3\n      swap1\n      sub\n      0x1f\n      and\n      dup3\n      add\n      swap2\n    tag_57:\n      pop\n      pop\n      pop\n      pop\n      pop\n      swap1\n      dup1\n      0x02\n      add\n      0x00\n      swap1\n      sload\n      swap1\n      0x0100\n      exp\n      swap1\n      div\n      0xff\n      and\n      swap1\n      pop\n      dup4\n      jump\t// out\n        /* \"contracts/todoList.sol\":821:924  function getTaskCount() public view returns (uint) {... */\n    tag_27:\n        /* \"contracts/todoList.sol\":866:870  uint */\n      0x00\n        /* \"contracts/todoList.sol\":889:898  userTasks */\n      0x00\n        /* \"contracts/todoList.sol\":889:910  userTasks[msg.sender] */\n      0x00\n        /* \"contracts/todoList.sol\":899:909  msg.sender */\n      caller\n        /* \"contracts/todoList.sol\":889:910  userTasks[msg.sender] */\n      0xffffffffffffffffffffffffffffffffffffffff\n      and\n      0xffffffffffffffffffffffffffffffffffffffff\n      and\n      dup2\n      mstore\n      0x20\n      add\n      swap1\n      dup2\n      mstore\n      0x20\n      add\n      0x00\n      keccak256\n        /* \"contracts/todoList.sol\":889:917  userTasks[msg.sender].length */\n      dup1\n      sload\n      swap1\n      pop\n        /* \"contracts/todoList.sol\":882:917  return userTasks[msg.sender].length */\n      swap1\n      pop\n        /* \"contracts/todoList.sol\":821:924  function getTaskCount() public view returns (uint) {... */\n      swap1\n      jump\t// out\n        /* \"#utility.yul\":7:82   */\n    tag_61:\n        /* \"#utility.yul\":40:46   */\n      0x00\n        /* \"#utility.yul\":73:75   */\n      0x40\n        /* \"#utility.yul\":67:76   */\n      mload\n        /* \"#utility.yul\":57:76   */\n      swap1\n      pop\n        /* \"#utility.yul\":7:82   */\n      swap1\n      jump\t// out\n        /* \"#utility.yul\":88:205   */\n    tag_62:\n        /* \"#utility.yul\":197:198   */\n      0x00\n        /* \"#utility.yul\":194:195   */\n      0x00\n        /* \"#utility.yul\":187:199   */\n      revert\n        /* \"#utility.yul\":211:328   */\n    tag_63:\n        /* \"#utility.yul\":320:321   */\n      0x00\n        /* \"#utility.yul\":317:318   */\n      0x00\n        /* \"#utility.yul\":310:322   */\n      revert\n        /* \"#utility.yul\":334:451   */\n    tag_64:\n        /* \"#utility.yul\":443:444   */\n      0x00\n        /* \"#utility.yul\":440:441   */\n      0x00\n        /* \"#utility.yul\":433:445   */\n      revert\n        /* \"#utility.yul\":457:574   */\n    tag_65:\n        /* \"#utility.yul\":566:567   */\n      0x00\n        /* \"#utility.yul\":563:564   */\n      0x00\n        /* \"#utility.yul\":556:568   */\n      revert\n        /* \"#utility.yul\":580:682   */\n    tag_66:\n        /* \"#utility.yul\":621:627   */\n      0x00\n        /* \"#utility.yul\":672:674   */\n      0x1f\n        /* \"#utility.yul\":668:675   */\n      not\n        /* \"#utility.yul\":663:665   */\n      0x1f\n        /* \"#utility.yul\":656:661   */\n      dup4\n        /* \"#utility.yul\":652:666   */\n      add\n        /* \"#utility.yul\":648:676   */\n      and\n        /* \"#utility.yul\":638:676   */\n      swap1\n      pop\n        /* \"#utility.yul\":580:682   */\n      swap2\n      swap1\n      pop\n      jump\t// out\n        /* \"#utility.yul\":688:868   */\n    tag_67:\n        /* \"#utility.yul\":736:813   */\n      0x4e487b7100000000000000000000000000000000000000000000000000000000\n        /* \"#utility.yul\":733:734   */\n      0x00\n        /* \"#utility.yul\":726:814   */\n      mstore\n        /* \"#utility.yul\":833:837   */\n      0x41\n        /* \"#utility.yul\":830:831   */\n      0x04\n        /* \"#utility.yul\":823:838   */\n      mstore\n        /* \"#utility.yul\":857:861   */\n      0x24\n        /* \"#utility.yul\":854:855   */\n      0x00\n        /* \"#utility.yul\":847:862   */\n      revert\n        /* \"#utility.yul\":874:1155   */\n    tag_68:\n        /* \"#utility.yul\":957:984   */\n      tag_125\n        /* \"#utility.yul\":979:983   */\n      dup3\n        /* \"#utility.yul\":957:984   */\n      tag_66\n      jump\t// in\n    tag_125:\n        /* \"#utility.yul\":949:955   */\n      dup2\n        /* \"#utility.yul\":945:985   */\n      add\n        /* \"#utility.yul\":1087:1093   */\n      dup2\n        /* \"#utility.yul\":1075:1085   */\n      dup2\n        /* \"#utility.yul\":1072:1094   */\n      lt\n        /* \"#utility.yul\":1051:1069   */\n      0xffffffffffffffff\n        /* \"#utility.yul\":1039:1049   */\n      dup3\n        /* \"#utility.yul\":1036:1070   */\n      gt\n        /* \"#utility.yul\":1033:1095   */\n      or\n        /* \"#utility.yul\":1030:1118   */\n      iszero\n      tag_126\n      jumpi\n        /* \"#utility.yul\":1098:1116   */\n      tag_127\n      tag_67\n      jump\t// in\n    tag_127:\n        /* \"#utility.yul\":1030:1118   */\n    tag_126:\n        /* \"#utility.yul\":1138:1148   */\n      dup1\n        /* \"#utility.yul\":1134:1136   */\n      0x40\n        /* \"#utility.yul\":1127:1149   */\n      mstore\n        /* \"#utility.yul\":917:1155   */\n      pop\n        /* \"#utility.yul\":874:1155   */\n      pop\n      pop\n      jump\t// out\n        /* \"#utility.yul\":1161:1290   */\n    tag_69:\n        /* \"#utility.yul\":1195:1201   */\n      0x00\n        /* \"#utility.yul\":1222:1242   */\n      tag_129\n      tag_61\n      jump\t// in\n    tag_129:\n        /* \"#utility.yul\":1212:1242   */\n      swap1\n      pop\n        /* \"#utility.yul\":1251:1284   */\n      tag_130\n        /* \"#utility.yul\":1279:1283   */\n      dup3\n        /* \"#utility.yul\":1271:1277   */\n      dup3\n        /* \"#utility.yul\":1251:1284   */\n      tag_68\n      jump\t// in\n    tag_130:\n        /* \"#utility.yul\":1161:1290   */\n      swap2\n      swap1\n      pop\n      jump\t// out\n        /* \"#utility.yul\":1296:1604   */\n    tag_70:\n        /* \"#utility.yul\":1358:1362   */\n      0x00\n        /* \"#utility.yul\":1448:1466   */\n      0xffffffffffffffff\n        /* \"#utility.yul\":1440:1446   */\n      dup3\n        /* \"#utility.yul\":1437:1467   */\n      gt\n        /* \"#utility.yul\":1434:1490   */\n      iszero\n      tag_132\n      jumpi\n        /* \"#utility.yul\":1470:1488   */\n      tag_133\n      tag_67\n      jump\t// in\n    tag_133:\n        /* \"#utility.yul\":1434:1490   */\n    tag_132:\n        /* \"#utility.yul\":1508:1537   */\n      tag_134\n        /* \"#utility.yul\":1530:1536   */\n      dup3\n        /* \"#utility.yul\":1508:1537   */\n      tag_66\n      jump\t// in\n    tag_134:\n        /* \"#utility.yul\":1500:1537   */\n      swap1\n      pop\n        /* \"#utility.yul\":1592:1596   */\n      0x20\n        /* \"#utility.yul\":1586:1590   */\n      dup2\n        /* \"#utility.yul\":1582:1597   */\n      add\n        /* \"#utility.yul\":1574:1597   */\n      swap1\n      pop\n        /* \"#utility.yul\":1296:1604   */\n      swap2\n      swap1\n      pop\n      jump\t// out\n        /* \"#utility.yul\":1610:1758   */\n    tag_71:\n        /* \"#utility.yul\":1708:1714   */\n      dup3\n        /* \"#utility.yul\":1703:1706   */\n      dup2\n        /* \"#utility.yul\":1698:1701   */\n      dup4\n        /* \"#utility.yul\":1685:1715   */\n      calldatacopy\n        /* \"#utility.yul\":1749:1750   */\n      0x00\n        /* \"#utility.yul\":1740:1746   */\n      dup4\n        /* \"#utility.yul\":1735:1738   */\n      dup4\n        /* \"#utility.yul\":1731:1747   */\n      add\n        /* \"#utility.yul\":1724:1751   */\n      mstore\n        /* \"#utility.yul\":1610:1758   */\n      pop\n      pop\n      pop\n      jump\t// out\n        /* \"#utility.yul\":1764:2189   */\n    tag_72:\n        /* \"#utility.yul\":1842:1847   */\n      0x00\n        /* \"#utility.yul\":1867:1933   */\n      tag_137\n        /* \"#utility.yul\":1883:1932   */\n      tag_138\n        /* \"#utility.yul\":1925:1931   */\n      dup5\n        /* \"#utility.yul\":1883:1932   */\n      tag_70\n      jump\t// in\n    tag_138:\n        /* \"#utility.yul\":1867:1933   */\n      tag_69\n      jump\t// in\n    tag_137:\n        /* \"#utility.yul\":1858:1933   */\n      swap1\n      pop\n        /* \"#utility.yul\":1956:1962   */\n      dup3\n        /* \"#utility.yul\":1949:1954   */\n      dup2\n        /* \"#utility.yul\":1942:1963   */\n      mstore\n        /* \"#utility.yul\":1994:1998   */\n      0x20\n        /* \"#utility.yul\":1987:1992   */\n      dup2\n        /* \"#utility.yul\":1983:1999   */\n      add\n        /* \"#utility.yul\":2032:2035   */\n      dup5\n        /* \"#utility.yul\":2023:2029   */\n      dup5\n        /* \"#utility.yul\":2018:2021   */\n      dup5\n        /* \"#utility.yul\":2014:2030   */\n      add\n        /* \"#utility.yul\":2011:2036   */\n      gt\n        /* \"#utility.yul\":2008:2120   */\n      iszero\n      tag_139\n      jumpi\n        /* \"#utility.yul\":2039:2118   */\n      tag_140\n      tag_65\n      jump\t// in\n    tag_140:\n        /* \"#utility.yul\":2008:2120   */\n    tag_139:\n        /* \"#utility.yul\":2129:2183   */\n      tag_141\n        /* \"#utility.yul\":2176:2182   */\n      dup5\n        /* \"#utility.yul\":2171:2174   */\n      dup3\n        /* \"#utility.yul\":2166:2169   */\n      dup6\n        /* \"#utility.yul\":2129:2183   */\n      tag_71\n      jump\t// in\n    tag_141:\n        /* \"#utility.yul\":1848:2189   */\n      pop\n        /* \"#utility.yul\":1764:2189   */\n      swap4\n      swap3\n      pop\n      pop\n      pop\n      jump\t// out\n        /* \"#utility.yul\":2209:2549   */\n    tag_73:\n        /* \"#utility.yul\":2265:2270   */\n      0x00\n        /* \"#utility.yul\":2314:2317   */\n      dup3\n        /* \"#utility.yul\":2307:2311   */\n      0x1f\n        /* \"#utility.yul\":2299:2305   */\n      dup4\n        /* \"#utility.yul\":2295:2312   */\n      add\n        /* \"#utility.yul\":2291:2318   */\n      slt\n        /* \"#utility.yul\":2281:2403   */\n      tag_143\n      jumpi\n        /* \"#utility.yul\":2322:2401   */\n      tag_144\n      tag_64\n      jump\t// in\n    tag_144:\n        /* \"#utility.yul\":2281:2403   */\n    tag_143:\n        /* \"#utility.yul\":2439:2445   */\n      dup2\n        /* \"#utility.yul\":2426:2446   */\n      calldataload\n        /* \"#utility.yul\":2464:2543   */\n      tag_145\n        /* \"#utility.yul\":2539:2542   */\n      dup5\n        /* \"#utility.yul\":2531:2537   */\n      dup3\n        /* \"#utility.yul\":2524:2528   */\n      0x20\n        /* \"#utility.yul\":2516:2522   */\n      dup7\n        /* \"#utility.yul\":2512:2529   */\n      add\n        /* \"#utility.yul\":2464:2543   */\n      tag_72\n      jump\t// in\n    tag_145:\n        /* \"#utility.yul\":2455:2543   */\n      swap2\n      pop\n        /* \"#utility.yul\":2271:2549   */\n      pop\n        /* \"#utility.yul\":2209:2549   */\n      swap3\n      swap2\n      pop\n      pop\n      jump\t// out\n        /* \"#utility.yul\":2555:3064   */\n    tag_10:\n        /* \"#utility.yul\":2624:2630   */\n      0x00\n        /* \"#utility.yul\":2673:2675   */\n      0x20\n        /* \"#utility.yul\":2661:2670   */\n      dup3\n        /* \"#utility.yul\":2652:2659   */\n      dup5\n        /* \"#utility.yul\":2648:2671   */\n      sub\n        /* \"#utility.yul\":2644:2676   */\n      slt\n        /* \"#utility.yul\":2641:2760   */\n      iszero\n      tag_147\n      jumpi\n        /* \"#utility.yul\":2679:2758   */\n      tag_148\n      tag_62\n      jump\t// in\n    tag_148:\n        /* \"#utility.yul\":2641:2760   */\n    tag_147:\n        /* \"#utility.yul\":2827:2828   */\n      0x00\n        /* \"#utility.yul\":2816:2825   */\n      dup3\n        /* \"#utility.yul\":2812:2829   */\n      add\n        /* \"#utility.yul\":2799:2830   */\n      calldataload\n        /* \"#utility.yul\":2857:2875   */\n      0xffffffffffffffff\n        /* \"#utility.yul\":2849:2855   */\n      dup2\n        /* \"#utility.yul\":2846:2876   */\n      gt\n        /* \"#utility.yul\":2843:2960   */\n      iszero\n      tag_149\n      jumpi\n        /* \"#utility.yul\":2879:2958   */\n      tag_150\n      tag_63\n      jump\t// in\n    tag_150:\n        /* \"#utility.yul\":2843:2960   */\n    tag_149:\n        /* \"#utility.yul\":2984:3047   */\n      tag_151\n        /* \"#utility.yul\":3039:3046   */\n      dup5\n        /* \"#utility.yul\":3030:3036   */\n      dup3\n        /* \"#utility.yul\":3019:3028   */\n      dup6\n        /* \"#utility.yul\":3015:3037   */\n      add\n        /* \"#utility.yul\":2984:3047   */\n      tag_73\n      jump\t// in\n    tag_151:\n        /* \"#utility.yul\":2974:3047   */\n      swap2\n      pop\n        /* \"#utility.yul\":2770:3057   */\n      pop\n        /* \"#utility.yul\":2555:3064   */\n      swap3\n      swap2\n      pop\n      pop\n      jump\t// out\n        /* \"#utility.yul\":3070:3203   */\n    tag_74:\n        /* \"#utility.yul\":3156:3162   */\n      0x00\n        /* \"#utility.yul\":3190:3195   */\n      dup2\n        /* \"#utility.yul\":3184:3196   */\n      mload\n        /* \"#utility.yul\":3174:3196   */\n      swap1\n      pop\n        /* \"#utility.yul\":3070:3203   */\n      swap2\n      swap1\n      pop\n      jump\t// out\n        /* \"#utility.yul\":3209:3412   */\n    tag_75:\n        /* \"#utility.yul\":3327:3338   */\n      0x00\n        /* \"#utility.yul\":3361:3367   */\n      dup3\n        /* \"#utility.yul\":3356:3359   */\n      dup3\n        /* \"#utility.yul\":3349:3368   */\n      mstore\n        /* \"#utility.yul\":3401:3405   */\n      0x20\n        /* \"#utility.yul\":3396:3399   */\n      dup3\n        /* \"#utility.yul\":3392:3406   */\n      add\n        /* \"#utility.yul\":3377:3406   */\n      swap1\n      pop\n        /* \"#utility.yul\":3209:3412   */\n      swap3\n      swap2\n      pop\n      pop\n      jump\t// out\n        /* \"#utility.yul\":3418:3569   */\n    tag_76:\n        /* \"#utility.yul\":3504:3508   */\n      0x00\n        /* \"#utility.yul\":3527:3530   */\n      dup2\n        /* \"#utility.yul\":3519:3530   */\n      swap1\n      pop\n        /* \"#utility.yul\":3557:3561   */\n      0x20\n        /* \"#utility.yul\":3552:3555   */\n      dup3\n        /* \"#utility.yul\":3548:3562   */\n      add\n        /* \"#utility.yul\":3540:3562   */\n      swap1\n      pop\n        /* \"#utility.yul\":3418:3569   */\n      swap2\n      swap1\n      pop\n      jump\t// out\n        /* \"#utility.yul\":3575:3652   */\n    tag_77:\n        /* \"#utility.yul\":3612:3619   */\n      0x00\n        /* \"#utility.yul\":3641:3646   */\n      dup2\n        /* \"#utility.yul\":3630:3646   */\n      swap1\n      pop\n        /* \"#utility.yul\":3575:3652   */\n      swap2\n      swap1\n      pop\n      jump\t// out\n        /* \"#utility.yul\":3658:3766   */\n    tag_78:\n        /* \"#utility.yul\":3735:3759   */\n      tag_157\n        /* \"#utility.yul\":3753:3758   */\n      dup2\n        /* \"#utility.yul\":3735:3759   */\n      tag_77\n      jump\t// in\n    tag_157:\n        /* \"#utility.yul\":3730:3733   */\n      dup3\n        /* \"#utility.yul\":3723:3760   */\n      mstore\n        /* \"#utility.yul\":3658:3766   */\n      pop\n      pop\n      jump\t// out\n        /* \"#utility.yul\":3772:3871   */\n    tag_79:\n        /* \"#utility.yul\":3824:3830   */\n      0x00\n        /* \"#utility.yul\":3858:3863   */\n      dup2\n        /* \"#utility.yul\":3852:3864   */\n      mload\n        /* \"#utility.yul\":3842:3864   */\n      swap1\n      pop\n        /* \"#utility.yul\":3772:3871   */\n      swap2\n      swap1\n      pop\n      jump\t// out\n        /* \"#utility.yul\":3877:4036   */\n    tag_80:\n        /* \"#utility.yul\":3951:3962   */\n      0x00\n        /* \"#utility.yul\":3985:3991   */\n      dup3\n        /* \"#utility.yul\":3980:3983   */\n      dup3\n        /* \"#utility.yul\":3973:3992   */\n      mstore\n        /* \"#utility.yul\":4025:4029   */\n      0x20\n        /* \"#utility.yul\":4020:4023   */\n      dup3\n        /* \"#utility.yul\":4016:4030   */\n      add\n        /* \"#utility.yul\":4001:4030   */\n      swap1\n      pop\n        /* \"#utility.yul\":3877:4036   */\n      swap3\n      swap2\n      pop\n      pop\n      jump\t// out\n        /* \"#utility.yul\":4042:4181   */\n    tag_81:\n        /* \"#utility.yul\":4131:4137   */\n      dup3\n        /* \"#utility.yul\":4126:4129   */\n      dup2\n        /* \"#utility.yul\":4121:4124   */\n      dup4\n        /* \"#utility.yul\":4115:4138   */\n      mcopy\n        /* \"#utility.yul\":4172:4173   */\n      0x00\n        /* \"#utility.yul\":4163:4169   */\n      dup4\n        /* \"#utility.yul\":4158:4161   */\n      dup4\n        /* \"#utility.yul\":4154:4170   */\n      add\n        /* \"#utility.yul\":4147:4174   */\n      mstore\n        /* \"#utility.yul\":4042:4181   */\n      pop\n      pop\n      pop\n      jump\t// out\n        /* \"#utility.yul\":4187:4544   */\n    tag_82:\n        /* \"#utility.yul\":4265:4268   */\n      0x00\n        /* \"#utility.yul\":4293:4332   */\n      tag_162\n        /* \"#utility.yul\":4326:4331   */\n      dup3\n        /* \"#utility.yul\":4293:4332   */\n      tag_79\n      jump\t// in\n    tag_162:\n        /* \"#utility.yul\":4348:4409   */\n      tag_163\n        /* \"#utility.yul\":4402:4408   */\n      dup2\n        /* \"#utility.yul\":4397:4400   */\n      dup6\n        /* \"#utility.yul\":4348:4409   */\n      tag_80\n      jump\t// in\n    tag_163:\n        /* \"#utility.yul\":4341:4409   */\n      swap4\n      pop\n        /* \"#utility.yul\":4418:4483   */\n      tag_164\n        /* \"#utility.yul\":4476:4482   */\n      dup2\n        /* \"#utility.yul\":4471:4474   */\n      dup6\n        /* \"#utility.yul\":4464:4468   */\n      0x20\n        /* \"#utility.yul\":4457:4462   */\n      dup7\n        /* \"#utility.yul\":4453:4469   */\n      add\n        /* \"#utility.yul\":4418:4483   */\n      tag_81\n      jump\t// in\n    tag_164:\n        /* \"#utility.yul\":4508:4537   */\n      tag_165\n        /* \"#utility.yul\":4530:4536   */\n      dup2\n        /* \"#utility.yul\":4508:4537   */\n      tag_66\n      jump\t// in\n    tag_165:\n        /* \"#utility.yul\":4503:4506   */\n      dup5\n        /* \"#utility.yul\":4499:4538   */\n      add\n        /* \"#utility.yul\":4492:4538   */\n      swap2\n      pop\n        /* \"#utility.yul\":4269:4544   */\n      pop\n        /* \"#utility.yul\":4187:4544   */\n      swap3\n      swap2\n      pop\n      pop\n      jump\t// out\n        /* \"#utility.yul\":4550:4640   */\n    tag_83:\n        /* \"#utility.yul\":4584:4591   */\n      0x00\n        /* \"#utility.yul\":4627:4632   */\n      dup2\n        /* \"#utility.yul\":4620:4633   */\n      iszero\n        /* \"#utility.yul\":4613:4634   */\n      iszero\n        /* \"#utility.yul\":4602:4634   */\n      swap1\n      pop\n        /* \"#utility.yul\":4550:4640   */\n      swap2\n      swap1\n      pop\n      jump\t// out\n        /* \"#utility.yul\":4646:4745   */\n    tag_84:\n        /* \"#utility.yul\":4717:4738   */\n      tag_168\n        /* \"#utility.yul\":4732:4737   */\n      dup2\n        /* \"#utility.yul\":4717:4738   */\n      tag_83\n      jump\t// in\n    tag_168:\n        /* \"#utility.yul\":4712:4715   */\n      dup3\n        /* \"#utility.yul\":4705:4739   */\n      mstore\n        /* \"#utility.yul\":4646:4745   */\n      pop\n      pop\n      jump\t// out\n        /* \"#utility.yul\":4803:5561   */\n    tag_85:\n        /* \"#utility.yul\":4900:4903   */\n      0x00\n        /* \"#utility.yul\":4936:4940   */\n      0x60\n        /* \"#utility.yul\":4931:4934   */\n      dup4\n        /* \"#utility.yul\":4927:4941   */\n      add\n        /* \"#utility.yul\":5021:5025   */\n      0x00\n        /* \"#utility.yul\":5014:5019   */\n      dup4\n        /* \"#utility.yul\":5010:5026   */\n      add\n        /* \"#utility.yul\":5004:5027   */\n      mload\n        /* \"#utility.yul\":5040:5103   */\n      tag_170\n        /* \"#utility.yul\":5097:5101   */\n      0x00\n        /* \"#utility.yul\":5092:5095   */\n      dup7\n        /* \"#utility.yul\":5088:5102   */\n      add\n        /* \"#utility.yul\":5074:5086   */\n      dup3\n        /* \"#utility.yul\":5040:5103   */\n      tag_78\n      jump\t// in\n    tag_170:\n        /* \"#utility.yul\":4951:5113   */\n      pop\n        /* \"#utility.yul\":5198:5202   */\n      0x20\n        /* \"#utility.yul\":5191:5196   */\n      dup4\n        /* \"#utility.yul\":5187:5203   */\n      add\n        /* \"#utility.yul\":5181:5204   */\n      mload\n        /* \"#utility.yul\":5251:5254   */\n      dup5\n        /* \"#utility.yul\":5245:5249   */\n      dup3\n        /* \"#utility.yul\":5241:5255   */\n      sub\n        /* \"#utility.yul\":5234:5238   */\n      0x20\n        /* \"#utility.yul\":5229:5232   */\n      dup7\n        /* \"#utility.yul\":5225:5239   */\n      add\n        /* \"#utility.yul\":5218:5256   */\n      mstore\n        /* \"#utility.yul\":5277:5350   */\n      tag_171\n        /* \"#utility.yul\":5345:5349   */\n      dup3\n        /* \"#utility.yul\":5331:5343   */\n      dup3\n        /* \"#utility.yul\":5277:5350   */\n      tag_82\n      jump\t// in\n    tag_171:\n        /* \"#utility.yul\":5269:5350   */\n      swap2\n      pop\n        /* \"#utility.yul\":5123:5361   */\n      pop\n        /* \"#utility.yul\":5448:5452   */\n      0x40\n        /* \"#utility.yul\":5441:5446   */\n      dup4\n        /* \"#utility.yul\":5437:5453   */\n      add\n        /* \"#utility.yul\":5431:5454   */\n      mload\n        /* \"#utility.yul\":5467:5524   */\n      tag_172\n        /* \"#utility.yul\":5518:5522   */\n      0x40\n        /* \"#utility.yul\":5513:5516   */\n      dup7\n        /* \"#utility.yul\":5509:5523   */\n      add\n        /* \"#utility.yul\":5495:5507   */\n      dup3\n        /* \"#utility.yul\":5467:5524   */\n      tag_84\n      jump\t// in\n    tag_172:\n        /* \"#utility.yul\":5371:5534   */\n      pop\n        /* \"#utility.yul\":5551:5555   */\n      dup1\n        /* \"#utility.yul\":5544:5555   */\n      swap2\n      pop\n        /* \"#utility.yul\":4905:5561   */\n      pop\n        /* \"#utility.yul\":4803:5561   */\n      swap3\n      swap2\n      pop\n      pop\n      jump\t// out\n        /* \"#utility.yul\":5567:5799   */\n    tag_86:\n        /* \"#utility.yul\":5674:5684   */\n      0x00\n        /* \"#utility.yul\":5709:5793   */\n      tag_174\n        /* \"#utility.yul\":5789:5792   */\n      dup4\n        /* \"#utility.yul\":5781:5787   */\n      dup4\n        /* \"#utility.yul\":5709:5793   */\n      tag_85\n      jump\t// in\n    tag_174:\n        /* \"#utility.yul\":5695:5793   */\n      swap1\n      pop\n        /* \"#utility.yul\":5567:5799   */\n      swap3\n      swap2\n      pop\n      pop\n      jump\t// out\n        /* \"#utility.yul\":5805:5937   */\n    tag_87:\n        /* \"#utility.yul\":5894:5898   */\n      0x00\n        /* \"#utility.yul\":5926:5930   */\n      0x20\n        /* \"#utility.yul\":5921:5924   */\n      dup3\n        /* \"#utility.yul\":5917:5931   */\n      add\n        /* \"#utility.yul\":5909:5931   */\n      swap1\n      pop\n        /* \"#utility.yul\":5805:5937   */\n      swap2\n      swap1\n      pop\n      jump\t// out\n        /* \"#utility.yul\":5999:7062   */\n    tag_88:\n        /* \"#utility.yul\":6156:6159   */\n      0x00\n        /* \"#utility.yul\":6185:6258   */\n      tag_177\n        /* \"#utility.yul\":6252:6257   */\n      dup3\n        /* \"#utility.yul\":6185:6258   */\n      tag_74\n      jump\t// in\n    tag_177:\n        /* \"#utility.yul\":6274:6379   */\n      tag_178\n        /* \"#utility.yul\":6372:6378   */\n      dup2\n        /* \"#utility.yul\":6367:6370   */\n      dup6\n        /* \"#utility.yul\":6274:6379   */\n      tag_75\n      jump\t// in\n    tag_178:\n        /* \"#utility.yul\":6267:6379   */\n      swap4\n      pop\n        /* \"#utility.yul\":6405:6408   */\n      dup4\n        /* \"#utility.yul\":6450:6454   */\n      0x20\n        /* \"#utility.yul\":6442:6448   */\n      dup3\n        /* \"#utility.yul\":6438:6455   */\n      mul\n        /* \"#utility.yul\":6433:6436   */\n      dup6\n        /* \"#utility.yul\":6429:6456   */\n      add\n        /* \"#utility.yul\":6480:6555   */\n      tag_179\n        /* \"#utility.yul\":6549:6554   */\n      dup6\n        /* \"#utility.yul\":6480:6555   */\n      tag_76\n      jump\t// in\n    tag_179:\n        /* \"#utility.yul\":6578:6585   */\n      dup1\n        /* \"#utility.yul\":6609:6610   */\n      0x00\n        /* \"#utility.yul\":6594:7017   */\n    tag_180:\n        /* \"#utility.yul\":6619:6625   */\n      dup6\n        /* \"#utility.yul\":6616:6617   */\n      dup2\n        /* \"#utility.yul\":6613:6626   */\n      lt\n        /* \"#utility.yul\":6594:7017   */\n      iszero\n      tag_182\n      jumpi\n        /* \"#utility.yul\":6690:6699   */\n      dup5\n        /* \"#utility.yul\":6684:6688   */\n      dup5\n        /* \"#utility.yul\":6680:6700   */\n      sub\n        /* \"#utility.yul\":6675:6678   */\n      dup10\n        /* \"#utility.yul\":6668:6701   */\n      mstore\n        /* \"#utility.yul\":6741:6747   */\n      dup2\n        /* \"#utility.yul\":6735:6748   */\n      mload\n        /* \"#utility.yul\":6769:6871   */\n      tag_183\n        /* \"#utility.yul\":6866:6870   */\n      dup6\n        /* \"#utility.yul\":6851:6864   */\n      dup3\n        /* \"#utility.yul\":6769:6871   */\n      tag_86\n      jump\t// in\n    tag_183:\n        /* \"#utility.yul\":6761:6871   */\n      swap5\n      pop\n        /* \"#utility.yul\":6894:6973   */\n      tag_184\n        /* \"#utility.yul\":6966:6972   */\n      dup4\n        /* \"#utility.yul\":6894:6973   */\n      tag_87\n      jump\t// in\n    tag_184:\n        /* \"#utility.yul\":6884:6973   */\n      swap3\n      pop\n        /* \"#utility.yul\":7002:7006   */\n      0x20\n        /* \"#utility.yul\":6997:7000   */\n      dup11\n        /* \"#utility.yul\":6993:7007   */\n      add\n        /* \"#utility.yul\":6986:7007   */\n      swap10\n      pop\n        /* \"#utility.yul\":6654:7017   */\n      pop\n        /* \"#utility.yul\":6641:6642   */\n      0x01\n        /* \"#utility.yul\":6638:6639   */\n      dup2\n        /* \"#utility.yul\":6634:6643   */\n      add\n        /* \"#utility.yul\":6629:6643   */\n      swap1\n      pop\n        /* \"#utility.yul\":6594:7017   */\n      jump(tag_180)\n    tag_182:\n        /* \"#utility.yul\":6598:6612   */\n      pop\n        /* \"#utility.yul\":7033:7037   */\n      dup3\n        /* \"#utility.yul\":7026:7037   */\n      swap8\n      pop\n        /* \"#utility.yul\":7053:7056   */\n      dup8\n        /* \"#utility.yul\":7046:7056   */\n      swap6\n      pop\n        /* \"#utility.yul\":6161:7062   */\n      pop\n      pop\n      pop\n      pop\n      pop\n        /* \"#utility.yul\":5999:7062   */\n      swap3\n      swap2\n      pop\n      pop\n      jump\t// out\n        /* \"#utility.yul\":7068:7517   */\n    tag_15:\n        /* \"#utility.yul\":7249:7253   */\n      0x00\n        /* \"#utility.yul\":7287:7289   */\n      0x20\n        /* \"#utility.yul\":7276:7285   */\n      dup3\n        /* \"#utility.yul\":7272:7290   */\n      add\n        /* \"#utility.yul\":7264:7290   */\n      swap1\n      pop\n        /* \"#utility.yul\":7336:7345   */\n      dup2\n        /* \"#utility.yul\":7330:7334   */\n      dup2\n        /* \"#utility.yul\":7326:7346   */\n      sub\n        /* \"#utility.yul\":7322:7323   */\n      0x00\n        /* \"#utility.yul\":7311:7320   */\n      dup4\n        /* \"#utility.yul\":7307:7324   */\n      add\n        /* \"#utility.yul\":7300:7347   */\n      mstore\n        /* \"#utility.yul\":7364:7510   */\n      tag_186\n        /* \"#utility.yul\":7505:7509   */\n      dup2\n        /* \"#utility.yul\":7496:7502   */\n      dup5\n        /* \"#utility.yul\":7364:7510   */\n      tag_88\n      jump\t// in\n    tag_186:\n        /* \"#utility.yul\":7356:7510   */\n      swap1\n      pop\n        /* \"#utility.yul\":7068:7517   */\n      swap3\n      swap2\n      pop\n      pop\n      jump\t// out\n        /* \"#utility.yul\":7523:7645   */\n    tag_89:\n        /* \"#utility.yul\":7596:7620   */\n      tag_188\n        /* \"#utility.yul\":7614:7619   */\n      dup2\n        /* \"#utility.yul\":7596:7620   */\n      tag_77\n      jump\t// in\n    tag_188:\n        /* \"#utility.yul\":7589:7594   */\n      dup2\n        /* \"#utility.yul\":7586:7621   */\n      eq\n        /* \"#utility.yul\":7576:7639   */\n      tag_189\n      jumpi\n        /* \"#utility.yul\":7635:7636   */\n      0x00\n        /* \"#utility.yul\":7632:7633   */\n      0x00\n        /* \"#utility.yul\":7625:7637   */\n      revert\n        /* \"#utility.yul\":7576:7639   */\n    tag_189:\n        /* \"#utility.yul\":7523:7645   */\n      pop\n      jump\t// out\n        /* \"#utility.yul\":7651:7790   */\n    tag_90:\n        /* \"#utility.yul\":7697:7702   */\n      0x00\n        /* \"#utility.yul\":7735:7741   */\n      dup2\n        /* \"#utility.yul\":7722:7742   */\n      calldataload\n        /* \"#utility.yul\":7713:7742   */\n      swap1\n      pop\n        /* \"#utility.yul\":7751:7784   */\n      tag_191\n        /* \"#utility.yul\":7778:7783   */\n      dup2\n        /* \"#utility.yul\":7751:7784   */\n      tag_89\n      jump\t// in\n    tag_191:\n        /* \"#utility.yul\":7651:7790   */\n      swap3\n      swap2\n      pop\n      pop\n      jump\t// out\n        /* \"#utility.yul\":7796:8125   */\n    tag_18:\n        /* \"#utility.yul\":7855:7861   */\n      0x00\n        /* \"#utility.yul\":7904:7906   */\n      0x20\n        /* \"#utility.yul\":7892:7901   */\n      dup3\n        /* \"#utility.yul\":7883:7890   */\n      dup5\n        /* \"#utility.yul\":7879:7902   */\n      sub\n        /* \"#utility.yul\":7875:7907   */\n      slt\n        /* \"#utility.yul\":7872:7991   */\n      iszero\n      tag_193\n      jumpi\n        /* \"#utility.yul\":7910:7989   */\n      tag_194\n      tag_62\n      jump\t// in\n    tag_194:\n        /* \"#utility.yul\":7872:7991   */\n    tag_193:\n        /* \"#utility.yul\":8030:8031   */\n      0x00\n        /* \"#utility.yul\":8055:8108   */\n      tag_195\n        /* \"#utility.yul\":8100:8107   */\n      dup5\n        /* \"#utility.yul\":8091:8097   */\n      dup3\n        /* \"#utility.yul\":8080:8089   */\n      dup6\n        /* \"#utility.yul\":8076:8098   */\n      add\n        /* \"#utility.yul\":8055:8108   */\n      tag_90\n      jump\t// in\n    tag_195:\n        /* \"#utility.yul\":8045:8108   */\n      swap2\n      pop\n        /* \"#utility.yul\":8001:8118   */\n      pop\n        /* \"#utility.yul\":7796:8125   */\n      swap3\n      swap2\n      pop\n      pop\n      jump\t// out\n        /* \"#utility.yul\":8131:8257   */\n    tag_91:\n        /* \"#utility.yul\":8168:8175   */\n      0x00\n        /* \"#utility.yul\":8208:8250   */\n      0xffffffffffffffffffffffffffffffffffffffff\n        /* \"#utility.yul\":8201:8206   */\n      dup3\n        /* \"#utility.yul\":8197:8251   */\n      and\n        /* \"#utility.yul\":8186:8251   */\n      swap1\n      pop\n        /* \"#utility.yul\":8131:8257   */\n      swap2\n      swap1\n      pop\n      jump\t// out\n        /* \"#utility.yul\":8263:8359   */\n    tag_92:\n        /* \"#utility.yul\":8300:8307   */\n      0x00\n        /* \"#utility.yul\":8329:8353   */\n      tag_198\n        /* \"#utility.yul\":8347:8352   */\n      dup3\n        /* \"#utility.yul\":8329:8353   */\n      tag_91\n      jump\t// in\n    tag_198:\n        /* \"#utility.yul\":8318:8353   */\n      swap1\n      pop\n        /* \"#utility.yul\":8263:8359   */\n      swap2\n      swap1\n      pop\n      jump\t// out\n        /* \"#utility.yul\":8365:8487   */\n    tag_93:\n        /* \"#utility.yul\":8438:8462   */\n      tag_200\n        /* \"#utility.yul\":8456:8461   */\n      dup2\n        /* \"#utility.yul\":8438:8462   */\n      tag_92\n      jump\t// in\n    tag_200:\n        /* \"#utility.yul\":8431:8436   */\n      dup2\n        /* \"#utility.yul\":8428:8463   */\n      eq\n        /* \"#utility.yul\":8418:8481   */\n      tag_201\n      jumpi\n        /* \"#utility.yul\":8477:8478   */\n      0x00\n        /* \"#utility.yul\":8474:8475   */\n      0x00\n        /* \"#utility.yul\":8467:8479   */\n      revert\n        /* \"#utility.yul\":8418:8481   */\n    tag_201:\n        /* \"#utility.yul\":8365:8487   */\n      pop\n      jump\t// out\n        /* \"#utility.yul\":8493:8632   */\n    tag_94:\n        /* \"#utility.yul\":8539:8544   */\n      0x00\n        /* \"#utility.yul\":8577:8583   */\n      dup2\n        /* \"#utility.yul\":8564:8584   */\n      calldataload\n        /* \"#utility.yul\":8555:8584   */\n      swap1\n      pop\n        /* \"#utility.yul\":8593:8626   */\n      tag_203\n        /* \"#utility.yul\":8620:8625   */\n      dup2\n        /* \"#utility.yul\":8593:8626   */\n      tag_93\n      jump\t// in\n    tag_203:\n        /* \"#utility.yul\":8493:8632   */\n      swap3\n      swap2\n      pop\n      pop\n      jump\t// out\n        /* \"#utility.yul\":8638:9112   */\n    tag_22:\n        /* \"#utility.yul\":8706:8712   */\n      0x00\n        /* \"#utility.yul\":8714:8720   */\n      0x00\n        /* \"#utility.yul\":8763:8765   */\n      0x40\n        /* \"#utility.yul\":8751:8760   */\n      dup4\n        /* \"#utility.yul\":8742:8749   */\n      dup6\n        /* \"#utility.yul\":8738:8761   */\n      sub\n        /* \"#utility.yul\":8734:8766   */\n      slt\n        /* \"#utility.yul\":8731:8850   */\n      iszero\n      tag_205\n      jumpi\n        /* \"#utility.yul\":8769:8848   */\n      tag_206\n      tag_62\n      jump\t// in\n    tag_206:\n        /* \"#utility.yul\":8731:8850   */\n    tag_205:\n        /* \"#utility.yul\":8889:8890   */\n      0x00\n        /* \"#utility.yul\":8914:8967   */\n      tag_207\n        /* \"#utility.yul\":8959:8966   */\n      dup6\n        /* \"#utility.yul\":8950:8956   */\n      dup3\n        /* \"#utility.yul\":8939:8948   */\n      dup7\n        /* \"#utility.yul\":8935:8957   */\n      add\n        /* \"#utility.yul\":8914:8967   */\n      tag_94\n      jump\t// in\n    tag_207:\n        /* \"#utility.yul\":8904:8967   */\n      swap3\n      pop\n        /* \"#utility.yul\":8860:8977   */\n      pop\n        /* \"#utility.yul\":9016:9018   */\n      0x20\n        /* \"#utility.yul\":9042:9095   */\n      tag_208\n        /* \"#utility.yul\":9087:9094   */\n      dup6\n        /* \"#utility.yul\":9078:9084   */\n      dup3\n        /* \"#utility.yul\":9067:9076   */\n      dup7\n        /* \"#utility.yul\":9063:9085   */\n      add\n        /* \"#utility.yul\":9042:9095   */\n      tag_90\n      jump\t// in\n    tag_208:\n        /* \"#utility.yul\":9032:9095   */\n      swap2\n      pop\n        /* \"#utility.yul\":8987:9105   */\n      pop\n        /* \"#utility.yul\":8638:9112   */\n      swap3\n      pop\n      swap3\n      swap1\n      pop\n      jump\t// out\n        /* \"#utility.yul\":9118:9236   */\n    tag_95:\n        /* \"#utility.yul\":9205:9229   */\n      tag_210\n        /* \"#utility.yul\":9223:9228   */\n      dup2\n        /* \"#utility.yul\":9205:9229   */\n      tag_77\n      jump\t// in\n    tag_210:\n        /* \"#utility.yul\":9200:9203   */\n      dup3\n        /* \"#utility.yul\":9193:9230   */\n      mstore\n        /* \"#utility.yul\":9118:9236   */\n      pop\n      pop\n      jump\t// out\n        /* \"#utility.yul\":9242:9411   */\n    tag_96:\n        /* \"#utility.yul\":9326:9337   */\n      0x00\n        /* \"#utility.yul\":9360:9366   */\n      dup3\n        /* \"#utility.yul\":9355:9358   */\n      dup3\n        /* \"#utility.yul\":9348:9367   */\n      mstore\n        /* \"#utility.yul\":9400:9404   */\n      0x20\n        /* \"#utility.yul\":9395:9398   */\n      dup3\n        /* \"#utility.yul\":9391:9405   */\n      add\n        /* \"#utility.yul\":9376:9405   */\n      swap1\n      pop\n        /* \"#utility.yul\":9242:9411   */\n      swap3\n      swap2\n      pop\n      pop\n      jump\t// out\n        /* \"#utility.yul\":9417:9794   */\n    tag_97:\n        /* \"#utility.yul\":9505:9508   */\n      0x00\n        /* \"#utility.yul\":9533:9572   */\n      tag_213\n        /* \"#utility.yul\":9566:9571   */\n      dup3\n        /* \"#utility.yul\":9533:9572   */\n      tag_79\n      jump\t// in\n    tag_213:\n        /* \"#utility.yul\":9588:9659   */\n      tag_214\n        /* \"#utility.yul\":9652:9658   */\n      dup2\n        /* \"#utility.yul\":9647:9650   */\n      dup6\n        /* \"#utility.yul\":9588:9659   */\n      tag_96\n      jump\t// in\n    tag_214:\n        /* \"#utility.yul\":9581:9659   */\n      swap4\n      pop\n        /* \"#utility.yul\":9668:9733   */\n      tag_215\n        /* \"#utility.yul\":9726:9732   */\n      dup2\n        /* \"#utility.yul\":9721:9724   */\n      dup6\n        /* \"#utility.yul\":9714:9718   */\n      0x20\n        /* \"#utility.yul\":9707:9712   */\n      dup7\n        /* \"#utility.yul\":9703:9719   */\n      add\n        /* \"#utility.yul\":9668:9733   */\n      tag_81\n      jump\t// in\n    tag_215:\n        /* \"#utility.yul\":9758:9787   */\n      tag_216\n        /* \"#utility.yul\":9780:9786   */\n      dup2\n        /* \"#utility.yul\":9758:9787   */\n      tag_66\n      jump\t// in\n    tag_216:\n        /* \"#utility.yul\":9753:9756   */\n      dup5\n        /* \"#utility.yul\":9749:9788   */\n      add\n        /* \"#utility.yul\":9742:9788   */\n      swap2\n      pop\n        /* \"#utility.yul\":9509:9794   */\n      pop\n        /* \"#utility.yul\":9417:9794   */\n      swap3\n      swap2\n      pop\n      pop\n      jump\t// out\n        /* \"#utility.yul\":9800:9909   */\n    tag_98:\n        /* \"#utility.yul\":9881:9902   */\n      tag_218\n        /* \"#utility.yul\":9896:9901   */\n      dup2\n        /* \"#utility.yul\":9881:9902   */\n      tag_83\n      jump\t// in\n    tag_218:\n        /* \"#utility.yul\":9876:9879   */\n      dup3\n        /* \"#utility.yul\":9869:9903   */\n      mstore\n        /* \"#utility.yul\":9800:9909   */\n      pop\n      pop\n      jump\t// out\n        /* \"#utility.yul\":9915:10436   */\n    tag_25:\n        /* \"#utility.yul\":10078:10082   */\n      0x00\n        /* \"#utility.yul\":10116:10118   */\n      0x60\n        /* \"#utility.yul\":10105:10114   */\n      dup3\n        /* \"#utility.yul\":10101:10119   */\n      add\n        /* \"#utility.yul\":10093:10119   */\n      swap1\n      pop\n        /* \"#utility.yul\":10129:10200   */\n      tag_220\n        /* \"#utility.yul\":10197:10198   */\n      0x00\n        /* \"#utility.yul\":10186:10195   */\n      dup4\n        /* \"#utility.yul\":10182:10199   */\n      add\n        /* \"#utility.yul\":10173:10179   */\n      dup7\n        /* \"#utility.yul\":10129:10200   */\n      tag_95\n      jump\t// in\n    tag_220:\n        /* \"#utility.yul\":10247:10256   */\n      dup2\n        /* \"#utility.yul\":10241:10245   */\n      dup2\n        /* \"#utility.yul\":10237:10257   */\n      sub\n        /* \"#utility.yul\":10232:10234   */\n      0x20\n        /* \"#utility.yul\":10221:10230   */\n      dup4\n        /* \"#utility.yul\":10217:10235   */\n      add\n        /* \"#utility.yul\":10210:10258   */\n      mstore\n        /* \"#utility.yul\":10275:10353   */\n      tag_221\n        /* \"#utility.yul\":10348:10352   */\n      dup2\n        /* \"#utility.yul\":10339:10345   */\n      dup6\n        /* \"#utility.yul\":10275:10353   */\n      tag_97\n      jump\t// in\n    tag_221:\n        /* \"#utility.yul\":10267:10353   */\n      swap1\n      pop\n        /* \"#utility.yul\":10363:10429   */\n      tag_222\n        /* \"#utility.yul\":10425:10427   */\n      0x40\n        /* \"#utility.yul\":10414:10423   */\n      dup4\n        /* \"#utility.yul\":10410:10428   */\n      add\n        /* \"#utility.yul\":10401:10407   */\n      dup5\n        /* \"#utility.yul\":10363:10429   */\n      tag_98\n      jump\t// in\n    tag_222:\n        /* \"#utility.yul\":9915:10436   */\n      swap5\n      swap4\n      pop\n      pop\n      pop\n      pop\n      jump\t// out\n        /* \"#utility.yul\":10442:10664   */\n    tag_29:\n        /* \"#utility.yul\":10535:10539   */\n      0x00\n        /* \"#utility.yul\":10573:10575   */\n      0x20\n        /* \"#utility.yul\":10562:10571   */\n      dup3\n        /* \"#utility.yul\":10558:10576   */\n      add\n        /* \"#utility.yul\":10550:10576   */\n      swap1\n      pop\n        /* \"#utility.yul\":10586:10657   */\n      tag_224\n        /* \"#utility.yul\":10654:10655   */\n      0x00\n        /* \"#utility.yul\":10643:10652   */\n      dup4\n        /* \"#utility.yul\":10639:10656   */\n      add\n        /* \"#utility.yul\":10630:10636   */\n      dup5\n        /* \"#utility.yul\":10586:10657   */\n      tag_95\n      jump\t// in\n    tag_224:\n        /* \"#utility.yul\":10442:10664   */\n      swap3\n      swap2\n      pop\n      pop\n      jump\t// out\n        /* \"#utility.yul\":10670:10850   */\n    tag_99:\n        /* \"#utility.yul\":10718:10795   */\n      0x4e487b7100000000000000000000000000000000000000000000000000000000\n        /* \"#utility.yul\":10715:10716   */\n      0x00\n        /* \"#utility.yul\":10708:10796   */\n      mstore\n        /* \"#utility.yul\":10815:10819   */\n      0x22\n        /* \"#utility.yul\":10812:10813   */\n      0x04\n        /* \"#utility.yul\":10805:10820   */\n      mstore\n        /* \"#utility.yul\":10839:10843   */\n      0x24\n        /* \"#utility.yul\":10836:10837   */\n      0x00\n        /* \"#utility.yul\":10829:10844   */\n      revert\n        /* \"#utility.yul\":10856:11176   */\n    tag_41:\n        /* \"#utility.yul\":10900:10906   */\n      0x00\n        /* \"#utility.yul\":10937:10938   */\n      0x02\n        /* \"#utility.yul\":10931:10935   */\n      dup3\n        /* \"#utility.yul\":10927:10939   */\n      div\n        /* \"#utility.yul\":10917:10939   */\n      swap1\n      pop\n        /* \"#utility.yul\":10984:10985   */\n      0x01\n        /* \"#utility.yul\":10978:10982   */\n      dup3\n        /* \"#utility.yul\":10974:10986   */\n      and\n        /* \"#utility.yul\":11005:11023   */\n      dup1\n        /* \"#utility.yul\":10995:11076   */\n      tag_227\n      jumpi\n        /* \"#utility.yul\":11061:11065   */\n      0x7f\n        /* \"#utility.yul\":11053:11059   */\n      dup3\n        /* \"#utility.yul\":11049:11066   */\n      and\n        /* \"#utility.yul\":11039:11066   */\n      swap2\n      pop\n        /* \"#utility.yul\":10995:11076   */\n    tag_227:\n        /* \"#utility.yul\":11123:11125   */\n      0x20\n        /* \"#utility.yul\":11115:11121   */\n      dup3\n        /* \"#utility.yul\":11112:11126   */\n      lt\n        /* \"#utility.yul\":11092:11110   */\n      dup2\n        /* \"#utility.yul\":11089:11127   */\n      sub\n        /* \"#utility.yul\":11086:11170   */\n      tag_228\n      jumpi\n        /* \"#utility.yul\":11142:11160   */\n      tag_229\n      tag_99\n      jump\t// in\n    tag_229:\n        /* \"#utility.yul\":11086:11170   */\n    tag_228:\n        /* \"#utility.yul\":10907:11176   */\n      pop\n        /* \"#utility.yul\":10856:11176   */\n      swap2\n      swap1\n      pop\n      jump\t// out\n        /* \"#utility.yul\":11182:11323   */\n    tag_100:\n        /* \"#utility.yul\":11231:11235   */\n      0x00\n        /* \"#utility.yul\":11254:11257   */\n      dup2\n        /* \"#utility.yul\":11246:11257   */\n      swap1\n      pop\n        /* \"#utility.yul\":11277:11280   */\n      dup2\n        /* \"#utility.yul\":11274:11275   */\n      0x00\n        /* \"#utility.yul\":11267:11281   */\n      mstore\n        /* \"#utility.yul\":11311:11315   */\n      0x20\n        /* \"#utility.yul\":11308:11309   */\n      0x00\n        /* \"#utility.yul\":11298:11316   */\n      keccak256\n        /* \"#utility.yul\":11290:11316   */\n      swap1\n      pop\n        /* \"#utility.yul\":11182:11323   */\n      swap2\n      swap1\n      pop\n      jump\t// out\n        /* \"#utility.yul\":11329:11422   */\n    tag_101:\n        /* \"#utility.yul\":11366:11372   */\n      0x00\n        /* \"#utility.yul\":11413:11415   */\n      0x20\n        /* \"#utility.yul\":11408:11410   */\n      0x1f\n        /* \"#utility.yul\":11401:11406   */\n      dup4\n        /* \"#utility.yul\":11397:11411   */\n      add\n        /* \"#utility.yul\":11393:11416   */\n      div\n        /* \"#utility.yul\":11383:11416   */\n      swap1\n      pop\n        /* \"#utility.yul\":11329:11422   */\n      swap2\n      swap1\n      pop\n      jump\t// out\n        /* \"#utility.yul\":11428:11535   */\n    tag_102:\n        /* \"#utility.yul\":11472:11480   */\n      0x00\n        /* \"#utility.yul\":11522:11527   */\n      dup3\n        /* \"#utility.yul\":11516:11520   */\n      dup3\n        /* \"#utility.yul\":11512:11528   */\n      shl\n        /* \"#utility.yul\":11491:11528   */\n      swap1\n      pop\n        /* \"#utility.yul\":11428:11535   */\n      swap3\n      swap2\n      pop\n      pop\n      jump\t// out\n        /* \"#utility.yul\":11541:11934   */\n    tag_103:\n        /* \"#utility.yul\":11610:11616   */\n      0x00\n        /* \"#utility.yul\":11660:11661   */\n      0x08\n        /* \"#utility.yul\":11648:11658   */\n      dup4\n        /* \"#utility.yul\":11644:11662   */\n      mul\n        /* \"#utility.yul\":11683:11780   */\n      tag_234\n        /* \"#utility.yul\":11713:11779   */\n      0xffffffffffffffffffffffffffffffffffffffffffffffffffffffffffffffff\n        /* \"#utility.yul\":11702:11711   */\n      dup3\n        /* \"#utility.yul\":11683:11780   */\n      tag_102\n      jump\t// in\n    tag_234:\n        /* \"#utility.yul\":11801:11840   */\n      tag_235\n        /* \"#utility.yul\":11831:11839   */\n      dup7\n        /* \"#utility.yul\":11820:11829   */\n      dup4\n        /* \"#utility.yul\":11801:11840   */\n      tag_102\n      jump\t// in\n    tag_235:\n        /* \"#utility.yul\":11789:11840   */\n      swap6\n      pop\n        /* \"#utility.yul\":11873:11877   */\n      dup1\n        /* \"#utility.yul\":11869:11878   */\n      not\n        /* \"#utility.yul\":11862:11867   */\n      dup5\n        /* \"#utility.yul\":11858:11879   */\n      and\n        /* \"#utility.yul\":11849:11879   */\n      swap4\n      pop\n        /* \"#utility.yul\":11922:11926   */\n      dup1\n        /* \"#utility.yul\":11912:11920   */\n      dup7\n        /* \"#utility.yul\":11908:11927   */\n      and\n        /* \"#utility.yul\":11901:11906   */\n      dup5\n        /* \"#utility.yul\":11898:11928   */\n      or\n        /* \"#utility.yul\":11888:11928   */\n      swap3\n      pop\n        /* \"#utility.yul\":11617:11934   */\n      pop\n      pop\n        /* \"#utility.yul\":11541:11934   */\n      swap4\n      swap3\n      pop\n      pop\n      pop\n      jump\t// out\n        /* \"#utility.yul\":11940:12000   */\n    tag_104:\n        /* \"#utility.yul\":11968:11971   */\n      0x00\n        /* \"#utility.yul\":11989:11994   */\n      dup2\n        /* \"#utility.yul\":11982:11994   */\n      swap1\n      pop\n        /* \"#utility.yul\":11940:12000   */\n      swap2\n      swap1\n      pop\n      jump\t// out\n        /* \"#utility.yul\":12006:12148   */\n    tag_105:\n        /* \"#utility.yul\":12056:12065   */\n      0x00\n        /* \"#utility.yul\":12089:12142   */\n      tag_238\n        /* \"#utility.yul\":12107:12141   */\n      tag_239\n        /* \"#utility.yul\":12116:12140   */\n      tag_240\n        /* \"#utility.yul\":12134:12139   */\n      dup5\n        /* \"#utility.yul\":12116:12140   */\n      tag_77\n      jump\t// in\n    tag_240:\n        /* \"#utility.yul\":12107:12141   */\n      tag_104\n      jump\t// in\n    tag_239:\n        /* \"#utility.yul\":12089:12142   */\n      tag_77\n      jump\t// in\n    tag_238:\n        /* \"#utility.yul\":12076:12142   */\n      swap1\n      pop\n        /* \"#utility.yul\":12006:12148   */\n      swap2\n      swap1\n      pop\n      jump\t// out\n        /* \"#utility.yul\":12154:12229   */\n    tag_106:\n        /* \"#utility.yul\":12197:12200   */\n      0x00\n        /* \"#utility.yul\":12218:12223   */\n      dup2\n        /* \"#utility.yul\":12211:12223   */\n      swap1\n      pop\n        /* \"#utility.yul\":12154:12229   */\n      swap2\n      swap1\n      pop\n      jump\t// out\n        /* \"#utility.yul\":12235:12504   */\n    tag_107:\n        /* \"#utility.yul\":12345:12384   */\n      tag_243\n        /* \"#utility.yul\":12376:12383   */\n      dup4\n        /* \"#utility.yul\":12345:12384   */\n      tag_105\n      jump\t// in\n    tag_243:\n        /* \"#utility.yul\":12406:12497   */\n      tag_244\n        /* \"#utility.yul\":12455:12496   */\n      tag_245\n        /* \"#utility.yul\":12479:12495   */\n      dup3\n        /* \"#utility.yul\":12455:12496   */\n      tag_106\n      jump\t// in\n    tag_245:\n        /* \"#utility.yul\":12447:12453   */\n      dup5\n        /* \"#utility.yul\":12440:12444   */\n      dup5\n        /* \"#utility.yul\":12434:12445   */\n      sload\n        /* \"#utility.yul\":12406:12497   */\n      tag_103\n      jump\t// in\n    tag_244:\n        /* \"#utility.yul\":12400:12404   */\n      dup3\n        /* \"#utility.yul\":12393:12498   */\n      sstore\n        /* \"#utility.yul\":12311:12504   */\n      pop\n        /* \"#utility.yul\":12235:12504   */\n      pop\n      pop\n      pop\n      jump\t// out\n        /* \"#utility.yul\":12510:12583   */\n    tag_108:\n        /* \"#utility.yul\":12555:12558   */\n      0x00\n        /* \"#utility.yul\":12576:12577   */\n      0x00\n        /* \"#utility.yul\":12569:12577   */\n      swap1\n      pop\n        /* \"#utility.yul\":12510:12583   */\n      swap1\n      jump\t// out\n        /* \"#utility.yul\":12589:12778   */\n    tag_109:\n        /* \"#utility.yul\":12666:12698   */\n      tag_248\n      tag_108\n      jump\t// in\n    tag_248:\n        /* \"#utility.yul\":12707:12772   */\n      tag_249\n        /* \"#utility.yul\":12765:12771   */\n      dup2\n        /* \"#utility.yul\":12757:12763   */\n      dup5\n        /* \"#utility.yul\":12751:12755   */\n      dup5\n        /* \"#utility.yul\":12707:12772   */\n      tag_107\n      jump\t// in\n    tag_249:\n        /* \"#utility.yul\":12642:12778   */\n      pop\n        /* \"#utility.yul\":12589:12778   */\n      pop\n      pop\n      jump\t// out\n        /* \"#utility.yul\":12784:12970   */\n    tag_110:\n        /* \"#utility.yul\":12844:12964   */\n    tag_251:\n        /* \"#utility.yul\":12861:12864   */\n      dup2\n        /* \"#utility.yul\":12854:12859   */\n      dup2\n        /* \"#utility.yul\":12851:12865   */\n      lt\n        /* \"#utility.yul\":12844:12964   */\n      iszero\n      tag_253\n      jumpi\n        /* \"#utility.yul\":12915:12954   */\n      tag_254\n        /* \"#utility.yul\":12952:12953   */\n      0x00\n        /* \"#utility.yul\":12945:12950   */\n      dup3\n        /* \"#utility.yul\":12915:12954   */\n      tag_109\n      jump\t// in\n    tag_254:\n        /* \"#utility.yul\":12888:12889   */\n      0x01\n        /* \"#utility.yul\":12881:12886   */\n      dup2\n        /* \"#utility.yul\":12877:12890   */\n      add\n        /* \"#utility.yul\":12868:12890   */\n      swap1\n      pop\n        /* \"#utility.yul\":12844:12964   */\n      jump(tag_251)\n    tag_253:\n        /* \"#utility.yul\":12784:12970   */\n      pop\n      pop\n      jump\t// out\n        /* \"#utility.yul\":12976:13519   */\n    tag_111:\n        /* \"#utility.yul\":13077:13079   */\n      0x1f\n        /* \"#utility.yul\":13072:13075   */\n      dup3\n        /* \"#utility.yul\":13069:13080   */\n      gt\n        /* \"#utility.yul\":13066:13512   */\n      iszero\n      tag_256\n      jumpi\n        /* \"#utility.yul\":13111:13149   */\n      tag_257\n        /* \"#utility.yul\":13143:13148   */\n      dup2\n        /* \"#utility.yul\":13111:13149   */\n      tag_100\n      jump\t// in\n    tag_257:\n        /* \"#utility.yul\":13195:13224   */\n      tag_258\n        /* \"#utility.yul\":13213:13223   */\n      dup5\n        /* \"#utility.yul\":13195:13224   */\n      tag_101\n      jump\t// in\n    tag_258:\n        /* \"#utility.yul\":13185:13193   */\n      dup2\n        /* \"#utility.yul\":13181:13225   */\n      add\n        /* \"#utility.yul\":13378:13380   */\n      0x20\n        /* \"#utility.yul\":13366:13376   */\n      dup6\n        /* \"#utility.yul\":13363:13381   */\n      lt\n        /* \"#utility.yul\":13360:13409   */\n      iszero\n      tag_259\n      jumpi\n        /* \"#utility.yul\":13399:13407   */\n      dup2\n        /* \"#utility.yul\":13384:13407   */\n      swap1\n      pop\n        /* \"#utility.yul\":13360:13409   */\n    tag_259:\n        /* \"#utility.yul\":13422:13502   */\n      tag_260\n        /* \"#utility.yul\":13478:13500   */\n      tag_261\n        /* \"#utility.yul\":13496:13499   */\n      dup6\n        /* \"#utility.yul\":13478:13500   */\n      tag_101\n      jump\t// in\n    tag_261:\n        /* \"#utility.yul\":13468:13476   */\n      dup4\n        /* \"#utility.yul\":13464:13501   */\n      add\n        /* \"#utility.yul\":13451:13462   */\n      dup3\n        /* \"#utility.yul\":13422:13502   */\n      tag_110\n      jump\t// in\n    tag_260:\n        /* \"#utility.yul\":13081:13512   */\n      pop\n      pop\n        /* \"#utility.yul\":13066:13512   */\n    tag_256:\n        /* \"#utility.yul\":12976:13519   */\n      pop\n      pop\n      pop\n      jump\t// out\n        /* \"#utility.yul\":13525:13642   */\n    tag_112:\n        /* \"#utility.yul\":13579:13587   */\n      0x00\n        /* \"#utility.yul\":13629:13634   */\n      dup3\n        /* \"#utility.yul\":13623:13627   */\n      dup3\n        /* \"#utility.yul\":13619:13635   */\n      shr\n        /* \"#utility.yul\":13598:13635   */\n      swap1\n      pop\n        /* \"#utility.yul\":13525:13642   */\n      swap3\n      swap2\n      pop\n      pop\n      jump\t// out\n        /* \"#utility.yul\":13648:13817   */\n    tag_113:\n        /* \"#utility.yul\":13692:13698   */\n      0x00\n        /* \"#utility.yul\":13725:13776   */\n      tag_264\n        /* \"#utility.yul\":13773:13774   */\n      0x00\n        /* \"#utility.yul\":13769:13775   */\n      not\n        /* \"#utility.yul\":13761:13766   */\n      dup5\n        /* \"#utility.yul\":13758:13759   */\n      0x08\n        /* \"#utility.yul\":13754:13767   */\n      mul\n        /* \"#utility.yul\":13725:13776   */\n      tag_112\n      jump\t// in\n    tag_264:\n        /* \"#utility.yul\":13721:13777   */\n      not\n        /* \"#utility.yul\":13806:13810   */\n      dup1\n        /* \"#utility.yul\":13800:13804   */\n      dup4\n        /* \"#utility.yul\":13796:13811   */\n      and\n        /* \"#utility.yul\":13786:13811   */\n      swap2\n      pop\n        /* \"#utility.yul\":13699:13817   */\n      pop\n        /* \"#utility.yul\":13648:13817   */\n      swap3\n      swap2\n      pop\n      pop\n      jump\t// out\n        /* \"#utility.yul\":13822:14117   */\n    tag_114:\n        /* \"#utility.yul\":13898:13902   */\n      0x00\n        /* \"#utility.yul\":14044:14073   */\n      tag_266\n        /* \"#utility.yul\":14069:14072   */\n      dup4\n        /* \"#utility.yul\":14063:14067   */\n      dup4\n        /* \"#utility.yul\":14044:14073   */\n      tag_113\n      jump\t// in\n    tag_266:\n        /* \"#utility.yul\":14036:14073   */\n      swap2\n      pop\n        /* \"#utility.yul\":14106:14109   */\n      dup3\n        /* \"#utility.yul\":14103:14104   */\n      0x02\n        /* \"#utility.yul\":14099:14110   */\n      mul\n        /* \"#utility.yul\":14093:14097   */\n      dup3\n        /* \"#utility.yul\":14090:14111   */\n      or\n        /* \"#utility.yul\":14082:14111   */\n      swap1\n      pop\n        /* \"#utility.yul\":13822:14117   */\n      swap3\n      swap2\n      pop\n      pop\n      jump\t// out\n        /* \"#utility.yul\":14122:15517   */\n    tag_33:\n        /* \"#utility.yul\":14239:14276   */\n      tag_268\n        /* \"#utility.yul\":14272:14275   */\n      dup3\n        /* \"#utility.yul\":14239:14276   */\n      tag_79\n      jump\t// in\n    tag_268:\n        /* \"#utility.yul\":14341:14359   */\n      0xffffffffffffffff\n        /* \"#utility.yul\":14333:14339   */\n      dup2\n        /* \"#utility.yul\":14330:14360   */\n      gt\n        /* \"#utility.yul\":14327:14383   */\n      iszero\n      tag_269\n      jumpi\n        /* \"#utility.yul\":14363:14381   */\n      tag_270\n      tag_67\n      jump\t// in\n    tag_270:\n        /* \"#utility.yul\":14327:14383   */\n    tag_269:\n        /* \"#utility.yul\":14407:14445   */\n      tag_271\n        /* \"#utility.yul\":14439:14443   */\n      dup3\n        /* \"#utility.yul\":14433:14444   */\n      sload\n        /* \"#utility.yul\":14407:14445   */\n      tag_41\n      jump\t// in\n    tag_271:\n        /* \"#utility.yul\":14492:14559   */\n      tag_272\n        /* \"#utility.yul\":14552:14558   */\n      dup3\n        /* \"#utility.yul\":14544:14550   */\n      dup3\n        /* \"#utility.yul\":14538:14542   */\n      dup6\n        /* \"#utility.yul\":14492:14559   */\n      tag_111\n      jump\t// in\n    tag_272:\n        /* \"#utility.yul\":14586:14587   */\n      0x00\n        /* \"#utility.yul\":14610:14614   */\n      0x20\n        /* \"#utility.yul\":14597:14614   */\n      swap1\n      pop\n        /* \"#utility.yul\":14642:14644   */\n      0x1f\n        /* \"#utility.yul\":14634:14640   */\n      dup4\n        /* \"#utility.yul\":14631:14645   */\n      gt\n        /* \"#utility.yul\":14659:14660   */\n      0x01\n        /* \"#utility.yul\":14654:15272   */\n      dup2\n      eq\n      tag_274\n      jumpi\n        /* \"#utility.yul\":15316:15317   */\n      0x00\n        /* \"#utility.yul\":15333:15339   */\n      dup5\n        /* \"#utility.yul\":15330:15407   */\n      iszero\n      tag_275\n      jumpi\n        /* \"#utility.yul\":15382:15391   */\n      dup3\n        /* \"#utility.yul\":15377:15380   */\n      dup8\n        /* \"#utility.yul\":15373:15392   */\n      add\n        /* \"#utility.yul\":15367:15393   */\n      mload\n        /* \"#utility.yul\":15358:15393   */\n      swap1\n      pop\n        /* \"#utility.yul\":15330:15407   */\n    tag_275:\n        /* \"#utility.yul\":15433:15500   */\n      tag_276\n        /* \"#utility.yul\":15493:15499   */\n      dup6\n        /* \"#utility.yul\":15486:15491   */\n      dup3\n        /* \"#utility.yul\":15433:15500   */\n      tag_114\n      jump\t// in\n    tag_276:\n        /* \"#utility.yul\":15427:15431   */\n      dup7\n        /* \"#utility.yul\":15420:15501   */\n      sstore\n        /* \"#utility.yul\":15289:15511   */\n      pop\n        /* \"#utility.yul\":14624:15511   */\n      jump(tag_273)\n        /* \"#utility.yul\":14654:15272   */\n    tag_274:\n        /* \"#utility.yul\":14706:14710   */\n      0x1f\n        /* \"#utility.yul\":14702:14711   */\n      not\n        /* \"#utility.yul\":14694:14700   */\n      dup5\n        /* \"#utility.yul\":14690:14712   */\n      and\n        /* \"#utility.yul\":14740:14777   */\n      tag_277\n        /* \"#utility.yul\":14772:14776   */\n      dup7\n        /* \"#utility.yul\":14740:14777   */\n      tag_100\n      jump\t// in\n    tag_277:\n        /* \"#utility.yul\":14799:14800   */\n      0x00\n        /* \"#utility.yul\":14813:15021   */\n    tag_278:\n        /* \"#utility.yul\":14827:14834   */\n      dup3\n        /* \"#utility.yul\":14824:14825   */\n      dup2\n        /* \"#utility.yul\":14821:14835   */\n      lt\n        /* \"#utility.yul\":14813:15021   */\n      iszero\n      tag_280\n      jumpi\n        /* \"#utility.yul\":14906:14915   */\n      dup5\n        /* \"#utility.yul\":14901:14904   */\n      dup10\n        /* \"#utility.yul\":14897:14916   */\n      add\n        /* \"#utility.yul\":14891:14917   */\n      mload\n        /* \"#utility.yul\":14883:14889   */\n      dup3\n        /* \"#utility.yul\":14876:14918   */\n      sstore\n        /* \"#utility.yul\":14957:14958   */\n      0x01\n        /* \"#utility.yul\":14949:14955   */\n      dup3\n        /* \"#utility.yul\":14945:14959   */\n      add\n        /* \"#utility.yul\":14935:14959   */\n      swap2\n      pop\n        /* \"#utility.yul\":15004:15006   */\n      0x20\n        /* \"#utility.yul\":14993:15002   */\n      dup6\n        /* \"#utility.yul\":14989:15007   */\n      add\n        /* \"#utility.yul\":14976:15007   */\n      swap5\n      pop\n        /* \"#utility.yul\":14850:14854   */\n      0x20\n        /* \"#utility.yul\":14847:14848   */\n      dup2\n        /* \"#utility.yul\":14843:14855   */\n      add\n        /* \"#utility.yul\":14838:14855   */\n      swap1\n      pop\n        /* \"#utility.yul\":14813:15021   */\n      jump(tag_278)\n    tag_280:\n        /* \"#utility.yul\":15049:15055   */\n      dup7\n        /* \"#utility.yul\":15040:15047   */\n      dup4\n        /* \"#utility.yul\":15037:15056   */\n      lt\n        /* \"#utility.yul\":15034:15213   */\n      iszero\n      tag_281\n      jumpi\n        /* \"#utility.yul\":15107:15116   */\n      dup5\n        /* \"#utility.yul\":15102:15105   */\n      dup10\n        /* \"#utility.yul\":15098:15117   */\n      add\n        /* \"#utility.yul\":15092:15118   */\n      mload\n        /* \"#utility.yul\":15150:15198   */\n      tag_282\n        /* \"#utility.yul\":15192:15196   */\n      0x1f\n        /* \"#utility.yul\":15184:15190   */\n      dup10\n        /* \"#utility.yul\":15180:15197   */\n      and\n        /* \"#utility.yul\":15169:15178   */\n      dup3\n        /* \"#utility.yul\":15150:15198   */\n      tag_113\n      jump\t// in\n    tag_282:\n        /* \"#utility.yul\":15142:15148   */\n      dup4\n        /* \"#utility.yul\":15135:15199   */\n      sstore\n        /* \"#utility.yul\":15057:15213   */\n      pop\n        /* \"#utility.yul\":15034:15213   */\n    tag_281:\n        /* \"#utility.yul\":15259:15260   */\n      0x01\n        /* \"#utility.yul\":15255:15256   */\n      0x02\n        /* \"#utility.yul\":15247:15253   */\n      dup9\n        /* \"#utility.yul\":15243:15257   */\n      mul\n        /* \"#utility.yul\":15239:15261   */\n      add\n        /* \"#utility.yul\":15233:15237   */\n      dup9\n        /* \"#utility.yul\":15226:15262   */\n      sstore\n        /* \"#utility.yul\":14661:15272   */\n      pop\n      pop\n      pop\n        /* \"#utility.yul\":14624:15511   */\n    tag_273:\n      pop\n        /* \"#utility.yul\":14214:15517   */\n      pop\n      pop\n      pop\n        /* \"#utility.yul\":14122:15517   */\n      pop\n      pop\n      jump\t// out\n        /* \"#utility.yul\":15523:15641   */\n    tag_115:\n        /* \"#utility.yul\":15610:15634   */\n      tag_284\n        /* \"#utility.yul\":15628:15633   */\n      dup2\n        /* \"#utility.yul\":15610:15634   */\n      tag_92\n      jump\t// in\n    tag_284:\n        /* \"#utility.yul\":15605:15608   */\n      dup3\n        /* \"#utility.yul\":15598:15635   */\n      mstore\n        /* \"#utility.yul\":15523:15641   */\n      pop\n      pop\n      jump\t// out\n        /* \"#utility.yul\":15647:16180   */\n    tag_35:\n        /* \"#utility.yul\":15816:15820   */\n      0x00\n        /* \"#utility.yul\":15854:15856   */\n      0x60\n        /* \"#utility.yul\":15843:15852   */\n      dup3\n        /* \"#utility.yul\":15839:15857   */\n      add\n        /* \"#utility.yul\":15831:15857   */\n      swap1\n      pop\n        /* \"#utility.yul\":15867:15938   */\n      tag_286\n        /* \"#utility.yul\":15935:15936   */\n      0x00\n        /* \"#utility.yul\":15924:15933   */\n      dup4\n        /* \"#utility.yul\":15920:15937   */\n      add\n        /* \"#utility.yul\":15911:15917   */\n      dup7\n        /* \"#utility.yul\":15867:15938   */\n      tag_115\n      jump\t// in\n    tag_286:\n        /* \"#utility.yul\":15948:16020   */\n      tag_287\n        /* \"#utility.yul\":16016:16018   */\n      0x20\n        /* \"#utility.yul\":16005:16014   */\n      dup4\n        /* \"#utility.yul\":16001:16019   */\n      add\n        /* \"#utility.yul\":15992:15998   */\n      dup6\n        /* \"#utility.yul\":15948:16020   */\n      tag_95\n      jump\t// in\n    tag_287:\n        /* \"#utility.yul\":16067:16076   */\n      dup2\n        /* \"#utility.yul\":16061:16065   */\n      dup2\n        /* \"#utility.yul\":16057:16077   */\n      sub\n        /* \"#utility.yul\":16052:16054   */\n      0x40\n        /* \"#utility.yul\":16041:16050   */\n      dup4\n        /* \"#utility.yul\":16037:16055   */\n      add\n        /* \"#utility.yul\":16030:16078   */\n      mstore\n        /* \"#utility.yul\":16095:16173   */\n      tag_288\n        /* \"#utility.yul\":16168:16172   */\n      dup2\n        /* \"#utility.yul\":16159:16165   */\n      dup5\n        /* \"#utility.yul\":16095:16173   */\n      tag_97\n      jump\t// in\n    tag_288:\n        /* \"#utility.yul\":16087:16173   */\n      swap1\n      pop\n        /* \"#utility.yul\":15647:16180   */\n      swap5\n      swap4\n      pop\n      pop\n      pop\n      pop\n      jump\t// out\n        /* \"#utility.yul\":16186:16366   */\n    tag_49:\n        /* \"#utility.yul\":16234:16311   */\n      0x4e487b7100000000000000000000000000000000000000000000000000000000\n        /* \"#utility.yul\":16231:16232   */\n      0x00\n        /* \"#utility.yul\":16224:16312   */\n      mstore\n        /* \"#utility.yul\":16331:16335   */\n      0x32\n        /* \"#utility.yul\":16328:16329   */\n      0x04\n        /* \"#utility.yul\":16321:16336   */\n      mstore\n        /* \"#utility.yul\":16355:16359   */\n      0x24\n        /* \"#utility.yul\":16352:16353   */\n      0x00\n        /* \"#utility.yul\":16345:16360   */\n      revert\n        /* \"#utility.yul\":16372:16704   */\n    tag_52:\n        /* \"#utility.yul\":16493:16497   */\n      0x00\n        /* \"#utility.yul\":16531:16533   */\n      0x40\n        /* \"#utility.yul\":16520:16529   */\n      dup3\n        /* \"#utility.yul\":16516:16534   */\n      add\n        /* \"#utility.yul\":16508:16534   */\n      swap1\n      pop\n        /* \"#utility.yul\":16544:16615   */\n      tag_291\n        /* \"#utility.yul\":16612:16613   */\n      0x00\n        /* \"#utility.yul\":16601:16610   */\n      dup4\n        /* \"#utility.yul\":16597:16614   */\n      add\n        /* \"#utility.yul\":16588:16594   */\n      dup6\n        /* \"#utility.yul\":16544:16615   */\n      tag_115\n      jump\t// in\n    tag_291:\n        /* \"#utility.yul\":16625:16697   */\n      tag_292\n        /* \"#utility.yul\":16693:16695   */\n      0x20\n        /* \"#utility.yul\":16682:16691   */\n      dup4\n        /* \"#utility.yul\":16678:16696   */\n      add\n        /* \"#utility.yul\":16669:16675   */\n      dup5\n        /* \"#utility.yul\":16625:16697   */\n      tag_95\n      jump\t// in\n    tag_292:\n        /* \"#utility.yul\":16372:16704   */\n      swap4\n      swap3\n      pop\n      pop\n      pop\n      jump\t// out\n\n    auxdata: 0xa264697066735822122055571d1f19a2fb51c1c276d0715deb3aaa766ca403af9b0c5fa0a64e5f57fe4464736f6c634300081e0033\n}\n",
				"bytecode": {
					"linkReferences": {},
					"object": "6080604052348015600e575f5ffd5b50610dfc8061001c5f395ff3fe608060405234801561000f575f5ffd5b5060043610610055575f3560e01c8063111002aa146100595780631bbaf3cf14610075578063455f50241461009357806366873a55146100af578063c17a340e146100e1575b5f5ffd5b610073600480360381019061006e91906106b2565b6100ff565b005b61007d61023f565b60405161008a9190610893565b60405180910390f35b6100ad60048036038101906100a891906108dd565b610388565b005b6100c960048036038101906100c49190610962565b61044e565b6040516100d893929190610a06565b60405180910390f35b6100e961051f565b6040516100f69190610a42565b60405180910390f35b5f5f5f3373ffffffffffffffffffffffffffffffffffffffff1673ffffffffffffffffffffffffffffffffffffffff1681526020019081526020015f208054905090505f5f3373ffffffffffffffffffffffffffffffffffffffff1673ffffffffffffffffffffffffffffffffffffffff1681526020019081526020015f2060405180606001604052808381526020018481526020015f1515815250908060018154018082558091505060019003905f5260205f2090600302015f909190919091505f820151815f015560208201518160010190816101de9190610c58565b506040820151816002015f6101000a81548160ff02191690831515021790555050507fa211005f5319202ee7ab6815fc340564635fb1eee9bc5a55aa10048c5b471dc433828460405161023393929190610d36565b60405180910390a15050565b60605f5f3373ffffffffffffffffffffffffffffffffffffffff1673ffffffffffffffffffffffffffffffffffffffff1681526020019081526020015f20805480602002602001604051908101604052809291908181526020015f905b8282101561037f578382905f5260205f2090600302016040518060600160405290815f82015481526020016001820180546102d690610a88565b80601f016020809104026020016040519081016040528092919081815260200182805461030290610a88565b801561034d5780601f106103245761010080835404028352916020019161034d565b820191905f5260205f20905b81548152906001019060200180831161033057829003601f168201915b50505050508152602001600282015f9054906101000a900460ff1615151515815250508152602001906001019061029c565b50505050905090565b5f5f5f3373ffffffffffffffffffffffffffffffffffffffff1673ffffffffffffffffffffffffffffffffffffffff1681526020019081526020015f2082815481106103d7576103d6610d72565b5b905f5260205f2090600302019050806002015f9054906101000a900460ff1615816002015f6101000a81548160ff0219169083151502179055507ff684d89bb0f42287bf32838774e4b7f8a60c11804b3c6d1791fa55f3067926433383604051610442929190610d9f565b60405180910390a15050565b5f602052815f5260405f208181548110610466575f80fd5b905f5260205f2090600302015f9150915050805f01549080600101805461048c90610a88565b80601f01602080910402602001604051908101604052809291908181526020018280546104b890610a88565b80156105035780601f106104da57610100808354040283529160200191610503565b820191905f5260205f20905b8154815290600101906020018083116104e657829003601f168201915b505050505090806002015f9054906101000a900460ff16905083565b5f5f5f3373ffffffffffffffffffffffffffffffffffffffff1673ffffffffffffffffffffffffffffffffffffffff1681526020019081526020015f2080549050905090565b5f604051905090565b5f5ffd5b5f5ffd5b5f5ffd5b5f5ffd5b5f601f19601f8301169050919050565b7f4e487b71000000000000000000000000000000000000000000000000000000005f52604160045260245ffd5b6105c48261057e565b810181811067ffffffffffffffff821117156105e3576105e261058e565b5b80604052505050565b5f6105f5610565565b905061060182826105bb565b919050565b5f67ffffffffffffffff8211156106205761061f61058e565b5b6106298261057e565b9050602081019050919050565b828183375f83830152505050565b5f61065661065184610606565b6105ec565b9050828152602081018484840111156106725761067161057a565b5b61067d848285610636565b509392505050565b5f82601f83011261069957610698610576565b5b81356106a9848260208601610644565b91505092915050565b5f602082840312156106c7576106c661056e565b5b5f82013567ffffffffffffffff8111156106e4576106e3610572565b5b6106f084828501610685565b91505092915050565b5f81519050919050565b5f82825260208201905092915050565b5f819050602082019050919050565b5f819050919050565b61073481610722565b82525050565b5f81519050919050565b5f82825260208201905092915050565b8281835e5f83830152505050565b5f61076c8261073a565b6107768185610744565b9350610786818560208601610754565b61078f8161057e565b840191505092915050565b5f8115159050919050565b6107ae8161079a565b82525050565b5f606083015f8301516107c95f86018261072b565b50602083015184820360208601526107e18282610762565b91505060408301516107f660408601826107a5565b508091505092915050565b5f61080c83836107b4565b905092915050565b5f602082019050919050565b5f61082a826106f9565b6108348185610703565b93508360208202850161084685610713565b805f5b8581101561088157848403895281516108628582610801565b945061086d83610814565b925060208a01995050600181019050610849565b50829750879550505050505092915050565b5f6020820190508181035f8301526108ab8184610820565b905092915050565b6108bc81610722565b81146108c6575f5ffd5b50565b5f813590506108d7816108b3565b92915050565b5f602082840312156108f2576108f161056e565b5b5f6108ff848285016108c9565b91505092915050565b5f73ffffffffffffffffffffffffffffffffffffffff82169050919050565b5f61093182610908565b9050919050565b61094181610927565b811461094b575f5ffd5b50565b5f8135905061095c81610938565b92915050565b5f5f604083850312156109785761097761056e565b5b5f6109858582860161094e565b9250506020610996858286016108c9565b9150509250929050565b6109a981610722565b82525050565b5f82825260208201905092915050565b5f6109c98261073a565b6109d381856109af565b93506109e3818560208601610754565b6109ec8161057e565b840191505092915050565b610a008161079a565b82525050565b5f606082019050610a195f8301866109a0565b8181036020830152610a2b81856109bf565b9050610a3a60408301846109f7565b949350505050565b5f602082019050610a555f8301846109a0565b92915050565b7f4e487b71000000000000000000000000000000000000000000000000000000005f52602260045260245ffd5b5f6002820490506001821680610a9f57607f821691505b602082108103610ab257610ab1610a5b565b5b50919050565b5f819050815f5260205f209050919050565b5f6020601f8301049050919050565b5f82821b905092915050565b5f60088302610b147fffffffffffffffffffffffffffffffffffffffffffffffffffffffffffffffff82610ad9565b610b1e8683610ad9565b95508019841693508086168417925050509392505050565b5f819050919050565b5f610b59610b54610b4f84610722565b610b36565b610722565b9050919050565b5f819050919050565b610b7283610b3f565b610b86610b7e82610b60565b848454610ae5565b825550505050565b5f5f905090565b610b9d610b8e565b610ba8818484610b69565b505050565b5b81811015610bcb57610bc05f82610b95565b600181019050610bae565b5050565b601f821115610c1057610be181610ab8565b610bea84610aca565b81016020851015610bf9578190505b610c0d610c0585610aca565b830182610bad565b50505b505050565b5f82821c905092915050565b5f610c305f1984600802610c15565b1980831691505092915050565b5f610c488383610c21565b9150826002028217905092915050565b610c618261073a565b67ffffffffffffffff811115610c7a57610c7961058e565b5b610c848254610a88565b610c8f828285610bcf565b5f60209050601f831160018114610cc0575f8415610cae578287015190505b610cb88582610c3d565b865550610d1f565b601f198416610cce86610ab8565b5f5b82811015610cf557848901518255600182019150602085019450602081019050610cd0565b86831015610d125784890151610d0e601f891682610c21565b8355505b6001600288020188555050505b505050505050565b610d3081610927565b82525050565b5f606082019050610d495f830186610d27565b610d5660208301856109a0565b8181036040830152610d6881846109bf565b9050949350505050565b7f4e487b71000000000000000000000000000000000000000000000000000000005f52603260045260245ffd5b5f604082019050610db25f830185610d27565b610dbf60208301846109a0565b939250505056fea264697066735822122055571d1f19a2fb51c1c276d0715deb3aaa766ca403af9b0c5fa0a64e5f57fe4464736f6c634300081e0033",
					"opcodes": "PUSH1 0x80 PUSH1 0x40 MSTORE CALLVALUE DUP1 ISZERO PUSH1 0xE JUMPI PUSH0 PUSH0 REVERT JUMPDEST POP PUSH2 0xDFC DUP1 PUSH2 0x1C PUSH0 CODECOPY PUSH0 RETURN INVALID PUSH1 0x80 PUSH1 0x40 MSTORE CALLVALUE DUP1 ISZERO PUSH2 0xF JUMPI PUSH0 PUSH0 REVERT JUMPDEST POP PUSH1 0x4 CALLDATASIZE LT PUSH2 0x55 JUMPI PUSH0 CALLDATALOAD PUSH1 0xE0 SHR DUP1 PUSH4 0x111002AA EQ PUSH2 0x59 JUMPI DUP1 PUSH4 0x1BBAF3CF EQ PUSH2 0x75 JUMPI DUP1 PUSH4 0x455F5024 EQ PUSH2 0x93 JUMPI DUP1 PUSH4 0x66873A55 EQ PUSH2 0xAF JUMPI DUP1 PUSH4 0xC17A340E EQ PUSH2 0xE1 JUMPI JUMPDEST PUSH0 PUSH0 REVERT JUMPDEST PUSH2 0x73 PUSH1 0x4 DUP1 CALLDATASIZE SUB DUP2 ADD SWAP1 PUSH2 0x6E SWAP2 SWAP1 PUSH2 0x6B2 JUMP JUMPDEST PUSH2 0xFF JUMP JUMPDEST STOP JUMPDEST PUSH2 0x7D PUSH2 0x23F JUMP JUMPDEST PUSH1 0x40 MLOAD PUSH2 0x8A SWAP2 SWAP1 PUSH2 0x893 JUMP JUMPDEST PUSH1 0x40 MLOAD DUP1 SWAP2 SUB SWAP1 RETURN JUMPDEST PUSH2 0xAD PUSH1 0x4 DUP1 CALLDATASIZE SUB DUP2 ADD SWAP1 PUSH2 0xA8 SWAP2 SWAP1 PUSH2 0x8DD JUMP JUMPDEST PUSH2 0x388 JUMP JUMPDEST STOP JUMPDEST PUSH2 0xC9 PUSH1 0x4 DUP1 CALLDATASIZE SUB DUP2 ADD SWAP1 PUSH2 0xC4 SWAP2 SWAP1 PUSH2 0x962 JUMP JUMPDEST PUSH2 0x44E JUMP JUMPDEST PUSH1 0x40 MLOAD PUSH2 0xD8 SWAP4 SWAP3 SWAP2 SWAP1 PUSH2 0xA06 JUMP JUMPDEST PUSH1 0x40 MLOAD DUP1 SWAP2 SUB SWAP1 RETURN JUMPDEST PUSH2 0xE9 PUSH2 0x51F JUMP JUMPDEST PUSH1 0x40 MLOAD PUSH2 0xF6 SWAP2 SWAP1 PUSH2 0xA42 JUMP JUMPDEST PUSH1 0x40 MLOAD DUP1 SWAP2 SUB SWAP1 RETURN JUMPDEST PUSH0 PUSH0 PUSH0 CALLER PUSH20 0xFFFFFFFFFFFFFFFFFFFFFFFFFFFFFFFFFFFFFFFF AND PUSH20 0xFFFFFFFFFFFFFFFFFFFFFFFFFFFFFFFFFFFFFFFF AND DUP2 MSTORE PUSH1 0x20 ADD SWAP1 DUP2 MSTORE PUSH1 0x20 ADD PUSH0 KECCAK256 DUP1 SLOAD SWAP1 POP SWAP1 POP PUSH0 PUSH0 CALLER PUSH20 0xFFFFFFFFFFFFFFFFFFFFFFFFFFFFFFFFFFFFFFFF AND PUSH20 0xFFFFFFFFFFFFFFFFFFFFFFFFFFFFFFFFFFFFFFFF AND DUP2 MSTORE PUSH1 0x20 ADD SWAP1 DUP2 MSTORE PUSH1 0x20 ADD PUSH0 KECCAK256 PUSH1 0x40 MLOAD DUP1 PUSH1 0x60 ADD PUSH1 0x40 MSTORE DUP1 DUP4 DUP2 MSTORE PUSH1 0x20 ADD DUP5 DUP2 MSTORE PUSH1 0x20 ADD PUSH0 ISZERO ISZERO DUP2 MSTORE POP SWAP1 DUP1 PUSH1 0x1 DUP2 SLOAD ADD DUP1 DUP3 SSTORE DUP1 SWAP2 POP POP PUSH1 0x1 SWAP1 SUB SWAP1 PUSH0 MSTORE PUSH1 0x20 PUSH0 KECCAK256 SWAP1 PUSH1 0x3 MUL ADD PUSH0 SWAP1 SWAP2 SWAP1 SWAP2 SWAP1 SWAP2 POP PUSH0 DUP3 ADD MLOAD DUP2 PUSH0 ADD SSTORE PUSH1 0x20 DUP3 ADD MLOAD DUP2 PUSH1 0x1 ADD SWAP1 DUP2 PUSH2 0x1DE SWAP2 SWAP1 PUSH2 0xC58 JUMP JUMPDEST POP PUSH1 0x40 DUP3 ADD MLOAD DUP2 PUSH1 0x2 ADD PUSH0 PUSH2 0x100 EXP DUP2 SLOAD DUP2 PUSH1 0xFF MUL NOT AND SWAP1 DUP4 ISZERO ISZERO MUL OR SWAP1 SSTORE POP POP POP PUSH32 0xA211005F5319202EE7AB6815FC340564635FB1EEE9BC5A55AA10048C5B471DC4 CALLER DUP3 DUP5 PUSH1 0x40 MLOAD PUSH2 0x233 SWAP4 SWAP3 SWAP2 SWAP1 PUSH2 0xD36 JUMP JUMPDEST PUSH1 0x40 MLOAD DUP1 SWAP2 SUB SWAP1 LOG1 POP POP JUMP JUMPDEST PUSH1 0x60 PUSH0 PUSH0 CALLER PUSH20 0xFFFFFFFFFFFFFFFFFFFFFFFFFFFFFFFFFFFFFFFF AND PUSH20 0xFFFFFFFFFFFFFFFFFFFFFFFFFFFFFFFFFFFFFFFF AND DUP2 MSTORE PUSH1 0x20 ADD SWAP1 DUP2 MSTORE PUSH1 0x20 ADD PUSH0 KECCAK256 DUP1 SLOAD DUP1 PUSH1 0x20 MUL PUSH1 0x20 ADD PUSH1 0x40 MLOAD SWAP1 DUP2 ADD PUSH1 0x40 MSTORE DUP1 SWAP3 SWAP2 SWAP1 DUP2 DUP2 MSTORE PUSH1 0x20 ADD PUSH0 SWAP1 JUMPDEST DUP3 DUP3 LT ISZERO PUSH2 0x37F JUMPI DUP4 DUP3 SWAP1 PUSH0 MSTORE PUSH1 0x20 PUSH0 KECCAK256 SWAP1 PUSH1 0x3 MUL ADD PUSH1 0x40 MLOAD DUP1 PUSH1 0x60 ADD PUSH1 0x40 MSTORE SWAP1 DUP2 PUSH0 DUP3 ADD SLOAD DUP2 MSTORE PUSH1 0x20 ADD PUSH1 0x1 DUP3 ADD DUP1 SLOAD PUSH2 0x2D6 SWAP1 PUSH2 0xA88 JUMP JUMPDEST DUP1 PUSH1 0x1F ADD PUSH1 0x20 DUP1 SWAP2 DIV MUL PUSH1 0x20 ADD PUSH1 0x40 MLOAD SWAP1 DUP2 ADD PUSH1 0x40 MSTORE DUP1 SWAP3 SWAP2 SWAP1 DUP2 DUP2 MSTORE PUSH1 0x20 ADD DUP3 DUP1 SLOAD PUSH2 0x302 SWAP1 PUSH2 0xA88 JUMP JUMPDEST DUP1 ISZERO PUSH2 0x34D JUMPI DUP1 PUSH1 0x1F LT PUSH2 0x324 JUMPI PUSH2 0x100 DUP1 DUP4 SLOAD DIV MUL DUP4 MSTORE SWAP2 PUSH1 0x20 ADD SWAP2 PUSH2 0x34D JUMP JUMPDEST DUP3 ADD SWAP2 SWAP1 PUSH0 MSTORE PUSH1 0x20 PUSH0 KECCAK256 SWAP1 JUMPDEST DUP2 SLOAD DUP2 MSTORE SWAP1 PUSH1 0x1 ADD SWAP1 PUSH1 0x20 ADD DUP1 DUP4 GT PUSH2 0x330 JUMPI DUP3 SWAP1 SUB PUSH1 0x1F AND DUP3 ADD SWAP2 JUMPDEST POP POP POP POP POP DUP2 MSTORE PUSH1 0x20 ADD PUSH1 0x2 DUP3 ADD PUSH0 SWAP1 SLOAD SWAP1 PUSH2 0x100 EXP SWAP1 DIV PUSH1 0xFF AND ISZERO ISZERO ISZERO ISZERO DUP2 MSTORE POP POP DUP2 MSTORE PUSH1 0x20 ADD SWAP1 PUSH1 0x1 ADD SWAP1 PUSH2 0x29C JUMP JUMPDEST POP POP POP POP SWAP1 POP SWAP1 JUMP JUMPDEST PUSH0 PUSH0 PUSH0 CALLER PUSH20 0xFFFFFFFFFFFFFFFFFFFFFFFFFFFFFFFFFFFFFFFF AND PUSH20 0xFFFFFFFFFFFFFFFFFFFFFFFFFFFFFFFFFFFFFFFF AND DUP2 MSTORE PUSH1 0x20 ADD SWAP1 DUP2 MSTORE PUSH1 0x20 ADD PUSH0 KECCAK256 DUP3 DUP2 SLOAD DUP2 LT PUSH2 0x3D7 JUMPI PUSH2 0x3D6 PUSH2 0xD72 JUMP JUMPDEST JUMPDEST SWAP1 PUSH0 MSTORE PUSH1 0x20 PUSH0 KECCAK256 SWAP1 PUSH1 0x3 MUL ADD SWAP1 POP DUP1 PUSH1 0x2 ADD PUSH0 SWAP1 SLOAD SWAP1 PUSH2 0x100 EXP SWAP1 DIV PUSH1 0xFF AND ISZERO DUP2 PUSH1 0x2 ADD PUSH0 PUSH2 0x100 EXP DUP2 SLOAD DUP2 PUSH1 0xFF MUL NOT AND SWAP1 DUP4 ISZERO ISZERO MUL OR SWAP1 SSTORE POP PUSH32 0xF684D89BB0F42287BF32838774E4B7F8A60C11804B3C6D1791FA55F306792643 CALLER DUP4 PUSH1 0x40 MLOAD PUSH2 0x442 SWAP3 SWAP2 SWAP1 PUSH2 0xD9F JUMP JUMPDEST PUSH1 0x40 MLOAD DUP1 SWAP2 SUB SWAP1 LOG1 POP POP JUMP JUMPDEST PUSH0 PUSH1 0x20 MSTORE DUP2 PUSH0 MSTORE PUSH1 0x40 PUSH0 KECCAK256 DUP2 DUP2 SLOAD DUP2 LT PUSH2 0x466 JUMPI PUSH0 DUP1 REVERT JUMPDEST SWAP1 PUSH0 MSTORE PUSH1 0x20 PUSH0 KECCAK256 SWAP1 PUSH1 0x3 MUL ADD PUSH0 SWAP2 POP SWAP2 POP POP DUP1 PUSH0 ADD SLOAD SWAP1 DUP1 PUSH1 0x1 ADD DUP1 SLOAD PUSH2 0x48C SWAP1 PUSH2 0xA88 JUMP JUMPDEST DUP1 PUSH1 0x1F ADD PUSH1 0x20 DUP1 SWAP2 DIV MUL PUSH1 0x20 ADD PUSH1 0x40 MLOAD SWAP1 DUP2 ADD PUSH1 0x40 MSTORE DUP1 SWAP3 SWAP2 SWAP1 DUP2 DUP2 MSTORE PUSH1 0x20 ADD DUP3 DUP1 SLOAD PUSH2 0x4B8 SWAP1 PUSH2 0xA88 JUMP JUMPDEST DUP1 ISZERO PUSH2 0x503 JUMPI DUP1 PUSH1 0x1F LT PUSH2 0x4DA JUMPI PUSH2 0x100 DUP1 DUP4 SLOAD DIV MUL DUP4 MSTORE SWAP2 PUSH1 0x20 ADD SWAP2 PUSH2 0x503 JUMP JUMPDEST DUP3 ADD SWAP2 SWAP1 PUSH0 MSTORE PUSH1 0x20 PUSH0 KECCAK256 SWAP1 JUMPDEST DUP2 SLOAD DUP2 MSTORE SWAP1 PUSH1 0x1 ADD SWAP1 PUSH1 0x20 ADD DUP1 DUP4 GT PUSH2 0x4E6 JUMPI DUP3 SWAP1 SUB PUSH1 0x1F AND DUP3 ADD SWAP2 JUMPDEST POP POP POP POP POP SWAP1 DUP1 PUSH1 0x2 ADD PUSH0 SWAP1 SLOAD SWAP1 PUSH2 0x100 EXP SWAP1 DIV PUSH1 0xFF AND SWAP1 POP DUP4 JUMP JUMPDEST PUSH0 PUSH0 PUSH0 CALLER PUSH20 0xFFFFFFFFFFFFFFFFFFFFFFFFFFFFFFFFFFFFFFFF AND PUSH20 0xFFFFFFFFFFFFFFFFFFFFFFFFFFFFFFFFFFFFFFFF AND DUP2 MSTORE PUSH1 0x20 ADD SWAP1 DUP2 MSTORE PUSH1 0x20 ADD PUSH0 KECCAK256 DUP1 SLOAD SWAP1 POP SWAP1 POP SWAP1 JUMP JUMPDEST PUSH0 PUSH1 0x40 MLOAD SWAP1 POP SWAP1 JUMP JUMPDEST PUSH0 PUSH0 REVERT JUMPDEST PUSH0 PUSH0 REVERT JUMPDEST PUSH0 PUSH0 REVERT JUMPDEST PUSH0 PUSH0 REVERT JUMPDEST PUSH0 PUSH1 0x1F NOT PUSH1 0x1F DUP4 ADD AND SWAP1 POP SWAP2 SWAP1 POP JUMP JUMPDEST PUSH32 0x4E487B7100000000000000000000000000000000000000000000000000000000 PUSH0 MSTORE PUSH1 0x41 PUSH1 0x4 MSTORE PUSH1 0x24 PUSH0 REVERT JUMPDEST PUSH2 0x5C4 DUP3 PUSH2 0x57E JUMP JUMPDEST DUP2 ADD DUP2 DUP2 LT PUSH8 0xFFFFFFFFFFFFFFFF DUP3 GT OR ISZERO PUSH2 0x5E3 JUMPI PUSH2 0x5E2 PUSH2 0x58E JUMP JUMPDEST JUMPDEST DUP1 PUSH1 0x40 MSTORE POP POP POP JUMP JUMPDEST PUSH0 PUSH2 0x5F5 PUSH2 0x565 JUMP JUMPDEST SWAP1 POP PUSH2 0x601 DUP3 DUP3 PUSH2 0x5BB JUMP JUMPDEST SWAP2 SWAP1 POP JUMP JUMPDEST PUSH0 PUSH8 0xFFFFFFFFFFFFFFFF DUP3 GT ISZERO PUSH2 0x620 JUMPI PUSH2 0x61F PUSH2 0x58E JUMP JUMPDEST JUMPDEST PUSH2 0x629 DUP3 PUSH2 0x57E JUMP JUMPDEST SWAP1 POP PUSH1 0x20 DUP2 ADD SWAP1 POP SWAP2 SWAP1 POP JUMP JUMPDEST DUP3 DUP2 DUP4 CALLDATACOPY PUSH0 DUP4 DUP4 ADD MSTORE POP POP POP JUMP JUMPDEST PUSH0 PUSH2 0x656 PUSH2 0x651 DUP5 PUSH2 0x606 JUMP JUMPDEST PUSH2 0x5EC JUMP JUMPDEST SWAP1 POP DUP3 DUP2 MSTORE PUSH1 0x20 DUP2 ADD DUP5 DUP5 DUP5 ADD GT ISZERO PUSH2 0x672 JUMPI PUSH2 0x671 PUSH2 0x57A JUMP JUMPDEST JUMPDEST PUSH2 0x67D DUP5 DUP3 DUP6 PUSH2 0x636 JUMP JUMPDEST POP SWAP4 SWAP3 POP POP POP JUMP JUMPDEST PUSH0 DUP3 PUSH1 0x1F DUP4 ADD SLT PUSH2 0x699 JUMPI PUSH2 0x698 PUSH2 0x576 JUMP JUMPDEST JUMPDEST DUP2 CALLDATALOAD PUSH2 0x6A9 DUP5 DUP3 PUSH1 0x20 DUP7 ADD PUSH2 0x644 JUMP JUMPDEST SWAP2 POP POP SWAP3 SWAP2 POP POP JUMP JUMPDEST PUSH0 PUSH1 0x20 DUP3 DUP5 SUB SLT ISZERO PUSH2 0x6C7 JUMPI PUSH2 0x6C6 PUSH2 0x56E JUMP JUMPDEST JUMPDEST PUSH0 DUP3 ADD CALLDATALOAD PUSH8 0xFFFFFFFFFFFFFFFF DUP2 GT ISZERO PUSH2 0x6E4 JUMPI PUSH2 0x6E3 PUSH2 0x572 JUMP JUMPDEST JUMPDEST PUSH2 0x6F0 DUP5 DUP3 DUP6 ADD PUSH2 0x685 JUMP JUMPDEST SWAP2 POP POP SWAP3 SWAP2 POP POP JUMP JUMPDEST PUSH0 DUP2 MLOAD SWAP1 POP SWAP2 SWAP1 POP JUMP JUMPDEST PUSH0 DUP3 DUP3 MSTORE PUSH1 0x20 DUP3 ADD SWAP1 POP SWAP3 SWAP2 POP POP JUMP JUMPDEST PUSH0 DUP2 SWAP1 POP PUSH1 0x20 DUP3 ADD SWAP1 POP SWAP2 SWAP1 POP JUMP JUMPDEST PUSH0 DUP2 SWAP1 POP SWAP2 SWAP1 POP JUMP JUMPDEST PUSH2 0x734 DUP2 PUSH2 0x722 JUMP JUMPDEST DUP3 MSTORE POP POP JUMP JUMPDEST PUSH0 DUP2 MLOAD SWAP1 POP SWAP2 SWAP1 POP JUMP JUMPDEST PUSH0 DUP3 DUP3 MSTORE PUSH1 0x20 DUP3 ADD SWAP1 POP SWAP3 SWAP2 POP POP JUMP JUMPDEST DUP3 DUP2 DUP4 MCOPY PUSH0 DUP4 DUP4 ADD MSTORE POP POP POP JUMP JUMPDEST PUSH0 PUSH2 0x76C DUP3 PUSH2 0x73A JUMP JUMPDEST PUSH2 0x776 DUP2 DUP6 PUSH2 0x744 JUMP JUMPDEST SWAP4 POP PUSH2 0x786 DUP2 DUP6 PUSH1 0x20 DUP7 ADD PUSH2 0x754 JUMP JUMPDEST PUSH2 0x78F DUP2 PUSH2 0x57E JUMP JUMPDEST DUP5 ADD SWAP2 POP POP SWAP3 SWAP2 POP POP JUMP JUMPDEST PUSH0 DUP2 ISZERO ISZERO SWAP1 POP SWAP2 SWAP1 POP JUMP JUMPDEST PUSH2 0x7AE DUP2 PUSH2 0x79A JUMP JUMPDEST DUP3 MSTORE POP POP JUMP JUMPDEST PUSH0 PUSH1 0x60 DUP4 ADD PUSH0 DUP4 ADD MLOAD PUSH2 0x7C9 PUSH0 DUP7 ADD DUP3 PUSH2 0x72B JUMP JUMPDEST POP PUSH1 0x20 DUP4 ADD MLOAD DUP5 DUP3 SUB PUSH1 0x20 DUP7 ADD MSTORE PUSH2 0x7E1 DUP3 DUP3 PUSH2 0x762 JUMP JUMPDEST SWAP2 POP POP PUSH1 0x40 DUP4 ADD MLOAD PUSH2 0x7F6 PUSH1 0x40 DUP7 ADD DUP3 PUSH2 0x7A5 JUMP JUMPDEST POP DUP1 SWAP2 POP POP SWAP3 SWAP2 POP POP JUMP JUMPDEST PUSH0 PUSH2 0x80C DUP4 DUP4 PUSH2 0x7B4 JUMP JUMPDEST SWAP1 POP SWAP3 SWAP2 POP POP JUMP JUMPDEST PUSH0 PUSH1 0x20 DUP3 ADD SWAP1 POP SWAP2 SWAP1 POP JUMP JUMPDEST PUSH0 PUSH2 0x82A DUP3 PUSH2 0x6F9 JUMP JUMPDEST PUSH2 0x834 DUP2 DUP6 PUSH2 0x703 JUMP JUMPDEST SWAP4 POP DUP4 PUSH1 0x20 DUP3 MUL DUP6 ADD PUSH2 0x846 DUP6 PUSH2 0x713 JUMP JUMPDEST DUP1 PUSH0 JUMPDEST DUP6 DUP2 LT ISZERO PUSH2 0x881 JUMPI DUP5 DUP5 SUB DUP10 MSTORE DUP2 MLOAD PUSH2 0x862 DUP6 DUP3 PUSH2 0x801 JUMP JUMPDEST SWAP5 POP PUSH2 0x86D DUP4 PUSH2 0x814 JUMP JUMPDEST SWAP3 POP PUSH1 0x20 DUP11 ADD SWAP10 POP POP PUSH1 0x1 DUP2 ADD SWAP1 POP PUSH2 0x849 JUMP JUMPDEST POP DUP3 SWAP8 POP DUP8 SWAP6 POP POP POP POP POP POP SWAP3 SWAP2 POP POP JUMP JUMPDEST PUSH0 PUSH1 0x20 DUP3 ADD SWAP1 POP DUP2 DUP2 SUB PUSH0 DUP4 ADD MSTORE PUSH2 0x8AB DUP2 DUP5 PUSH2 0x820 JUMP JUMPDEST SWAP1 POP SWAP3 SWAP2 POP POP JUMP JUMPDEST PUSH2 0x8BC DUP2 PUSH2 0x722 JUMP JUMPDEST DUP2 EQ PUSH2 0x8C6 JUMPI PUSH0 PUSH0 REVERT JUMPDEST POP JUMP JUMPDEST PUSH0 DUP2 CALLDATALOAD SWAP1 POP PUSH2 0x8D7 DUP2 PUSH2 0x8B3 JUMP JUMPDEST SWAP3 SWAP2 POP POP JUMP JUMPDEST PUSH0 PUSH1 0x20 DUP3 DUP5 SUB SLT ISZERO PUSH2 0x8F2 JUMPI PUSH2 0x8F1 PUSH2 0x56E JUMP JUMPDEST JUMPDEST PUSH0 PUSH2 0x8FF DUP5 DUP3 DUP6 ADD PUSH2 0x8C9 JUMP JUMPDEST SWAP2 POP POP SWAP3 SWAP2 POP POP JUMP JUMPDEST PUSH0 PUSH20 0xFFFFFFFFFFFFFFFFFFFFFFFFFFFFFFFFFFFFFFFF DUP3 AND SWAP1 POP SWAP2 SWAP1 POP JUMP JUMPDEST PUSH0 PUSH2 0x931 DUP3 PUSH2 0x908 JUMP JUMPDEST SWAP1 POP SWAP2 SWAP1 POP JUMP JUMPDEST PUSH2 0x941 DUP2 PUSH2 0x927 JUMP JUMPDEST DUP2 EQ PUSH2 0x94B JUMPI PUSH0 PUSH0 REVERT JUMPDEST POP JUMP JUMPDEST PUSH0 DUP2 CALLDATALOAD SWAP1 POP PUSH2 0x95C DUP2 PUSH2 0x938 JUMP JUMPDEST SWAP3 SWAP2 POP POP JUMP JUMPDEST PUSH0 PUSH0 PUSH1 0x40 DUP4 DUP6 SUB SLT ISZERO PUSH2 0x978 JUMPI PUSH2 0x977 PUSH2 0x56E JUMP JUMPDEST JUMPDEST PUSH0 PUSH2 0x985 DUP6 DUP3 DUP7 ADD PUSH2 0x94E JUMP JUMPDEST SWAP3 POP POP PUSH1 0x20 PUSH2 0x996 DUP6 DUP3 DUP7 ADD PUSH2 0x8C9 JUMP JUMPDEST SWAP2 POP POP SWAP3 POP SWAP3 SWAP1 POP JUMP JUMPDEST PUSH2 0x9A9 DUP2 PUSH2 0x722 JUMP JUMPDEST DUP3 MSTORE POP POP JUMP JUMPDEST PUSH0 DUP3 DUP3 MSTORE PUSH1 0x20 DUP3 ADD SWAP1 POP SWAP3 SWAP2 POP POP JUMP JUMPDEST PUSH0 PUSH2 0x9C9 DUP3 PUSH2 0x73A JUMP JUMPDEST PUSH2 0x9D3 DUP2 DUP6 PUSH2 0x9AF JUMP JUMPDEST SWAP4 POP PUSH2 0x9E3 DUP2 DUP6 PUSH1 0x20 DUP7 ADD PUSH2 0x754 JUMP JUMPDEST PUSH2 0x9EC DUP2 PUSH2 0x57E JUMP JUMPDEST DUP5 ADD SWAP2 POP POP SWAP3 SWAP2 POP POP JUMP JUMPDEST PUSH2 0xA00 DUP2 PUSH2 0x79A JUMP JUMPDEST DUP3 MSTORE POP POP JUMP JUMPDEST PUSH0 PUSH1 0x60 DUP3 ADD SWAP1 POP PUSH2 0xA19 PUSH0 DUP4 ADD DUP7 PUSH2 0x9A0 JUMP JUMPDEST DUP2 DUP2 SUB PUSH1 0x20 DUP4 ADD MSTORE PUSH2 0xA2B DUP2 DUP6 PUSH2 0x9BF JUMP JUMPDEST SWAP1 POP PUSH2 0xA3A PUSH1 0x40 DUP4 ADD DUP5 PUSH2 0x9F7 JUMP JUMPDEST SWAP5 SWAP4 POP POP POP POP JUMP JUMPDEST PUSH0 PUSH1 0x20 DUP3 ADD SWAP1 POP PUSH2 0xA55 PUSH0 DUP4 ADD DUP5 PUSH2 0x9A0 JUMP JUMPDEST SWAP3 SWAP2 POP POP JUMP JUMPDEST PUSH32 0x4E487B7100000000000000000000000000000000000000000000000000000000 PUSH0 MSTORE PUSH1 0x22 PUSH1 0x4 MSTORE PUSH1 0x24 PUSH0 REVERT JUMPDEST PUSH0 PUSH1 0x2 DUP3 DIV SWAP1 POP PUSH1 0x1 DUP3 AND DUP1 PUSH2 0xA9F JUMPI PUSH1 0x7F DUP3 AND SWAP2 POP JUMPDEST PUSH1 0x20 DUP3 LT DUP2 SUB PUSH2 0xAB2 JUMPI PUSH2 0xAB1 PUSH2 0xA5B JUMP JUMPDEST JUMPDEST POP SWAP2 SWAP1 POP JUMP JUMPDEST PUSH0 DUP2 SWAP1 POP DUP2 PUSH0 MSTORE PUSH1 0x20 PUSH0 KECCAK256 SWAP1 POP SWAP2 SWAP1 POP JUMP JUMPDEST PUSH0 PUSH1 0x20 PUSH1 0x1F DUP4 ADD DIV SWAP1 POP SWAP2 SWAP1 POP JUMP JUMPDEST PUSH0 DUP3 DUP3 SHL SWAP1 POP SWAP3 SWAP2 POP POP JUMP JUMPDEST PUSH0 PUSH1 0x8 DUP4 MUL PUSH2 0xB14 PUSH32 0xFFFFFFFFFFFFFFFFFFFFFFFFFFFFFFFFFFFFFFFFFFFFFFFFFFFFFFFFFFFFFFFF DUP3 PUSH2 0xAD9 JUMP JUMPDEST PUSH2 0xB1E DUP7 DUP4 PUSH2 0xAD9 JUMP JUMPDEST SWAP6 POP DUP1 NOT DUP5 AND SWAP4 POP DUP1 DUP7 AND DUP5 OR SWAP3 POP POP POP SWAP4 SWAP3 POP POP POP JUMP JUMPDEST PUSH0 DUP2 SWAP1 POP SWAP2 SWAP1 POP JUMP JUMPDEST PUSH0 PUSH2 0xB59 PUSH2 0xB54 PUSH2 0xB4F DUP5 PUSH2 0x722 JUMP JUMPDEST PUSH2 0xB36 JUMP JUMPDEST PUSH2 0x722 JUMP JUMPDEST SWAP1 POP SWAP2 SWAP1 POP JUMP JUMPDEST PUSH0 DUP2 SWAP1 POP SWAP2 SWAP1 POP JUMP JUMPDEST PUSH2 0xB72 DUP4 PUSH2 0xB3F JUMP JUMPDEST PUSH2 0xB86 PUSH2 0xB7E DUP3 PUSH2 0xB60 JUMP JUMPDEST DUP5 DUP5 SLOAD PUSH2 0xAE5 JUMP JUMPDEST DUP3 SSTORE POP POP POP POP JUMP JUMPDEST PUSH0 PUSH0 SWAP1 POP SWAP1 JUMP JUMPDEST PUSH2 0xB9D PUSH2 0xB8E JUMP JUMPDEST PUSH2 0xBA8 DUP2 DUP5 DUP5 PUSH2 0xB69 JUMP JUMPDEST POP POP POP JUMP JUMPDEST JUMPDEST DUP2 DUP2 LT ISZERO PUSH2 0xBCB JUMPI PUSH2 0xBC0 PUSH0 DUP3 PUSH2 0xB95 JUMP JUMPDEST PUSH1 0x1 DUP2 ADD SWAP1 POP PUSH2 0xBAE JUMP JUMPDEST POP POP JUMP JUMPDEST PUSH1 0x1F DUP3 GT ISZERO PUSH2 0xC10 JUMPI PUSH2 0xBE1 DUP2 PUSH2 0xAB8 JUMP JUMPDEST PUSH2 0xBEA DUP5 PUSH2 0xACA JUMP JUMPDEST DUP2 ADD PUSH1 0x20 DUP6 LT ISZERO PUSH2 0xBF9 JUMPI DUP2 SWAP1 POP JUMPDEST PUSH2 0xC0D PUSH2 0xC05 DUP6 PUSH2 0xACA JUMP JUMPDEST DUP4 ADD DUP3 PUSH2 0xBAD JUMP JUMPDEST POP POP JUMPDEST POP POP POP JUMP JUMPDEST PUSH0 DUP3 DUP3 SHR SWAP1 POP SWAP3 SWAP2 POP POP JUMP JUMPDEST PUSH0 PUSH2 0xC30 PUSH0 NOT DUP5 PUSH1 0x8 MUL PUSH2 0xC15 JUMP JUMPDEST NOT DUP1 DUP4 AND SWAP2 POP POP SWAP3 SWAP2 POP POP JUMP JUMPDEST PUSH0 PUSH2 0xC48 DUP4 DUP4 PUSH2 0xC21 JUMP JUMPDEST SWAP2 POP DUP3 PUSH1 0x2 MUL DUP3 OR SWAP1 POP SWAP3 SWAP2 POP POP JUMP JUMPDEST PUSH2 0xC61 DUP3 PUSH2 0x73A JUMP JUMPDEST PUSH8 0xFFFFFFFFFFFFFFFF DUP2 GT ISZERO PUSH2 0xC7A JUMPI PUSH2 0xC79 PUSH2 0x58E JUMP JUMPDEST JUMPDEST PUSH2 0xC84 DUP3 SLOAD PUSH2 0xA88 JUMP JUMPDEST PUSH2 0xC8F DUP3 DUP3 DUP6 PUSH2 0xBCF JUMP JUMPDEST PUSH0 PUSH1 0x20 SWAP1 POP PUSH1 0x1F DUP4 GT PUSH1 0x1 DUP2 EQ PUSH2 0xCC0 JUMPI PUSH0 DUP5 ISZERO PUSH2 0xCAE JUMPI DUP3 DUP8 ADD MLOAD SWAP1 POP JUMPDEST PUSH2 0xCB8 DUP6 DUP3 PUSH2 0xC3D JUMP JUMPDEST DUP7 SSTORE POP PUSH2 0xD1F JUMP JUMPDEST PUSH1 0x1F NOT DUP5 AND PUSH2 0xCCE DUP7 PUSH2 0xAB8 JUMP JUMPDEST PUSH0 JUMPDEST DUP3 DUP2 LT ISZERO PUSH2 0xCF5 JUMPI DUP5 DUP10 ADD MLOAD DUP3 SSTORE PUSH1 0x1 DUP3 ADD SWAP2 POP PUSH1 0x20 DUP6 ADD SWAP5 POP PUSH1 0x20 DUP2 ADD SWAP1 POP PUSH2 0xCD0 JUMP JUMPDEST DUP7 DUP4 LT ISZERO PUSH2 0xD12 JUMPI DUP5 DUP10 ADD MLOAD PUSH2 0xD0E PUSH1 0x1F DUP10 AND DUP3 PUSH2 0xC21 JUMP JUMPDEST DUP4 SSTORE POP JUMPDEST PUSH1 0x1 PUSH1 0x2 DUP9 MUL ADD DUP9 SSTORE POP POP POP JUMPDEST POP POP POP POP POP POP JUMP JUMPDEST PUSH2 0xD30 DUP2 PUSH2 0x927 JUMP JUMPDEST DUP3 MSTORE POP POP JUMP JUMPDEST PUSH0 PUSH1 0x60 DUP3 ADD SWAP1 POP PUSH2 0xD49 PUSH0 DUP4 ADD DUP7 PUSH2 0xD27 JUMP JUMPDEST PUSH2 0xD56 PUSH1 0x20 DUP4 ADD DUP6 PUSH2 0x9A0 JUMP JUMPDEST DUP2 DUP2 SUB PUSH1 0x40 DUP4 ADD MSTORE PUSH2 0xD68 DUP2 DUP5 PUSH2 0x9BF JUMP JUMPDEST SWAP1 POP SWAP5 SWAP4 POP POP POP POP JUMP JUMPDEST PUSH32 0x4E487B7100000000000000000000000000000000000000000000000000000000 PUSH0 MSTORE PUSH1 0x32 PUSH1 0x4 MSTORE PUSH1 0x24 PUSH0 REVERT JUMPDEST PUSH0 PUSH1 0x40 DUP3 ADD SWAP1 POP PUSH2 0xDB2 PUSH0 DUP4 ADD DUP6 PUSH2 0xD27 JUMP JUMPDEST PUSH2 0xDBF PUSH1 0x20 DUP4 ADD DUP5 PUSH2 0x9A0 JUMP JUMPDEST SWAP4 SWAP3 POP POP POP JUMP INVALID LOG2 PUSH5 0x6970667358 0x22 SLT KECCAK256 SSTORE JUMPI SAR 0x1F NOT LOG2 EXTSTATICCALL MLOAD 0xC1 0xC2 PUSH23 0xD0715DEB3AAA766CA403AF9B0C5FA0A64E5F57FE446473 PUSH16 0x6C634300081E00330000000000000000 "
				},
				"gasEstimates": {
					"creation": {
						"codeDepositCost": "716000",
						"executionCost": "745",
						"totalCost": "716745"
					},
					"external": {
						"createTask(string)": "infinite",
						"getAllTask()": "infinite",
						"getTaskCount()": "2592",
						"toggleCompleted(uint256)": "infinite",
						"userTasks(address,uint256)": "infinite"
					}
				},
				"methodIdentifiers": {
					"createTask(string)": "111002aa",
					"getAllTask()": "1bbaf3cf",
					"getTaskCount()": "c17a340e",
					"toggleCompleted(uint256)": "455f5024",
					"userTasks(address,uint256)": "66873a55"
				}
			},
			"storageLayout": {
				"storage": [
					{
						"astId": 14,
						"contract": "contracts/todoList.sol:TodoList",
						"label": "userTasks",
						"offset": 0,
						"slot": "0",
						"type": "t_mapping(t_address,t_array(t_struct(Task)8_storage)dyn_storage)"
					}
				],
				"types": {
					"t_address": {
						"encoding": "inplace",
						"label": "address",
						"numberOfBytes": "20"
					},
					"t_array(t_struct(Task)8_storage)dyn_storage": {
						"base": "t_struct(Task)8_storage",
						"encoding": "dynamic_array",
						"label": "struct TodoList.Task[]",
						"numberOfBytes": "32"
					},
					"t_bool": {
						"encoding": "inplace",
						"label": "bool",
						"numberOfBytes": "1"
					},
					"t_mapping(t_address,t_array(t_struct(Task)8_storage)dyn_storage)": {
						"encoding": "mapping",
						"key": "t_address",
						"label": "mapping(address => struct TodoList.Task[])",
						"numberOfBytes": "32",
						"value": "t_array(t_struct(Task)8_storage)dyn_storage"
					},
					"t_string_storage": {
						"encoding": "bytes",
						"label": "string",
						"numberOfBytes": "32"
					},
					"t_struct(Task)8_storage": {
						"encoding": "inplace",
						"label": "struct TodoList.Task",
						"members": [
							{
								"astId": 3,
								"contract": "contracts/todoList.sol:TodoList",
								"label": "id",
								"offset": 0,
								"slot": "0",
								"type": "t_uint256"
							},
							{
								"astId": 5,
								"contract": "contracts/todoList.sol:TodoList",
								"label": "content",
								"offset": 0,
								"slot": "1",
								"type": "t_string_storage"
							},
							{
								"astId": 7,
								"contract": "contracts/todoList.sol:TodoList",
								"label": "completed",
								"offset": 0,
								"slot": "2",
								"type": "t_bool"
							}
						],
						"numberOfBytes": "96"
					},
					"t_uint256": {
						"encoding": "inplace",
						"label": "uint256",
						"numberOfBytes": "32"
					}
				}
			},
			"userdoc": {
				"kind": "user",
				"methods": {},
				"version": 1
			}
		}
	}
}