{
	"contracts/todoList.sol": {
		"TodoList": {
			"abi": [
				{
					"anonymous": false,
					"inputs": [
						{
							"indexed": false,
							"internalType": "address",
							"name": "user",
							"type": "address"
						},
						{
							"indexed": false,
							"internalType": "uint256",
							"name": "id",
							"type": "uint256"
						}
					],
					"name": "TaskCompleted",
					"type": "event"
				},
				{
					"anonymous": false,
					"inputs": [
						{
							"indexed": false,
							"internalType": "address",
							"name": "user",
							"type": "address"
						},
						{
							"indexed": false,
							"internalType": "uint256",
							"name": "id",
							"type": "uint256"
						},
						{
							"indexed": false,
							"internalType": "string",
							"name": "content",
							"type": "string"
						}
					],
					"name": "TaskCreated",
					"type": "event"
				},
				{
					"inputs": [
						{
							"internalType": "string",
							"name": "_content",
							"type": "string"
						}
					],
					"name": "createTask",
					"outputs": [],
					"stateMutability": "nonpayable",
					"type": "function"
				},
				{
					"inputs": [],
					"name": "getTaskCount",
					"outputs": [
						{
							"internalType": "uint256",
							"name": "",
							"type": "uint256"
						}
					],
					"stateMutability": "view",
					"type": "function"
				},
				{
					"inputs": [
						{
							"internalType": "uint256",
							"name": "_id",
							"type": "uint256"
						}
					],
					"name": "toggleCompleted",
					"outputs": [],
					"stateMutability": "nonpayable",
					"type": "function"
				},
				{
					"inputs": [
						{
							"internalType": "address",
							"name": "",
							"type": "address"
						},
						{
							"internalType": "uint256",
							"name": "",
							"type": "uint256"
						}
					],
					"name": "userTasks",
					"outputs": [
						{
							"internalType": "uint256",
							"name": "id",
							"type": "uint256"
						},
						{
							"internalType": "string",
							"name": "content",
							"type": "string"
						},
						{
							"internalType": "bool",
							"name": "completed",
							"type": "bool"
						}
					],
					"stateMutability": "view",
					"type": "function"
				}
			],
			"devdoc": {
				"kind": "dev",
				"methods": {},
				"version": 1
			},
			"evm": {
				"assembly": "    /* \"contracts/todoList.sol\":57:926  contract TodoList {... */\n  mstore(0x40, 0x80)\n  callvalue\n  dup1\n  iszero\n  tag_1\n  jumpi\n  revert(0x00, 0x00)\ntag_1:\n  pop\n  dataSize(sub_0)\n  dup1\n  dataOffset(sub_0)\n  0x00\n  codecopy\n  0x00\n  return\nstop\n\nsub_0: assembly {\n        /* \"contracts/todoList.sol\":57:926  contract TodoList {... */\n      mstore(0x40, 0x80)\n      callvalue\n      dup1\n      iszero\n      tag_1\n      jumpi\n      revert(0x00, 0x00)\n    tag_1:\n      pop\n      jumpi(tag_2, lt(calldatasize, 0x04))\n      shr(0xe0, calldataload(0x00))\n      dup1\n      0x111002aa\n      eq\n      tag_3\n      jumpi\n      dup1\n      0x455f5024\n      eq\n      tag_4\n      jumpi\n      dup1\n      0x66873a55\n      eq\n      tag_5\n      jumpi\n      dup1\n      0xc17a340e\n      eq\n      tag_6\n      jumpi\n    tag_2:\n      revert(0x00, 0x00)\n        /* \"contracts/todoList.sol\":382:616  function createTask(string memory _content) public {... */\n    tag_3:\n      tag_7\n      0x04\n      dup1\n      calldatasize\n      sub\n      dup2\n      add\n      swap1\n      tag_8\n      swap2\n      swap1\n      tag_9\n      jump\t// in\n    tag_8:\n      tag_10\n      jump\t// in\n    tag_7:\n      stop\n        /* \"contracts/todoList.sol\":622:815  function toggleCompleted(uint _id) public {... */\n    tag_4:\n      tag_11\n      0x04\n      dup1\n      calldatasize\n      sub\n      dup2\n      add\n      swap1\n      tag_12\n      swap2\n      swap1\n      tag_13\n      jump\t// in\n    tag_12:\n      tag_14\n      jump\t// in\n    tag_11:\n      stop\n        /* \"contracts/todoList.sol\":220:264  mapping (address => Task[]) public userTasks */\n    tag_5:\n      tag_15\n      0x04\n      dup1\n      calldatasize\n      sub\n      dup2\n      add\n      swap1\n      tag_16\n      swap2\n      swap1\n      tag_17\n      jump\t// in\n    tag_16:\n      tag_18\n      jump\t// in\n    tag_15:\n      mload(0x40)\n      tag_19\n      swap4\n      swap3\n      swap2\n      swap1\n      tag_20\n      jump\t// in\n    tag_19:\n      mload(0x40)\n      dup1\n      swap2\n      sub\n      swap1\n      return\n        /* \"contracts/todoList.sol\":821:924  function getTaskCount() public view returns (uint) {... */\n    tag_6:\n      tag_21\n      tag_22\n      jump\t// in\n    tag_21:\n      mload(0x40)\n      tag_23\n      swap2\n      swap1\n      tag_24\n      jump\t// in\n    tag_23:\n      mload(0x40)\n      dup1\n      swap2\n      sub\n      swap1\n      return\n        /* \"contracts/todoList.sol\":382:616  function createTask(string memory _content) public {... */\n    tag_10:\n        /* \"contracts/todoList.sol\":443:454  uint taskId */\n      0x00\n        /* \"contracts/todoList.sol\":457:466  userTasks */\n      0x00\n        /* \"contracts/todoList.sol\":457:478  userTasks[msg.sender] */\n      0x00\n        /* \"contracts/todoList.sol\":467:477  msg.sender */\n      caller\n        /* \"contracts/todoList.sol\":457:478  userTasks[msg.sender] */\n      0xffffffffffffffffffffffffffffffffffffffff\n      and\n      0xffffffffffffffffffffffffffffffffffffffff\n      and\n      dup2\n      mstore\n      0x20\n      add\n      swap1\n      dup2\n      mstore\n      0x20\n      add\n      0x00\n      keccak256\n        /* \"contracts/todoList.sol\":457:485  userTasks[msg.sender].length */\n      dup1\n      sload\n      swap1\n      pop\n        /* \"contracts/todoList.sol\":443:485  uint taskId = userTasks[msg.sender].length */\n      swap1\n      pop\n        /* \"contracts/todoList.sol\":495:504  userTasks */\n      0x00\n        /* \"contracts/todoList.sol\":495:516  userTasks[msg.sender] */\n      0x00\n        /* \"contracts/todoList.sol\":505:515  msg.sender */\n      caller\n        /* \"contracts/todoList.sol\":495:516  userTasks[msg.sender] */\n      0xffffffffffffffffffffffffffffffffffffffff\n      and\n      0xffffffffffffffffffffffffffffffffffffffff\n      and\n      dup2\n      mstore\n      0x20\n      add\n      swap1\n      dup2\n      mstore\n      0x20\n      add\n      0x00\n      keccak256\n        /* \"contracts/todoList.sol\":522:551  Task(taskId, _content, false) */\n      mload(0x40)\n      dup1\n      0x60\n      add\n      0x40\n      mstore\n      dup1\n        /* \"contracts/todoList.sol\":527:533  taskId */\n      dup4\n        /* \"contracts/todoList.sol\":522:551  Task(taskId, _content, false) */\n      dup2\n      mstore\n      0x20\n      add\n        /* \"contracts/todoList.sol\":535:543  _content */\n      dup5\n        /* \"contracts/todoList.sol\":522:551  Task(taskId, _content, false) */\n      dup2\n      mstore\n      0x20\n      add\n        /* \"contracts/todoList.sol\":545:550  false */\n      0x00\n        /* \"contracts/todoList.sol\":522:551  Task(taskId, _content, false) */\n      iszero\n      iszero\n      dup2\n      mstore\n      pop\n        /* \"contracts/todoList.sol\":495:552  userTasks[msg.sender].push(Task(taskId, _content, false)) */\n      swap1\n      dup1\n      0x01\n      dup2\n      sload\n      add\n      dup1\n      dup3\n      sstore\n      dup1\n      swap2\n      pop\n      pop\n      0x01\n      swap1\n      sub\n      swap1\n      0x00\n      mstore\n      keccak256(0x00, 0x20)\n      swap1\n      0x03\n      mul\n      add\n      0x00\n      swap1\n      swap2\n      swap1\n      swap2\n      swap1\n      swap2\n      pop\n      0x00\n      dup3\n      add\n      mload\n      dup2\n      0x00\n      add\n      sstore\n      0x20\n      dup3\n      add\n      mload\n      dup2\n      0x01\n      add\n      swap1\n      dup2\n      tag_27\n      swap2\n      swap1\n      tag_28\n      jump\t// in\n    tag_27:\n      pop\n      0x40\n      dup3\n      add\n      mload\n      dup2\n      0x02\n      add\n      exp(0x0100, 0x00)\n      dup2\n      sload\n      dup2\n      0xff\n      mul\n      not\n      and\n      swap1\n      dup4\n      iszero\n      iszero\n      mul\n      or\n      swap1\n      sstore\n      pop\n      pop\n      pop\n        /* \"contracts/todoList.sol\":568:609  TaskCreated(msg.sender, taskId, _content) */\n      0xa211005f5319202ee7ab6815fc340564635fb1eee9bc5a55aa10048c5b471dc4\n        /* \"contracts/todoList.sol\":580:590  msg.sender */\n      caller\n        /* \"contracts/todoList.sol\":592:598  taskId */\n      dup3\n        /* \"contracts/todoList.sol\":600:608  _content */\n      dup5\n        /* \"contracts/todoList.sol\":568:609  TaskCreated(msg.sender, taskId, _content) */\n      mload(0x40)\n      tag_29\n      swap4\n      swap3\n      swap2\n      swap1\n      tag_30\n      jump\t// in\n    tag_29:\n      mload(0x40)\n      dup1\n      swap2\n      sub\n      swap1\n      log1\n        /* \"contracts/todoList.sol\":433:616  {... */\n      pop\n        /* \"contracts/todoList.sol\":382:616  function createTask(string memory _content) public {... */\n      pop\n      jump\t// out\n        /* \"contracts/todoList.sol\":622:815  function toggleCompleted(uint _id) public {... */\n    tag_14:\n        /* \"contracts/todoList.sol\":674:691  Task storage task */\n      0x00\n        /* \"contracts/todoList.sol\":694:703  userTasks */\n      0x00\n        /* \"contracts/todoList.sol\":694:715  userTasks[msg.sender] */\n      0x00\n        /* \"contracts/todoList.sol\":704:714  msg.sender */\n      caller\n        /* \"contracts/todoList.sol\":694:715  userTasks[msg.sender] */\n      0xffffffffffffffffffffffffffffffffffffffff\n      and\n      0xffffffffffffffffffffffffffffffffffffffff\n      and\n      dup2\n      mstore\n      0x20\n      add\n      swap1\n      dup2\n      mstore\n      0x20\n      add\n      0x00\n      keccak256\n        /* \"contracts/todoList.sol\":716:719  _id */\n      dup3\n        /* \"contracts/todoList.sol\":694:720  userTasks[msg.sender][_id] */\n      dup2\n      sload\n      dup2\n      lt\n      tag_32\n      jumpi\n      tag_33\n      tag_34\n      jump\t// in\n    tag_33:\n    tag_32:\n      swap1\n      0x00\n      mstore\n      keccak256(0x00, 0x20)\n      swap1\n      0x03\n      mul\n      add\n        /* \"contracts/todoList.sol\":674:720  Task storage task = userTasks[msg.sender][_id] */\n      swap1\n      pop\n        /* \"contracts/todoList.sol\":748:752  task */\n      dup1\n        /* \"contracts/todoList.sol\":748:762  task.completed */\n      0x02\n      add\n      0x00\n      swap1\n      sload\n      swap1\n      0x0100\n      exp\n      swap1\n      div\n      0xff\n      and\n        /* \"contracts/todoList.sol\":747:762  !task.completed */\n      iszero\n        /* \"contracts/todoList.sol\":730:734  task */\n      dup2\n        /* \"contracts/todoList.sol\":730:744  task.completed */\n      0x02\n      add\n      0x00\n        /* \"contracts/todoList.sol\":730:762  task.completed = !task.completed */\n      0x0100\n      exp\n      dup2\n      sload\n      dup2\n      0xff\n      mul\n      not\n      and\n      swap1\n      dup4\n      iszero\n      iszero\n      mul\n      or\n      swap1\n      sstore\n      pop\n        /* \"contracts/todoList.sol\":778:808  TaskCompleted(msg.sender, _id) */\n      0xf684d89bb0f42287bf32838774e4b7f8a60c11804b3c6d1791fa55f306792643\n        /* \"contracts/todoList.sol\":792:802  msg.sender */\n      caller\n        /* \"contracts/todoList.sol\":804:807  _id */\n      dup4\n        /* \"contracts/todoList.sol\":778:808  TaskCompleted(msg.sender, _id) */\n      mload(0x40)\n      tag_36\n      swap3\n      swap2\n      swap1\n      tag_37\n      jump\t// in\n    tag_36:\n      mload(0x40)\n      dup1\n      swap2\n      sub\n      swap1\n      log1\n        /* \"contracts/todoList.sol\":664:815  {... */\n      pop\n        /* \"contracts/todoList.sol\":622:815  function toggleCompleted(uint _id) public {... */\n      pop\n      jump\t// out\n        /* \"contracts/todoList.sol\":220:264  mapping (address => Task[]) public userTasks */\n    tag_18:\n      mstore(0x20, 0x00)\n      dup2\n      0x00\n      mstore\n      keccak256(0x00, 0x40)\n      dup2\n      dup2\n      sload\n      dup2\n      lt\n      tag_38\n      jumpi\n      0x00\n      dup1\n      revert\n    tag_38:\n      swap1\n      0x00\n      mstore\n      keccak256(0x00, 0x20)\n      swap1\n      0x03\n      mul\n      add\n      0x00\n      swap2\n      pop\n      swap2\n      pop\n      pop\n      dup1\n      0x00\n      add\n      sload\n      swap1\n      dup1\n      0x01\n      add\n      dup1\n      sload\n      tag_40\n      swap1\n      tag_41\n      jump\t// in\n    tag_40:\n      dup1\n      0x1f\n      add\n      0x20\n      dup1\n      swap2\n      div\n      mul\n      0x20\n      add\n      mload(0x40)\n      swap1\n      dup2\n      add\n      0x40\n      mstore\n      dup1\n      swap3\n      swap2\n      swap1\n      dup2\n      dup2\n      mstore\n      0x20\n      add\n      dup3\n      dup1\n      sload\n      tag_42\n      swap1\n      tag_41\n      jump\t// in\n    tag_42:\n      dup1\n      iszero\n      tag_43\n      jumpi\n      dup1\n      0x1f\n      lt\n      tag_44\n      jumpi\n      0x0100\n      dup1\n      dup4\n      sload\n      div\n      mul\n      dup4\n      mstore\n      swap2\n      0x20\n      add\n      swap2\n      jump(tag_43)\n    tag_44:\n      dup3\n      add\n      swap2\n      swap1\n      0x00\n      mstore\n      keccak256(0x00, 0x20)\n      swap1\n    tag_45:\n      dup2\n      sload\n      dup2\n      mstore\n      swap1\n      0x01\n      add\n      swap1\n      0x20\n      add\n      dup1\n      dup4\n      gt\n      tag_45\n      jumpi\n      dup3\n      swap1\n      sub\n      0x1f\n      and\n      dup3\n      add\n      swap2\n    tag_43:\n      pop\n      pop\n      pop\n      pop\n      pop\n      swap1\n      dup1\n      0x02\n      add\n      0x00\n      swap1\n      sload\n      swap1\n      0x0100\n      exp\n      swap1\n      div\n      0xff\n      and\n      swap1\n      pop\n      dup4\n      jump\t// out\n        /* \"contracts/todoList.sol\":821:924  function getTaskCount() public view returns (uint) {... */\n    tag_22:\n        /* \"contracts/todoList.sol\":866:870  uint */\n      0x00\n        /* \"contracts/todoList.sol\":889:898  userTasks */\n      0x00\n        /* \"contracts/todoList.sol\":889:910  userTasks[msg.sender] */\n      0x00\n        /* \"contracts/todoList.sol\":899:909  msg.sender */\n      caller\n        /* \"contracts/todoList.sol\":889:910  userTasks[msg.sender] */\n      0xffffffffffffffffffffffffffffffffffffffff\n      and\n      0xffffffffffffffffffffffffffffffffffffffff\n      and\n      dup2\n      mstore\n      0x20\n      add\n      swap1\n      dup2\n      mstore\n      0x20\n      add\n      0x00\n      keccak256\n        /* \"contracts/todoList.sol\":889:917  userTasks[msg.sender].length */\n      dup1\n      sload\n      swap1\n      pop\n        /* \"contracts/todoList.sol\":882:917  return userTasks[msg.sender].length */\n      swap1\n      pop\n        /* \"contracts/todoList.sol\":821:924  function getTaskCount() public view returns (uint) {... */\n      swap1\n      jump\t// out\n        /* \"#utility.yul\":7:82   */\n    tag_47:\n        /* \"#utility.yul\":40:46   */\n      0x00\n        /* \"#utility.yul\":73:75   */\n      0x40\n        /* \"#utility.yul\":67:76   */\n      mload\n        /* \"#utility.yul\":57:76   */\n      swap1\n      pop\n        /* \"#utility.yul\":7:82   */\n      swap1\n      jump\t// out\n        /* \"#utility.yul\":88:205   */\n    tag_48:\n        /* \"#utility.yul\":197:198   */\n      0x00\n        /* \"#utility.yul\":194:195   */\n      0x00\n        /* \"#utility.yul\":187:199   */\n      revert\n        /* \"#utility.yul\":211:328   */\n    tag_49:\n        /* \"#utility.yul\":320:321   */\n      0x00\n        /* \"#utility.yul\":317:318   */\n      0x00\n        /* \"#utility.yul\":310:322   */\n      revert\n        /* \"#utility.yul\":334:451   */\n    tag_50:\n        /* \"#utility.yul\":443:444   */\n      0x00\n        /* \"#utility.yul\":440:441   */\n      0x00\n        /* \"#utility.yul\":433:445   */\n      revert\n        /* \"#utility.yul\":457:574   */\n    tag_51:\n        /* \"#utility.yul\":566:567   */\n      0x00\n        /* \"#utility.yul\":563:564   */\n      0x00\n        /* \"#utility.yul\":556:568   */\n      revert\n        /* \"#utility.yul\":580:682   */\n    tag_52:\n        /* \"#utility.yul\":621:627   */\n      0x00\n        /* \"#utility.yul\":672:674   */\n      0x1f\n        /* \"#utility.yul\":668:675   */\n      not\n        /* \"#utility.yul\":663:665   */\n      0x1f\n        /* \"#utility.yul\":656:661   */\n      dup4\n        /* \"#utility.yul\":652:666   */\n      add\n        /* \"#utility.yul\":648:676   */\n      and\n        /* \"#utility.yul\":638:676   */\n      swap1\n      pop\n        /* \"#utility.yul\":580:682   */\n      swap2\n      swap1\n      pop\n      jump\t// out\n        /* \"#utility.yul\":688:868   */\n    tag_53:\n        /* \"#utility.yul\":736:813   */\n      0x4e487b7100000000000000000000000000000000000000000000000000000000\n        /* \"#utility.yul\":733:734   */\n      0x00\n        /* \"#utility.yul\":726:814   */\n      mstore\n        /* \"#utility.yul\":833:837   */\n      0x41\n        /* \"#utility.yul\":830:831   */\n      0x04\n        /* \"#utility.yul\":823:838   */\n      mstore\n        /* \"#utility.yul\":857:861   */\n      0x24\n        /* \"#utility.yul\":854:855   */\n      0x00\n        /* \"#utility.yul\":847:862   */\n      revert\n        /* \"#utility.yul\":874:1155   */\n    tag_54:\n        /* \"#utility.yul\":957:984   */\n      tag_100\n        /* \"#utility.yul\":979:983   */\n      dup3\n        /* \"#utility.yul\":957:984   */\n      tag_52\n      jump\t// in\n    tag_100:\n        /* \"#utility.yul\":949:955   */\n      dup2\n        /* \"#utility.yul\":945:985   */\n      add\n        /* \"#utility.yul\":1087:1093   */\n      dup2\n        /* \"#utility.yul\":1075:1085   */\n      dup2\n        /* \"#utility.yul\":1072:1094   */\n      lt\n        /* \"#utility.yul\":1051:1069   */\n      0xffffffffffffffff\n        /* \"#utility.yul\":1039:1049   */\n      dup3\n        /* \"#utility.yul\":1036:1070   */\n      gt\n        /* \"#utility.yul\":1033:1095   */\n      or\n        /* \"#utility.yul\":1030:1118   */\n      iszero\n      tag_101\n      jumpi\n        /* \"#utility.yul\":1098:1116   */\n      tag_102\n      tag_53\n      jump\t// in\n    tag_102:\n        /* \"#utility.yul\":1030:1118   */\n    tag_101:\n        /* \"#utility.yul\":1138:1148   */\n      dup1\n        /* \"#utility.yul\":1134:1136   */\n      0x40\n        /* \"#utility.yul\":1127:1149   */\n      mstore\n        /* \"#utility.yul\":917:1155   */\n      pop\n        /* \"#utility.yul\":874:1155   */\n      pop\n      pop\n      jump\t// out\n        /* \"#utility.yul\":1161:1290   */\n    tag_55:\n        /* \"#utility.yul\":1195:1201   */\n      0x00\n        /* \"#utility.yul\":1222:1242   */\n      tag_104\n      tag_47\n      jump\t// in\n    tag_104:\n        /* \"#utility.yul\":1212:1242   */\n      swap1\n      pop\n        /* \"#utility.yul\":1251:1284   */\n      tag_105\n        /* \"#utility.yul\":1279:1283   */\n      dup3\n        /* \"#utility.yul\":1271:1277   */\n      dup3\n        /* \"#utility.yul\":1251:1284   */\n      tag_54\n      jump\t// in\n    tag_105:\n        /* \"#utility.yul\":1161:1290   */\n      swap2\n      swap1\n      pop\n      jump\t// out\n        /* \"#utility.yul\":1296:1604   */\n    tag_56:\n        /* \"#utility.yul\":1358:1362   */\n      0x00\n        /* \"#utility.yul\":1448:1466   */\n      0xffffffffffffffff\n        /* \"#utility.yul\":1440:1446   */\n      dup3\n        /* \"#utility.yul\":1437:1467   */\n      gt\n        /* \"#utility.yul\":1434:1490   */\n      iszero\n      tag_107\n      jumpi\n        /* \"#utility.yul\":1470:1488   */\n      tag_108\n      tag_53\n      jump\t// in\n    tag_108:\n        /* \"#utility.yul\":1434:1490   */\n    tag_107:\n        /* \"#utility.yul\":1508:1537   */\n      tag_109\n        /* \"#utility.yul\":1530:1536   */\n      dup3\n        /* \"#utility.yul\":1508:1537   */\n      tag_52\n      jump\t// in\n    tag_109:\n        /* \"#utility.yul\":1500:1537   */\n      swap1\n      pop\n        /* \"#utility.yul\":1592:1596   */\n      0x20\n        /* \"#utility.yul\":1586:1590   */\n      dup2\n        /* \"#utility.yul\":1582:1597   */\n      add\n        /* \"#utility.yul\":1574:1597   */\n      swap1\n      pop\n        /* \"#utility.yul\":1296:1604   */\n      swap2\n      swap1\n      pop\n      jump\t// out\n        /* \"#utility.yul\":1610:1758   */\n    tag_57:\n        /* \"#utility.yul\":1708:1714   */\n      dup3\n        /* \"#utility.yul\":1703:1706   */\n      dup2\n        /* \"#utility.yul\":1698:1701   */\n      dup4\n        /* \"#utility.yul\":1685:1715   */\n      calldatacopy\n        /* \"#utility.yul\":1749:1750   */\n      0x00\n        /* \"#utility.yul\":1740:1746   */\n      dup4\n        /* \"#utility.yul\":1735:1738   */\n      dup4\n        /* \"#utility.yul\":1731:1747   */\n      add\n        /* \"#utility.yul\":1724:1751   */\n      mstore\n        /* \"#utility.yul\":1610:1758   */\n      pop\n      pop\n      pop\n      jump\t// out\n        /* \"#utility.yul\":1764:2189   */\n    tag_58:\n        /* \"#utility.yul\":1842:1847   */\n      0x00\n        /* \"#utility.yul\":1867:1933   */\n      tag_112\n        /* \"#utility.yul\":1883:1932   */\n      tag_113\n        /* \"#utility.yul\":1925:1931   */\n      dup5\n        /* \"#utility.yul\":1883:1932   */\n      tag_56\n      jump\t// in\n    tag_113:\n        /* \"#utility.yul\":1867:1933   */\n      tag_55\n      jump\t// in\n    tag_112:\n        /* \"#utility.yul\":1858:1933   */\n      swap1\n      pop\n        /* \"#utility.yul\":1956:1962   */\n      dup3\n        /* \"#utility.yul\":1949:1954   */\n      dup2\n        /* \"#utility.yul\":1942:1963   */\n      mstore\n        /* \"#utility.yul\":1994:1998   */\n      0x20\n        /* \"#utility.yul\":1987:1992   */\n      dup2\n        /* \"#utility.yul\":1983:1999   */\n      add\n        /* \"#utility.yul\":2032:2035   */\n      dup5\n        /* \"#utility.yul\":2023:2029   */\n      dup5\n        /* \"#utility.yul\":2018:2021   */\n      dup5\n        /* \"#utility.yul\":2014:2030   */\n      add\n        /* \"#utility.yul\":2011:2036   */\n      gt\n        /* \"#utility.yul\":2008:2120   */\n      iszero\n      tag_114\n      jumpi\n        /* \"#utility.yul\":2039:2118   */\n      tag_115\n      tag_51\n      jump\t// in\n    tag_115:\n        /* \"#utility.yul\":2008:2120   */\n    tag_114:\n        /* \"#utility.yul\":2129:2183   */\n      tag_116\n        /* \"#utility.yul\":2176:2182   */\n      dup5\n        /* \"#utility.yul\":2171:2174   */\n      dup3\n        /* \"#utility.yul\":2166:2169   */\n      dup6\n        /* \"#utility.yul\":2129:2183   */\n      tag_57\n      jump\t// in\n    tag_116:\n        /* \"#utility.yul\":1848:2189   */\n      pop\n        /* \"#utility.yul\":1764:2189   */\n      swap4\n      swap3\n      pop\n      pop\n      pop\n      jump\t// out\n        /* \"#utility.yul\":2209:2549   */\n    tag_59:\n        /* \"#utility.yul\":2265:2270   */\n      0x00\n        /* \"#utility.yul\":2314:2317   */\n      dup3\n        /* \"#utility.yul\":2307:2311   */\n      0x1f\n        /* \"#utility.yul\":2299:2305   */\n      dup4\n        /* \"#utility.yul\":2295:2312   */\n      add\n        /* \"#utility.yul\":2291:2318   */\n      slt\n        /* \"#utility.yul\":2281:2403   */\n      tag_118\n      jumpi\n        /* \"#utility.yul\":2322:2401   */\n      tag_119\n      tag_50\n      jump\t// in\n    tag_119:\n        /* \"#utility.yul\":2281:2403   */\n    tag_118:\n        /* \"#utility.yul\":2439:2445   */\n      dup2\n        /* \"#utility.yul\":2426:2446   */\n      calldataload\n        /* \"#utility.yul\":2464:2543   */\n      tag_120\n        /* \"#utility.yul\":2539:2542   */\n      dup5\n        /* \"#utility.yul\":2531:2537   */\n      dup3\n        /* \"#utility.yul\":2524:2528   */\n      0x20\n        /* \"#utility.yul\":2516:2522   */\n      dup7\n        /* \"#utility.yul\":2512:2529   */\n      add\n        /* \"#utility.yul\":2464:2543   */\n      tag_58\n      jump\t// in\n    tag_120:\n        /* \"#utility.yul\":2455:2543   */\n      swap2\n      pop\n        /* \"#utility.yul\":2271:2549   */\n      pop\n        /* \"#utility.yul\":2209:2549   */\n      swap3\n      swap2\n      pop\n      pop\n      jump\t// out\n        /* \"#utility.yul\":2555:3064   */\n    tag_9:\n        /* \"#utility.yul\":2624:2630   */\n      0x00\n        /* \"#utility.yul\":2673:2675   */\n      0x20\n        /* \"#utility.yul\":2661:2670   */\n      dup3\n        /* \"#utility.yul\":2652:2659   */\n      dup5\n        /* \"#utility.yul\":2648:2671   */\n      sub\n        /* \"#utility.yul\":2644:2676   */\n      slt\n        /* \"#utility.yul\":2641:2760   */\n      iszero\n      tag_122\n      jumpi\n        /* \"#utility.yul\":2679:2758   */\n      tag_123\n      tag_48\n      jump\t// in\n    tag_123:\n        /* \"#utility.yul\":2641:2760   */\n    tag_122:\n        /* \"#utility.yul\":2827:2828   */\n      0x00\n        /* \"#utility.yul\":2816:2825   */\n      dup3\n        /* \"#utility.yul\":2812:2829   */\n      add\n        /* \"#utility.yul\":2799:2830   */\n      calldataload\n        /* \"#utility.yul\":2857:2875   */\n      0xffffffffffffffff\n        /* \"#utility.yul\":2849:2855   */\n      dup2\n        /* \"#utility.yul\":2846:2876   */\n      gt\n        /* \"#utility.yul\":2843:2960   */\n      iszero\n      tag_124\n      jumpi\n        /* \"#utility.yul\":2879:2958   */\n      tag_125\n      tag_49\n      jump\t// in\n    tag_125:\n        /* \"#utility.yul\":2843:2960   */\n    tag_124:\n        /* \"#utility.yul\":2984:3047   */\n      tag_126\n        /* \"#utility.yul\":3039:3046   */\n      dup5\n        /* \"#utility.yul\":3030:3036   */\n      dup3\n        /* \"#utility.yul\":3019:3028   */\n      dup6\n        /* \"#utility.yul\":3015:3037   */\n      add\n        /* \"#utility.yul\":2984:3047   */\n      tag_59\n      jump\t// in\n    tag_126:\n        /* \"#utility.yul\":2974:3047   */\n      swap2\n      pop\n        /* \"#utility.yul\":2770:3057   */\n      pop\n        /* \"#utility.yul\":2555:3064   */\n      swap3\n      swap2\n      pop\n      pop\n      jump\t// out\n        /* \"#utility.yul\":3070:3147   */\n    tag_60:\n        /* \"#utility.yul\":3107:3114   */\n      0x00\n        /* \"#utility.yul\":3136:3141   */\n      dup2\n        /* \"#utility.yul\":3125:3141   */\n      swap1\n      pop\n        /* \"#utility.yul\":3070:3147   */\n      swap2\n      swap1\n      pop\n      jump\t// out\n        /* \"#utility.yul\":3153:3275   */\n    tag_61:\n        /* \"#utility.yul\":3226:3250   */\n      tag_129\n        /* \"#utility.yul\":3244:3249   */\n      dup2\n        /* \"#utility.yul\":3226:3250   */\n      tag_60\n      jump\t// in\n    tag_129:\n        /* \"#utility.yul\":3219:3224   */\n      dup2\n        /* \"#utility.yul\":3216:3251   */\n      eq\n        /* \"#utility.yul\":3206:3269   */\n      tag_130\n      jumpi\n        /* \"#utility.yul\":3265:3266   */\n      0x00\n        /* \"#utility.yul\":3262:3263   */\n      0x00\n        /* \"#utility.yul\":3255:3267   */\n      revert\n        /* \"#utility.yul\":3206:3269   */\n    tag_130:\n        /* \"#utility.yul\":3153:3275   */\n      pop\n      jump\t// out\n        /* \"#utility.yul\":3281:3420   */\n    tag_62:\n        /* \"#utility.yul\":3327:3332   */\n      0x00\n        /* \"#utility.yul\":3365:3371   */\n      dup2\n        /* \"#utility.yul\":3352:3372   */\n      calldataload\n        /* \"#utility.yul\":3343:3372   */\n      swap1\n      pop\n        /* \"#utility.yul\":3381:3414   */\n      tag_132\n        /* \"#utility.yul\":3408:3413   */\n      dup2\n        /* \"#utility.yul\":3381:3414   */\n      tag_61\n      jump\t// in\n    tag_132:\n        /* \"#utility.yul\":3281:3420   */\n      swap3\n      swap2\n      pop\n      pop\n      jump\t// out\n        /* \"#utility.yul\":3426:3755   */\n    tag_13:\n        /* \"#utility.yul\":3485:3491   */\n      0x00\n        /* \"#utility.yul\":3534:3536   */\n      0x20\n        /* \"#utility.yul\":3522:3531   */\n      dup3\n        /* \"#utility.yul\":3513:3520   */\n      dup5\n        /* \"#utility.yul\":3509:3532   */\n      sub\n        /* \"#utility.yul\":3505:3537   */\n      slt\n        /* \"#utility.yul\":3502:3621   */\n      iszero\n      tag_134\n      jumpi\n        /* \"#utility.yul\":3540:3619   */\n      tag_135\n      tag_48\n      jump\t// in\n    tag_135:\n        /* \"#utility.yul\":3502:3621   */\n    tag_134:\n        /* \"#utility.yul\":3660:3661   */\n      0x00\n        /* \"#utility.yul\":3685:3738   */\n      tag_136\n        /* \"#utility.yul\":3730:3737   */\n      dup5\n        /* \"#utility.yul\":3721:3727   */\n      dup3\n        /* \"#utility.yul\":3710:3719   */\n      dup6\n        /* \"#utility.yul\":3706:3728   */\n      add\n        /* \"#utility.yul\":3685:3738   */\n      tag_62\n      jump\t// in\n    tag_136:\n        /* \"#utility.yul\":3675:3738   */\n      swap2\n      pop\n        /* \"#utility.yul\":3631:3748   */\n      pop\n        /* \"#utility.yul\":3426:3755   */\n      swap3\n      swap2\n      pop\n      pop\n      jump\t// out\n        /* \"#utility.yul\":3761:3887   */\n    tag_63:\n        /* \"#utility.yul\":3798:3805   */\n      0x00\n        /* \"#utility.yul\":3838:3880   */\n      0xffffffffffffffffffffffffffffffffffffffff\n        /* \"#utility.yul\":3831:3836   */\n      dup3\n        /* \"#utility.yul\":3827:3881   */\n      and\n        /* \"#utility.yul\":3816:3881   */\n      swap1\n      pop\n        /* \"#utility.yul\":3761:3887   */\n      swap2\n      swap1\n      pop\n      jump\t// out\n        /* \"#utility.yul\":3893:3989   */\n    tag_64:\n        /* \"#utility.yul\":3930:3937   */\n      0x00\n        /* \"#utility.yul\":3959:3983   */\n      tag_139\n        /* \"#utility.yul\":3977:3982   */\n      dup3\n        /* \"#utility.yul\":3959:3983   */\n      tag_63\n      jump\t// in\n    tag_139:\n        /* \"#utility.yul\":3948:3983   */\n      swap1\n      pop\n        /* \"#utility.yul\":3893:3989   */\n      swap2\n      swap1\n      pop\n      jump\t// out\n        /* \"#utility.yul\":3995:4117   */\n    tag_65:\n        /* \"#utility.yul\":4068:4092   */\n      tag_141\n        /* \"#utility.yul\":4086:4091   */\n      dup2\n        /* \"#utility.yul\":4068:4092   */\n      tag_64\n      jump\t// in\n    tag_141:\n        /* \"#utility.yul\":4061:4066   */\n      dup2\n        /* \"#utility.yul\":4058:4093   */\n      eq\n        /* \"#utility.yul\":4048:4111   */\n      tag_142\n      jumpi\n        /* \"#utility.yul\":4107:4108   */\n      0x00\n        /* \"#utility.yul\":4104:4105   */\n      0x00\n        /* \"#utility.yul\":4097:4109   */\n      revert\n        /* \"#utility.yul\":4048:4111   */\n    tag_142:\n        /* \"#utility.yul\":3995:4117   */\n      pop\n      jump\t// out\n        /* \"#utility.yul\":4123:4262   */\n    tag_66:\n        /* \"#utility.yul\":4169:4174   */\n      0x00\n        /* \"#utility.yul\":4207:4213   */\n      dup2\n        /* \"#utility.yul\":4194:4214   */\n      calldataload\n        /* \"#utility.yul\":4185:4214   */\n      swap1\n      pop\n        /* \"#utility.yul\":4223:4256   */\n      tag_144\n        /* \"#utility.yul\":4250:4255   */\n      dup2\n        /* \"#utility.yul\":4223:4256   */\n      tag_65\n      jump\t// in\n    tag_144:\n        /* \"#utility.yul\":4123:4262   */\n      swap3\n      swap2\n      pop\n      pop\n      jump\t// out\n        /* \"#utility.yul\":4268:4742   */\n    tag_17:\n        /* \"#utility.yul\":4336:4342   */\n      0x00\n        /* \"#utility.yul\":4344:4350   */\n      0x00\n        /* \"#utility.yul\":4393:4395   */\n      0x40\n        /* \"#utility.yul\":4381:4390   */\n      dup4\n        /* \"#utility.yul\":4372:4379   */\n      dup6\n        /* \"#utility.yul\":4368:4391   */\n      sub\n        /* \"#utility.yul\":4364:4396   */\n      slt\n        /* \"#utility.yul\":4361:4480   */\n      iszero\n      tag_146\n      jumpi\n        /* \"#utility.yul\":4399:4478   */\n      tag_147\n      tag_48\n      jump\t// in\n    tag_147:\n        /* \"#utility.yul\":4361:4480   */\n    tag_146:\n        /* \"#utility.yul\":4519:4520   */\n      0x00\n        /* \"#utility.yul\":4544:4597   */\n      tag_148\n        /* \"#utility.yul\":4589:4596   */\n      dup6\n        /* \"#utility.yul\":4580:4586   */\n      dup3\n        /* \"#utility.yul\":4569:4578   */\n      dup7\n        /* \"#utility.yul\":4565:4587   */\n      add\n        /* \"#utility.yul\":4544:4597   */\n      tag_66\n      jump\t// in\n    tag_148:\n        /* \"#utility.yul\":4534:4597   */\n      swap3\n      pop\n        /* \"#utility.yul\":4490:4607   */\n      pop\n        /* \"#utility.yul\":4646:4648   */\n      0x20\n        /* \"#utility.yul\":4672:4725   */\n      tag_149\n        /* \"#utility.yul\":4717:4724   */\n      dup6\n        /* \"#utility.yul\":4708:4714   */\n      dup3\n        /* \"#utility.yul\":4697:4706   */\n      dup7\n        /* \"#utility.yul\":4693:4715   */\n      add\n        /* \"#utility.yul\":4672:4725   */\n      tag_62\n      jump\t// in\n    tag_149:\n        /* \"#utility.yul\":4662:4725   */\n      swap2\n      pop\n        /* \"#utility.yul\":4617:4735   */\n      pop\n        /* \"#utility.yul\":4268:4742   */\n      swap3\n      pop\n      swap3\n      swap1\n      pop\n      jump\t// out\n        /* \"#utility.yul\":4748:4866   */\n    tag_67:\n        /* \"#utility.yul\":4835:4859   */\n      tag_151\n        /* \"#utility.yul\":4853:4858   */\n      dup2\n        /* \"#utility.yul\":4835:4859   */\n      tag_60\n      jump\t// in\n    tag_151:\n        /* \"#utility.yul\":4830:4833   */\n      dup3\n        /* \"#utility.yul\":4823:4860   */\n      mstore\n        /* \"#utility.yul\":4748:4866   */\n      pop\n      pop\n      jump\t// out\n        /* \"#utility.yul\":4872:4971   */\n    tag_68:\n        /* \"#utility.yul\":4924:4930   */\n      0x00\n        /* \"#utility.yul\":4958:4963   */\n      dup2\n        /* \"#utility.yul\":4952:4964   */\n      mload\n        /* \"#utility.yul\":4942:4964   */\n      swap1\n      pop\n        /* \"#utility.yul\":4872:4971   */\n      swap2\n      swap1\n      pop\n      jump\t// out\n        /* \"#utility.yul\":4977:5146   */\n    tag_69:\n        /* \"#utility.yul\":5061:5072   */\n      0x00\n        /* \"#utility.yul\":5095:5101   */\n      dup3\n        /* \"#utility.yul\":5090:5093   */\n      dup3\n        /* \"#utility.yul\":5083:5102   */\n      mstore\n        /* \"#utility.yul\":5135:5139   */\n      0x20\n        /* \"#utility.yul\":5130:5133   */\n      dup3\n        /* \"#utility.yul\":5126:5140   */\n      add\n        /* \"#utility.yul\":5111:5140   */\n      swap1\n      pop\n        /* \"#utility.yul\":4977:5146   */\n      swap3\n      swap2\n      pop\n      pop\n      jump\t// out\n        /* \"#utility.yul\":5152:5291   */\n    tag_70:\n        /* \"#utility.yul\":5241:5247   */\n      dup3\n        /* \"#utility.yul\":5236:5239   */\n      dup2\n        /* \"#utility.yul\":5231:5234   */\n      dup4\n        /* \"#utility.yul\":5225:5248   */\n      mcopy\n        /* \"#utility.yul\":5282:5283   */\n      0x00\n        /* \"#utility.yul\":5273:5279   */\n      dup4\n        /* \"#utility.yul\":5268:5271   */\n      dup4\n        /* \"#utility.yul\":5264:5280   */\n      add\n        /* \"#utility.yul\":5257:5284   */\n      mstore\n        /* \"#utility.yul\":5152:5291   */\n      pop\n      pop\n      pop\n      jump\t// out\n        /* \"#utility.yul\":5297:5674   */\n    tag_71:\n        /* \"#utility.yul\":5385:5388   */\n      0x00\n        /* \"#utility.yul\":5413:5452   */\n      tag_156\n        /* \"#utility.yul\":5446:5451   */\n      dup3\n        /* \"#utility.yul\":5413:5452   */\n      tag_68\n      jump\t// in\n    tag_156:\n        /* \"#utility.yul\":5468:5539   */\n      tag_157\n        /* \"#utility.yul\":5532:5538   */\n      dup2\n        /* \"#utility.yul\":5527:5530   */\n      dup6\n        /* \"#utility.yul\":5468:5539   */\n      tag_69\n      jump\t// in\n    tag_157:\n        /* \"#utility.yul\":5461:5539   */\n      swap4\n      pop\n        /* \"#utility.yul\":5548:5613   */\n      tag_158\n        /* \"#utility.yul\":5606:5612   */\n      dup2\n        /* \"#utility.yul\":5601:5604   */\n      dup6\n        /* \"#utility.yul\":5594:5598   */\n      0x20\n        /* \"#utility.yul\":5587:5592   */\n      dup7\n        /* \"#utility.yul\":5583:5599   */\n      add\n        /* \"#utility.yul\":5548:5613   */\n      tag_70\n      jump\t// in\n    tag_158:\n        /* \"#utility.yul\":5638:5667   */\n      tag_159\n        /* \"#utility.yul\":5660:5666   */\n      dup2\n        /* \"#utility.yul\":5638:5667   */\n      tag_52\n      jump\t// in\n    tag_159:\n        /* \"#utility.yul\":5633:5636   */\n      dup5\n        /* \"#utility.yul\":5629:5668   */\n      add\n        /* \"#utility.yul\":5622:5668   */\n      swap2\n      pop\n        /* \"#utility.yul\":5389:5674   */\n      pop\n        /* \"#utility.yul\":5297:5674   */\n      swap3\n      swap2\n      pop\n      pop\n      jump\t// out\n        /* \"#utility.yul\":5680:5770   */\n    tag_72:\n        /* \"#utility.yul\":5714:5721   */\n      0x00\n        /* \"#utility.yul\":5757:5762   */\n      dup2\n        /* \"#utility.yul\":5750:5763   */\n      iszero\n        /* \"#utility.yul\":5743:5764   */\n      iszero\n        /* \"#utility.yul\":5732:5764   */\n      swap1\n      pop\n        /* \"#utility.yul\":5680:5770   */\n      swap2\n      swap1\n      pop\n      jump\t// out\n        /* \"#utility.yul\":5776:5885   */\n    tag_73:\n        /* \"#utility.yul\":5857:5878   */\n      tag_162\n        /* \"#utility.yul\":5872:5877   */\n      dup2\n        /* \"#utility.yul\":5857:5878   */\n      tag_72\n      jump\t// in\n    tag_162:\n        /* \"#utility.yul\":5852:5855   */\n      dup3\n        /* \"#utility.yul\":5845:5879   */\n      mstore\n        /* \"#utility.yul\":5776:5885   */\n      pop\n      pop\n      jump\t// out\n        /* \"#utility.yul\":5891:6412   */\n    tag_20:\n        /* \"#utility.yul\":6054:6058   */\n      0x00\n        /* \"#utility.yul\":6092:6094   */\n      0x60\n        /* \"#utility.yul\":6081:6090   */\n      dup3\n        /* \"#utility.yul\":6077:6095   */\n      add\n        /* \"#utility.yul\":6069:6095   */\n      swap1\n      pop\n        /* \"#utility.yul\":6105:6176   */\n      tag_164\n        /* \"#utility.yul\":6173:6174   */\n      0x00\n        /* \"#utility.yul\":6162:6171   */\n      dup4\n        /* \"#utility.yul\":6158:6175   */\n      add\n        /* \"#utility.yul\":6149:6155   */\n      dup7\n        /* \"#utility.yul\":6105:6176   */\n      tag_67\n      jump\t// in\n    tag_164:\n        /* \"#utility.yul\":6223:6232   */\n      dup2\n        /* \"#utility.yul\":6217:6221   */\n      dup2\n        /* \"#utility.yul\":6213:6233   */\n      sub\n        /* \"#utility.yul\":6208:6210   */\n      0x20\n        /* \"#utility.yul\":6197:6206   */\n      dup4\n        /* \"#utility.yul\":6193:6211   */\n      add\n        /* \"#utility.yul\":6186:6234   */\n      mstore\n        /* \"#utility.yul\":6251:6329   */\n      tag_165\n        /* \"#utility.yul\":6324:6328   */\n      dup2\n        /* \"#utility.yul\":6315:6321   */\n      dup6\n        /* \"#utility.yul\":6251:6329   */\n      tag_71\n      jump\t// in\n    tag_165:\n        /* \"#utility.yul\":6243:6329   */\n      swap1\n      pop\n        /* \"#utility.yul\":6339:6405   */\n      tag_166\n        /* \"#utility.yul\":6401:6403   */\n      0x40\n        /* \"#utility.yul\":6390:6399   */\n      dup4\n        /* \"#utility.yul\":6386:6404   */\n      add\n        /* \"#utility.yul\":6377:6383   */\n      dup5\n        /* \"#utility.yul\":6339:6405   */\n      tag_73\n      jump\t// in\n    tag_166:\n        /* \"#utility.yul\":5891:6412   */\n      swap5\n      swap4\n      pop\n      pop\n      pop\n      pop\n      jump\t// out\n        /* \"#utility.yul\":6418:6640   */\n    tag_24:\n        /* \"#utility.yul\":6511:6515   */\n      0x00\n        /* \"#utility.yul\":6549:6551   */\n      0x20\n        /* \"#utility.yul\":6538:6547   */\n      dup3\n        /* \"#utility.yul\":6534:6552   */\n      add\n        /* \"#utility.yul\":6526:6552   */\n      swap1\n      pop\n        /* \"#utility.yul\":6562:6633   */\n      tag_168\n        /* \"#utility.yul\":6630:6631   */\n      0x00\n        /* \"#utility.yul\":6619:6628   */\n      dup4\n        /* \"#utility.yul\":6615:6632   */\n      add\n        /* \"#utility.yul\":6606:6612   */\n      dup5\n        /* \"#utility.yul\":6562:6633   */\n      tag_67\n      jump\t// in\n    tag_168:\n        /* \"#utility.yul\":6418:6640   */\n      swap3\n      swap2\n      pop\n      pop\n      jump\t// out\n        /* \"#utility.yul\":6646:6826   */\n    tag_74:\n        /* \"#utility.yul\":6694:6771   */\n      0x4e487b7100000000000000000000000000000000000000000000000000000000\n        /* \"#utility.yul\":6691:6692   */\n      0x00\n        /* \"#utility.yul\":6684:6772   */\n      mstore\n        /* \"#utility.yul\":6791:6795   */\n      0x22\n        /* \"#utility.yul\":6788:6789   */\n      0x04\n        /* \"#utility.yul\":6781:6796   */\n      mstore\n        /* \"#utility.yul\":6815:6819   */\n      0x24\n        /* \"#utility.yul\":6812:6813   */\n      0x00\n        /* \"#utility.yul\":6805:6820   */\n      revert\n        /* \"#utility.yul\":6832:7152   */\n    tag_41:\n        /* \"#utility.yul\":6876:6882   */\n      0x00\n        /* \"#utility.yul\":6913:6914   */\n      0x02\n        /* \"#utility.yul\":6907:6911   */\n      dup3\n        /* \"#utility.yul\":6903:6915   */\n      div\n        /* \"#utility.yul\":6893:6915   */\n      swap1\n      pop\n        /* \"#utility.yul\":6960:6961   */\n      0x01\n        /* \"#utility.yul\":6954:6958   */\n      dup3\n        /* \"#utility.yul\":6950:6962   */\n      and\n        /* \"#utility.yul\":6981:6999   */\n      dup1\n        /* \"#utility.yul\":6971:7052   */\n      tag_171\n      jumpi\n        /* \"#utility.yul\":7037:7041   */\n      0x7f\n        /* \"#utility.yul\":7029:7035   */\n      dup3\n        /* \"#utility.yul\":7025:7042   */\n      and\n        /* \"#utility.yul\":7015:7042   */\n      swap2\n      pop\n        /* \"#utility.yul\":6971:7052   */\n    tag_171:\n        /* \"#utility.yul\":7099:7101   */\n      0x20\n        /* \"#utility.yul\":7091:7097   */\n      dup3\n        /* \"#utility.yul\":7088:7102   */\n      lt\n        /* \"#utility.yul\":7068:7086   */\n      dup2\n        /* \"#utility.yul\":7065:7103   */\n      sub\n        /* \"#utility.yul\":7062:7146   */\n      tag_172\n      jumpi\n        /* \"#utility.yul\":7118:7136   */\n      tag_173\n      tag_74\n      jump\t// in\n    tag_173:\n        /* \"#utility.yul\":7062:7146   */\n    tag_172:\n        /* \"#utility.yul\":6883:7152   */\n      pop\n        /* \"#utility.yul\":6832:7152   */\n      swap2\n      swap1\n      pop\n      jump\t// out\n        /* \"#utility.yul\":7158:7299   */\n    tag_75:\n        /* \"#utility.yul\":7207:7211   */\n      0x00\n        /* \"#utility.yul\":7230:7233   */\n      dup2\n        /* \"#utility.yul\":7222:7233   */\n      swap1\n      pop\n        /* \"#utility.yul\":7253:7256   */\n      dup2\n        /* \"#utility.yul\":7250:7251   */\n      0x00\n        /* \"#utility.yul\":7243:7257   */\n      mstore\n        /* \"#utility.yul\":7287:7291   */\n      0x20\n        /* \"#utility.yul\":7284:7285   */\n      0x00\n        /* \"#utility.yul\":7274:7292   */\n      keccak256\n        /* \"#utility.yul\":7266:7292   */\n      swap1\n      pop\n        /* \"#utility.yul\":7158:7299   */\n      swap2\n      swap1\n      pop\n      jump\t// out\n        /* \"#utility.yul\":7305:7398   */\n    tag_76:\n        /* \"#utility.yul\":7342:7348   */\n      0x00\n        /* \"#utility.yul\":7389:7391   */\n      0x20\n        /* \"#utility.yul\":7384:7386   */\n      0x1f\n        /* \"#utility.yul\":7377:7382   */\n      dup4\n        /* \"#utility.yul\":7373:7387   */\n      add\n        /* \"#utility.yul\":7369:7392   */\n      div\n        /* \"#utility.yul\":7359:7392   */\n      swap1\n      pop\n        /* \"#utility.yul\":7305:7398   */\n      swap2\n      swap1\n      pop\n      jump\t// out\n        /* \"#utility.yul\":7404:7511   */\n    tag_77:\n        /* \"#utility.yul\":7448:7456   */\n      0x00\n        /* \"#utility.yul\":7498:7503   */\n      dup3\n        /* \"#utility.yul\":7492:7496   */\n      dup3\n        /* \"#utility.yul\":7488:7504   */\n      shl\n        /* \"#utility.yul\":7467:7504   */\n      swap1\n      pop\n        /* \"#utility.yul\":7404:7511   */\n      swap3\n      swap2\n      pop\n      pop\n      jump\t// out\n        /* \"#utility.yul\":7517:7910   */\n    tag_78:\n        /* \"#utility.yul\":7586:7592   */\n      0x00\n        /* \"#utility.yul\":7636:7637   */\n      0x08\n        /* \"#utility.yul\":7624:7634   */\n      dup4\n        /* \"#utility.yul\":7620:7638   */\n      mul\n        /* \"#utility.yul\":7659:7756   */\n      tag_178\n        /* \"#utility.yul\":7689:7755   */\n      0xffffffffffffffffffffffffffffffffffffffffffffffffffffffffffffffff\n        /* \"#utility.yul\":7678:7687   */\n      dup3\n        /* \"#utility.yul\":7659:7756   */\n      tag_77\n      jump\t// in\n    tag_178:\n        /* \"#utility.yul\":7777:7816   */\n      tag_179\n        /* \"#utility.yul\":7807:7815   */\n      dup7\n        /* \"#utility.yul\":7796:7805   */\n      dup4\n        /* \"#utility.yul\":7777:7816   */\n      tag_77\n      jump\t// in\n    tag_179:\n        /* \"#utility.yul\":7765:7816   */\n      swap6\n      pop\n        /* \"#utility.yul\":7849:7853   */\n      dup1\n        /* \"#utility.yul\":7845:7854   */\n      not\n        /* \"#utility.yul\":7838:7843   */\n      dup5\n        /* \"#utility.yul\":7834:7855   */\n      and\n        /* \"#utility.yul\":7825:7855   */\n      swap4\n      pop\n        /* \"#utility.yul\":7898:7902   */\n      dup1\n        /* \"#utility.yul\":7888:7896   */\n      dup7\n        /* \"#utility.yul\":7884:7903   */\n      and\n        /* \"#utility.yul\":7877:7882   */\n      dup5\n        /* \"#utility.yul\":7874:7904   */\n      or\n        /* \"#utility.yul\":7864:7904   */\n      swap3\n      pop\n        /* \"#utility.yul\":7593:7910   */\n      pop\n      pop\n        /* \"#utility.yul\":7517:7910   */\n      swap4\n      swap3\n      pop\n      pop\n      pop\n      jump\t// out\n        /* \"#utility.yul\":7916:7976   */\n    tag_79:\n        /* \"#utility.yul\":7944:7947   */\n      0x00\n        /* \"#utility.yul\":7965:7970   */\n      dup2\n        /* \"#utility.yul\":7958:7970   */\n      swap1\n      pop\n        /* \"#utility.yul\":7916:7976   */\n      swap2\n      swap1\n      pop\n      jump\t// out\n        /* \"#utility.yul\":7982:8124   */\n    tag_80:\n        /* \"#utility.yul\":8032:8041   */\n      0x00\n        /* \"#utility.yul\":8065:8118   */\n      tag_182\n        /* \"#utility.yul\":8083:8117   */\n      tag_183\n        /* \"#utility.yul\":8092:8116   */\n      tag_184\n        /* \"#utility.yul\":8110:8115   */\n      dup5\n        /* \"#utility.yul\":8092:8116   */\n      tag_60\n      jump\t// in\n    tag_184:\n        /* \"#utility.yul\":8083:8117   */\n      tag_79\n      jump\t// in\n    tag_183:\n        /* \"#utility.yul\":8065:8118   */\n      tag_60\n      jump\t// in\n    tag_182:\n        /* \"#utility.yul\":8052:8118   */\n      swap1\n      pop\n        /* \"#utility.yul\":7982:8124   */\n      swap2\n      swap1\n      pop\n      jump\t// out\n        /* \"#utility.yul\":8130:8205   */\n    tag_81:\n        /* \"#utility.yul\":8173:8176   */\n      0x00\n        /* \"#utility.yul\":8194:8199   */\n      dup2\n        /* \"#utility.yul\":8187:8199   */\n      swap1\n      pop\n        /* \"#utility.yul\":8130:8205   */\n      swap2\n      swap1\n      pop\n      jump\t// out\n        /* \"#utility.yul\":8211:8480   */\n    tag_82:\n        /* \"#utility.yul\":8321:8360   */\n      tag_187\n        /* \"#utility.yul\":8352:8359   */\n      dup4\n        /* \"#utility.yul\":8321:8360   */\n      tag_80\n      jump\t// in\n    tag_187:\n        /* \"#utility.yul\":8382:8473   */\n      tag_188\n        /* \"#utility.yul\":8431:8472   */\n      tag_189\n        /* \"#utility.yul\":8455:8471   */\n      dup3\n        /* \"#utility.yul\":8431:8472   */\n      tag_81\n      jump\t// in\n    tag_189:\n        /* \"#utility.yul\":8423:8429   */\n      dup5\n        /* \"#utility.yul\":8416:8420   */\n      dup5\n        /* \"#utility.yul\":8410:8421   */\n      sload\n        /* \"#utility.yul\":8382:8473   */\n      tag_78\n      jump\t// in\n    tag_188:\n        /* \"#utility.yul\":8376:8380   */\n      dup3\n        /* \"#utility.yul\":8369:8474   */\n      sstore\n        /* \"#utility.yul\":8287:8480   */\n      pop\n        /* \"#utility.yul\":8211:8480   */\n      pop\n      pop\n      pop\n      jump\t// out\n        /* \"#utility.yul\":8486:8559   */\n    tag_83:\n        /* \"#utility.yul\":8531:8534   */\n      0x00\n        /* \"#utility.yul\":8552:8553   */\n      0x00\n        /* \"#utility.yul\":8545:8553   */\n      swap1\n      pop\n        /* \"#utility.yul\":8486:8559   */\n      swap1\n      jump\t// out\n        /* \"#utility.yul\":8565:8754   */\n    tag_84:\n        /* \"#utility.yul\":8642:8674   */\n      tag_192\n      tag_83\n      jump\t// in\n    tag_192:\n        /* \"#utility.yul\":8683:8748   */\n      tag_193\n        /* \"#utility.yul\":8741:8747   */\n      dup2\n        /* \"#utility.yul\":8733:8739   */\n      dup5\n        /* \"#utility.yul\":8727:8731   */\n      dup5\n        /* \"#utility.yul\":8683:8748   */\n      tag_82\n      jump\t// in\n    tag_193:\n        /* \"#utility.yul\":8618:8754   */\n      pop\n        /* \"#utility.yul\":8565:8754   */\n      pop\n      pop\n      jump\t// out\n        /* \"#utility.yul\":8760:8946   */\n    tag_85:\n        /* \"#utility.yul\":8820:8940   */\n    tag_195:\n        /* \"#utility.yul\":8837:8840   */\n      dup2\n        /* \"#utility.yul\":8830:8835   */\n      dup2\n        /* \"#utility.yul\":8827:8841   */\n      lt\n        /* \"#utility.yul\":8820:8940   */\n      iszero\n      tag_197\n      jumpi\n        /* \"#utility.yul\":8891:8930   */\n      tag_198\n        /* \"#utility.yul\":8928:8929   */\n      0x00\n        /* \"#utility.yul\":8921:8926   */\n      dup3\n        /* \"#utility.yul\":8891:8930   */\n      tag_84\n      jump\t// in\n    tag_198:\n        /* \"#utility.yul\":8864:8865   */\n      0x01\n        /* \"#utility.yul\":8857:8862   */\n      dup2\n        /* \"#utility.yul\":8853:8866   */\n      add\n        /* \"#utility.yul\":8844:8866   */\n      swap1\n      pop\n        /* \"#utility.yul\":8820:8940   */\n      jump(tag_195)\n    tag_197:\n        /* \"#utility.yul\":8760:8946   */\n      pop\n      pop\n      jump\t// out\n        /* \"#utility.yul\":8952:9495   */\n    tag_86:\n        /* \"#utility.yul\":9053:9055   */\n      0x1f\n        /* \"#utility.yul\":9048:9051   */\n      dup3\n        /* \"#utility.yul\":9045:9056   */\n      gt\n        /* \"#utility.yul\":9042:9488   */\n      iszero\n      tag_200\n      jumpi\n        /* \"#utility.yul\":9087:9125   */\n      tag_201\n        /* \"#utility.yul\":9119:9124   */\n      dup2\n        /* \"#utility.yul\":9087:9125   */\n      tag_75\n      jump\t// in\n    tag_201:\n        /* \"#utility.yul\":9171:9200   */\n      tag_202\n        /* \"#utility.yul\":9189:9199   */\n      dup5\n        /* \"#utility.yul\":9171:9200   */\n      tag_76\n      jump\t// in\n    tag_202:\n        /* \"#utility.yul\":9161:9169   */\n      dup2\n        /* \"#utility.yul\":9157:9201   */\n      add\n        /* \"#utility.yul\":9354:9356   */\n      0x20\n        /* \"#utility.yul\":9342:9352   */\n      dup6\n        /* \"#utility.yul\":9339:9357   */\n      lt\n        /* \"#utility.yul\":9336:9385   */\n      iszero\n      tag_203\n      jumpi\n        /* \"#utility.yul\":9375:9383   */\n      dup2\n        /* \"#utility.yul\":9360:9383   */\n      swap1\n      pop\n        /* \"#utility.yul\":9336:9385   */\n    tag_203:\n        /* \"#utility.yul\":9398:9478   */\n      tag_204\n        /* \"#utility.yul\":9454:9476   */\n      tag_205\n        /* \"#utility.yul\":9472:9475   */\n      dup6\n        /* \"#utility.yul\":9454:9476   */\n      tag_76\n      jump\t// in\n    tag_205:\n        /* \"#utility.yul\":9444:9452   */\n      dup4\n        /* \"#utility.yul\":9440:9477   */\n      add\n        /* \"#utility.yul\":9427:9438   */\n      dup3\n        /* \"#utility.yul\":9398:9478   */\n      tag_85\n      jump\t// in\n    tag_204:\n        /* \"#utility.yul\":9057:9488   */\n      pop\n      pop\n        /* \"#utility.yul\":9042:9488   */\n    tag_200:\n        /* \"#utility.yul\":8952:9495   */\n      pop\n      pop\n      pop\n      jump\t// out\n        /* \"#utility.yul\":9501:9618   */\n    tag_87:\n        /* \"#utility.yul\":9555:9563   */\n      0x00\n        /* \"#utility.yul\":9605:9610   */\n      dup3\n        /* \"#utility.yul\":9599:9603   */\n      dup3\n        /* \"#utility.yul\":9595:9611   */\n      shr\n        /* \"#utility.yul\":9574:9611   */\n      swap1\n      pop\n        /* \"#utility.yul\":9501:9618   */\n      swap3\n      swap2\n      pop\n      pop\n      jump\t// out\n        /* \"#utility.yul\":9624:9793   */\n    tag_88:\n        /* \"#utility.yul\":9668:9674   */\n      0x00\n        /* \"#utility.yul\":9701:9752   */\n      tag_208\n        /* \"#utility.yul\":9749:9750   */\n      0x00\n        /* \"#utility.yul\":9745:9751   */\n      not\n        /* \"#utility.yul\":9737:9742   */\n      dup5\n        /* \"#utility.yul\":9734:9735   */\n      0x08\n        /* \"#utility.yul\":9730:9743   */\n      mul\n        /* \"#utility.yul\":9701:9752   */\n      tag_87\n      jump\t// in\n    tag_208:\n        /* \"#utility.yul\":9697:9753   */\n      not\n        /* \"#utility.yul\":9782:9786   */\n      dup1\n        /* \"#utility.yul\":9776:9780   */\n      dup4\n        /* \"#utility.yul\":9772:9787   */\n      and\n        /* \"#utility.yul\":9762:9787   */\n      swap2\n      pop\n        /* \"#utility.yul\":9675:9793   */\n      pop\n        /* \"#utility.yul\":9624:9793   */\n      swap3\n      swap2\n      pop\n      pop\n      jump\t// out\n        /* \"#utility.yul\":9798:10093   */\n    tag_89:\n        /* \"#utility.yul\":9874:9878   */\n      0x00\n        /* \"#utility.yul\":10020:10049   */\n      tag_210\n        /* \"#utility.yul\":10045:10048   */\n      dup4\n        /* \"#utility.yul\":10039:10043   */\n      dup4\n        /* \"#utility.yul\":10020:10049   */\n      tag_88\n      jump\t// in\n    tag_210:\n        /* \"#utility.yul\":10012:10049   */\n      swap2\n      pop\n        /* \"#utility.yul\":10082:10085   */\n      dup3\n        /* \"#utility.yul\":10079:10080   */\n      0x02\n        /* \"#utility.yul\":10075:10086   */\n      mul\n        /* \"#utility.yul\":10069:10073   */\n      dup3\n        /* \"#utility.yul\":10066:10087   */\n      or\n        /* \"#utility.yul\":10058:10087   */\n      swap1\n      pop\n        /* \"#utility.yul\":9798:10093   */\n      swap3\n      swap2\n      pop\n      pop\n      jump\t// out\n        /* \"#utility.yul\":10098:11493   */\n    tag_28:\n        /* \"#utility.yul\":10215:10252   */\n      tag_212\n        /* \"#utility.yul\":10248:10251   */\n      dup3\n        /* \"#utility.yul\":10215:10252   */\n      tag_68\n      jump\t// in\n    tag_212:\n        /* \"#utility.yul\":10317:10335   */\n      0xffffffffffffffff\n        /* \"#utility.yul\":10309:10315   */\n      dup2\n        /* \"#utility.yul\":10306:10336   */\n      gt\n        /* \"#utility.yul\":10303:10359   */\n      iszero\n      tag_213\n      jumpi\n        /* \"#utility.yul\":10339:10357   */\n      tag_214\n      tag_53\n      jump\t// in\n    tag_214:\n        /* \"#utility.yul\":10303:10359   */\n    tag_213:\n        /* \"#utility.yul\":10383:10421   */\n      tag_215\n        /* \"#utility.yul\":10415:10419   */\n      dup3\n        /* \"#utility.yul\":10409:10420   */\n      sload\n        /* \"#utility.yul\":10383:10421   */\n      tag_41\n      jump\t// in\n    tag_215:\n        /* \"#utility.yul\":10468:10535   */\n      tag_216\n        /* \"#utility.yul\":10528:10534   */\n      dup3\n        /* \"#utility.yul\":10520:10526   */\n      dup3\n        /* \"#utility.yul\":10514:10518   */\n      dup6\n        /* \"#utility.yul\":10468:10535   */\n      tag_86\n      jump\t// in\n    tag_216:\n        /* \"#utility.yul\":10562:10563   */\n      0x00\n        /* \"#utility.yul\":10586:10590   */\n      0x20\n        /* \"#utility.yul\":10573:10590   */\n      swap1\n      pop\n        /* \"#utility.yul\":10618:10620   */\n      0x1f\n        /* \"#utility.yul\":10610:10616   */\n      dup4\n        /* \"#utility.yul\":10607:10621   */\n      gt\n        /* \"#utility.yul\":10635:10636   */\n      0x01\n        /* \"#utility.yul\":10630:11248   */\n      dup2\n      eq\n      tag_218\n      jumpi\n        /* \"#utility.yul\":11292:11293   */\n      0x00\n        /* \"#utility.yul\":11309:11315   */\n      dup5\n        /* \"#utility.yul\":11306:11383   */\n      iszero\n      tag_219\n      jumpi\n        /* \"#utility.yul\":11358:11367   */\n      dup3\n        /* \"#utility.yul\":11353:11356   */\n      dup8\n        /* \"#utility.yul\":11349:11368   */\n      add\n        /* \"#utility.yul\":11343:11369   */\n      mload\n        /* \"#utility.yul\":11334:11369   */\n      swap1\n      pop\n        /* \"#utility.yul\":11306:11383   */\n    tag_219:\n        /* \"#utility.yul\":11409:11476   */\n      tag_220\n        /* \"#utility.yul\":11469:11475   */\n      dup6\n        /* \"#utility.yul\":11462:11467   */\n      dup3\n        /* \"#utility.yul\":11409:11476   */\n      tag_89\n      jump\t// in\n    tag_220:\n        /* \"#utility.yul\":11403:11407   */\n      dup7\n        /* \"#utility.yul\":11396:11477   */\n      sstore\n        /* \"#utility.yul\":11265:11487   */\n      pop\n        /* \"#utility.yul\":10600:11487   */\n      jump(tag_217)\n        /* \"#utility.yul\":10630:11248   */\n    tag_218:\n        /* \"#utility.yul\":10682:10686   */\n      0x1f\n        /* \"#utility.yul\":10678:10687   */\n      not\n        /* \"#utility.yul\":10670:10676   */\n      dup5\n        /* \"#utility.yul\":10666:10688   */\n      and\n        /* \"#utility.yul\":10716:10753   */\n      tag_221\n        /* \"#utility.yul\":10748:10752   */\n      dup7\n        /* \"#utility.yul\":10716:10753   */\n      tag_75\n      jump\t// in\n    tag_221:\n        /* \"#utility.yul\":10775:10776   */\n      0x00\n        /* \"#utility.yul\":10789:10997   */\n    tag_222:\n        /* \"#utility.yul\":10803:10810   */\n      dup3\n        /* \"#utility.yul\":10800:10801   */\n      dup2\n        /* \"#utility.yul\":10797:10811   */\n      lt\n        /* \"#utility.yul\":10789:10997   */\n      iszero\n      tag_224\n      jumpi\n        /* \"#utility.yul\":10882:10891   */\n      dup5\n        /* \"#utility.yul\":10877:10880   */\n      dup10\n        /* \"#utility.yul\":10873:10892   */\n      add\n        /* \"#utility.yul\":10867:10893   */\n      mload\n        /* \"#utility.yul\":10859:10865   */\n      dup3\n        /* \"#utility.yul\":10852:10894   */\n      sstore\n        /* \"#utility.yul\":10933:10934   */\n      0x01\n        /* \"#utility.yul\":10925:10931   */\n      dup3\n        /* \"#utility.yul\":10921:10935   */\n      add\n        /* \"#utility.yul\":10911:10935   */\n      swap2\n      pop\n        /* \"#utility.yul\":10980:10982   */\n      0x20\n        /* \"#utility.yul\":10969:10978   */\n      dup6\n        /* \"#utility.yul\":10965:10983   */\n      add\n        /* \"#utility.yul\":10952:10983   */\n      swap5\n      pop\n        /* \"#utility.yul\":10826:10830   */\n      0x20\n        /* \"#utility.yul\":10823:10824   */\n      dup2\n        /* \"#utility.yul\":10819:10831   */\n      add\n        /* \"#utility.yul\":10814:10831   */\n      swap1\n      pop\n        /* \"#utility.yul\":10789:10997   */\n      jump(tag_222)\n    tag_224:\n        /* \"#utility.yul\":11025:11031   */\n      dup7\n        /* \"#utility.yul\":11016:11023   */\n      dup4\n        /* \"#utility.yul\":11013:11032   */\n      lt\n        /* \"#utility.yul\":11010:11189   */\n      iszero\n      tag_225\n      jumpi\n        /* \"#utility.yul\":11083:11092   */\n      dup5\n        /* \"#utility.yul\":11078:11081   */\n      dup10\n        /* \"#utility.yul\":11074:11093   */\n      add\n        /* \"#utility.yul\":11068:11094   */\n      mload\n        /* \"#utility.yul\":11126:11174   */\n      tag_226\n        /* \"#utility.yul\":11168:11172   */\n      0x1f\n        /* \"#utility.yul\":11160:11166   */\n      dup10\n        /* \"#utility.yul\":11156:11173   */\n      and\n        /* \"#utility.yul\":11145:11154   */\n      dup3\n        /* \"#utility.yul\":11126:11174   */\n      tag_88\n      jump\t// in\n    tag_226:\n        /* \"#utility.yul\":11118:11124   */\n      dup4\n        /* \"#utility.yul\":11111:11175   */\n      sstore\n        /* \"#utility.yul\":11033:11189   */\n      pop\n        /* \"#utility.yul\":11010:11189   */\n    tag_225:\n        /* \"#utility.yul\":11235:11236   */\n      0x01\n        /* \"#utility.yul\":11231:11232   */\n      0x02\n        /* \"#utility.yul\":11223:11229   */\n      dup9\n        /* \"#utility.yul\":11219:11233   */\n      mul\n        /* \"#utility.yul\":11215:11237   */\n      add\n        /* \"#utility.yul\":11209:11213   */\n      dup9\n        /* \"#utility.yul\":11202:11238   */\n      sstore\n        /* \"#utility.yul\":10637:11248   */\n      pop\n      pop\n      pop\n        /* \"#utility.yul\":10600:11487   */\n    tag_217:\n      pop\n        /* \"#utility.yul\":10190:11493   */\n      pop\n      pop\n      pop\n        /* \"#utility.yul\":10098:11493   */\n      pop\n      pop\n      jump\t// out\n        /* \"#utility.yul\":11499:11617   */\n    tag_90:\n        /* \"#utility.yul\":11586:11610   */\n      tag_228\n        /* \"#utility.yul\":11604:11609   */\n      dup2\n        /* \"#utility.yul\":11586:11610   */\n      tag_64\n      jump\t// in\n    tag_228:\n        /* \"#utility.yul\":11581:11584   */\n      dup3\n        /* \"#utility.yul\":11574:11611   */\n      mstore\n        /* \"#utility.yul\":11499:11617   */\n      pop\n      pop\n      jump\t// out\n        /* \"#utility.yul\":11623:12156   */\n    tag_30:\n        /* \"#utility.yul\":11792:11796   */\n      0x00\n        /* \"#utility.yul\":11830:11832   */\n      0x60\n        /* \"#utility.yul\":11819:11828   */\n      dup3\n        /* \"#utility.yul\":11815:11833   */\n      add\n        /* \"#utility.yul\":11807:11833   */\n      swap1\n      pop\n        /* \"#utility.yul\":11843:11914   */\n      tag_230\n        /* \"#utility.yul\":11911:11912   */\n      0x00\n        /* \"#utility.yul\":11900:11909   */\n      dup4\n        /* \"#utility.yul\":11896:11913   */\n      add\n        /* \"#utility.yul\":11887:11893   */\n      dup7\n        /* \"#utility.yul\":11843:11914   */\n      tag_90\n      jump\t// in\n    tag_230:\n        /* \"#utility.yul\":11924:11996   */\n      tag_231\n        /* \"#utility.yul\":11992:11994   */\n      0x20\n        /* \"#utility.yul\":11981:11990   */\n      dup4\n        /* \"#utility.yul\":11977:11995   */\n      add\n        /* \"#utility.yul\":11968:11974   */\n      dup6\n        /* \"#utility.yul\":11924:11996   */\n      tag_67\n      jump\t// in\n    tag_231:\n        /* \"#utility.yul\":12043:12052   */\n      dup2\n        /* \"#utility.yul\":12037:12041   */\n      dup2\n        /* \"#utility.yul\":12033:12053   */\n      sub\n        /* \"#utility.yul\":12028:12030   */\n      0x40\n        /* \"#utility.yul\":12017:12026   */\n      dup4\n        /* \"#utility.yul\":12013:12031   */\n      add\n        /* \"#utility.yul\":12006:12054   */\n      mstore\n        /* \"#utility.yul\":12071:12149   */\n      tag_232\n        /* \"#utility.yul\":12144:12148   */\n      dup2\n        /* \"#utility.yul\":12135:12141   */\n      dup5\n        /* \"#utility.yul\":12071:12149   */\n      tag_71\n      jump\t// in\n    tag_232:\n        /* \"#utility.yul\":12063:12149   */\n      swap1\n      pop\n        /* \"#utility.yul\":11623:12156   */\n      swap5\n      swap4\n      pop\n      pop\n      pop\n      pop\n      jump\t// out\n        /* \"#utility.yul\":12162:12342   */\n    tag_34:\n        /* \"#utility.yul\":12210:12287   */\n      0x4e487b7100000000000000000000000000000000000000000000000000000000\n        /* \"#utility.yul\":12207:12208   */\n      0x00\n        /* \"#utility.yul\":12200:12288   */\n      mstore\n        /* \"#utility.yul\":12307:12311   */\n      0x32\n        /* \"#utility.yul\":12304:12305   */\n      0x04\n        /* \"#utility.yul\":12297:12312   */\n      mstore\n        /* \"#utility.yul\":12331:12335   */\n      0x24\n        /* \"#utility.yul\":12328:12329   */\n      0x00\n        /* \"#utility.yul\":12321:12336   */\n      revert\n        /* \"#utility.yul\":12348:12680   */\n    tag_37:\n        /* \"#utility.yul\":12469:12473   */\n      0x00\n        /* \"#utility.yul\":12507:12509   */\n      0x40\n        /* \"#utility.yul\":12496:12505   */\n      dup3\n        /* \"#utility.yul\":12492:12510   */\n      add\n        /* \"#utility.yul\":12484:12510   */\n      swap1\n      pop\n        /* \"#utility.yul\":12520:12591   */\n      tag_235\n        /* \"#utility.yul\":12588:12589   */\n      0x00\n        /* \"#utility.yul\":12577:12586   */\n      dup4\n        /* \"#utility.yul\":12573:12590   */\n      add\n        /* \"#utility.yul\":12564:12570   */\n      dup6\n        /* \"#utility.yul\":12520:12591   */\n      tag_90\n      jump\t// in\n    tag_235:\n        /* \"#utility.yul\":12601:12673   */\n      tag_236\n        /* \"#utility.yul\":12669:12671   */\n      0x20\n        /* \"#utility.yul\":12658:12667   */\n      dup4\n        /* \"#utility.yul\":12654:12672   */\n      add\n        /* \"#utility.yul\":12645:12651   */\n      dup5\n        /* \"#utility.yul\":12601:12673   */\n      tag_67\n      jump\t// in\n    tag_236:\n        /* \"#utility.yul\":12348:12680   */\n      swap4\n      swap3\n      pop\n      pop\n      pop\n      jump\t// out\n\n    auxdata: 0xa264697066735822122024dd502d97d640572e19d1c3485eec3edddcd6cec5ea39b3c2fb0a3c316a82b564736f6c634300081e0033\n}\n",
				"bytecode": {
					"linkReferences": {},
					"object": "6080604052348015600e575f5ffd5b50610afc8061001c5f395ff3fe608060405234801561000f575f5ffd5b506004361061004a575f3560e01c8063111002aa1461004e578063455f50241461006a57806366873a5514610086578063c17a340e146100b8575b5f5ffd5b61006860048036038101906100639190610540565b6100d6565b005b610084600480360381019061007f91906105ba565b610216565b005b6100a0600480360381019061009b919061063f565b6102dc565b6040516100af93929190610706565b60405180910390f35b6100c06103ad565b6040516100cd9190610742565b60405180910390f35b5f5f5f3373ffffffffffffffffffffffffffffffffffffffff1673ffffffffffffffffffffffffffffffffffffffff1681526020019081526020015f208054905090505f5f3373ffffffffffffffffffffffffffffffffffffffff1673ffffffffffffffffffffffffffffffffffffffff1681526020019081526020015f2060405180606001604052808381526020018481526020015f1515815250908060018154018082558091505060019003905f5260205f2090600302015f909190919091505f820151815f015560208201518160010190816101b59190610958565b506040820151816002015f6101000a81548160ff02191690831515021790555050507fa211005f5319202ee7ab6815fc340564635fb1eee9bc5a55aa10048c5b471dc433828460405161020a93929190610a36565b60405180910390a15050565b5f5f5f3373ffffffffffffffffffffffffffffffffffffffff1673ffffffffffffffffffffffffffffffffffffffff1681526020019081526020015f20828154811061026557610264610a72565b5b905f5260205f2090600302019050806002015f9054906101000a900460ff1615816002015f6101000a81548160ff0219169083151502179055507ff684d89bb0f42287bf32838774e4b7f8a60c11804b3c6d1791fa55f30679264333836040516102d0929190610a9f565b60405180910390a15050565b5f602052815f5260405f2081815481106102f4575f80fd5b905f5260205f2090600302015f9150915050805f01549080600101805461031a90610788565b80601f016020809104026020016040519081016040528092919081815260200182805461034690610788565b80156103915780601f1061036857610100808354040283529160200191610391565b820191905f5260205f20905b81548152906001019060200180831161037457829003601f168201915b505050505090806002015f9054906101000a900460ff16905083565b5f5f5f3373ffffffffffffffffffffffffffffffffffffffff1673ffffffffffffffffffffffffffffffffffffffff1681526020019081526020015f2080549050905090565b5f604051905090565b5f5ffd5b5f5ffd5b5f5ffd5b5f5ffd5b5f601f19601f8301169050919050565b7f4e487b71000000000000000000000000000000000000000000000000000000005f52604160045260245ffd5b6104528261040c565b810181811067ffffffffffffffff821117156104715761047061041c565b5b80604052505050565b5f6104836103f3565b905061048f8282610449565b919050565b5f67ffffffffffffffff8211156104ae576104ad61041c565b5b6104b78261040c565b9050602081019050919050565b828183375f83830152505050565b5f6104e46104df84610494565b61047a565b905082815260208101848484011115610500576104ff610408565b5b61050b8482856104c4565b509392505050565b5f82601f83011261052757610526610404565b5b81356105378482602086016104d2565b91505092915050565b5f60208284031215610555576105546103fc565b5b5f82013567ffffffffffffffff81111561057257610571610400565b5b61057e84828501610513565b91505092915050565b5f819050919050565b61059981610587565b81146105a3575f5ffd5b50565b5f813590506105b481610590565b92915050565b5f602082840312156105cf576105ce6103fc565b5b5f6105dc848285016105a6565b91505092915050565b5f73ffffffffffffffffffffffffffffffffffffffff82169050919050565b5f61060e826105e5565b9050919050565b61061e81610604565b8114610628575f5ffd5b50565b5f8135905061063981610615565b92915050565b5f5f60408385031215610655576106546103fc565b5b5f6106628582860161062b565b9250506020610673858286016105a6565b9150509250929050565b61068681610587565b82525050565b5f81519050919050565b5f82825260208201905092915050565b8281835e5f83830152505050565b5f6106be8261068c565b6106c88185610696565b93506106d88185602086016106a6565b6106e18161040c565b840191505092915050565b5f8115159050919050565b610700816106ec565b82525050565b5f6060820190506107195f83018661067d565b818103602083015261072b81856106b4565b905061073a60408301846106f7565b949350505050565b5f6020820190506107555f83018461067d565b92915050565b7f4e487b71000000000000000000000000000000000000000000000000000000005f52602260045260245ffd5b5f600282049050600182168061079f57607f821691505b6020821081036107b2576107b161075b565b5b50919050565b5f819050815f5260205f209050919050565b5f6020601f8301049050919050565b5f82821b905092915050565b5f600883026108147fffffffffffffffffffffffffffffffffffffffffffffffffffffffffffffffff826107d9565b61081e86836107d9565b95508019841693508086168417925050509392505050565b5f819050919050565b5f61085961085461084f84610587565b610836565b610587565b9050919050565b5f819050919050565b6108728361083f565b61088661087e82610860565b8484546107e5565b825550505050565b5f5f905090565b61089d61088e565b6108a8818484610869565b505050565b5b818110156108cb576108c05f82610895565b6001810190506108ae565b5050565b601f821115610910576108e1816107b8565b6108ea846107ca565b810160208510156108f9578190505b61090d610905856107ca565b8301826108ad565b50505b505050565b5f82821c905092915050565b5f6109305f1984600802610915565b1980831691505092915050565b5f6109488383610921565b9150826002028217905092915050565b6109618261068c565b67ffffffffffffffff81111561097a5761097961041c565b5b6109848254610788565b61098f8282856108cf565b5f60209050601f8311600181146109c0575f84156109ae578287015190505b6109b8858261093d565b865550610a1f565b601f1984166109ce866107b8565b5f5b828110156109f5578489015182556001820191506020850194506020810190506109d0565b86831015610a125784890151610a0e601f891682610921565b8355505b6001600288020188555050505b505050505050565b610a3081610604565b82525050565b5f606082019050610a495f830186610a27565b610a56602083018561067d565b8181036040830152610a6881846106b4565b9050949350505050565b7f4e487b71000000000000000000000000000000000000000000000000000000005f52603260045260245ffd5b5f604082019050610ab25f830185610a27565b610abf602083018461067d565b939250505056fea264697066735822122024dd502d97d640572e19d1c3485eec3edddcd6cec5ea39b3c2fb0a3c316a82b564736f6c634300081e0033",
					"opcodes": "PUSH1 0x80 PUSH1 0x40 MSTORE CALLVALUE DUP1 ISZERO PUSH1 0xE JUMPI PUSH0 PUSH0 REVERT JUMPDEST POP PUSH2 0xAFC DUP1 PUSH2 0x1C PUSH0 CODECOPY PUSH0 RETURN INVALID PUSH1 0x80 PUSH1 0x40 MSTORE CALLVALUE DUP1 ISZERO PUSH2 0xF JUMPI PUSH0 PUSH0 REVERT JUMPDEST POP PUSH1 0x4 CALLDATASIZE LT PUSH2 0x4A JUMPI PUSH0 CALLDATALOAD PUSH1 0xE0 SHR DUP1 PUSH4 0x111002AA EQ PUSH2 0x4E JUMPI DUP1 PUSH4 0x455F5024 EQ PUSH2 0x6A JUMPI DUP1 PUSH4 0x66873A55 EQ PUSH2 0x86 JUMPI DUP1 PUSH4 0xC17A340E EQ PUSH2 0xB8 JUMPI JUMPDEST PUSH0 PUSH0 REVERT JUMPDEST PUSH2 0x68 PUSH1 0x4 DUP1 CALLDATASIZE SUB DUP2 ADD SWAP1 PUSH2 0x63 SWAP2 SWAP1 PUSH2 0x540 JUMP JUMPDEST PUSH2 0xD6 JUMP JUMPDEST STOP JUMPDEST PUSH2 0x84 PUSH1 0x4 DUP1 CALLDATASIZE SUB DUP2 ADD SWAP1 PUSH2 0x7F SWAP2 SWAP1 PUSH2 0x5BA JUMP JUMPDEST PUSH2 0x216 JUMP JUMPDEST STOP JUMPDEST PUSH2 0xA0 PUSH1 0x4 DUP1 CALLDATASIZE SUB DUP2 ADD SWAP1 PUSH2 0x9B SWAP2 SWAP1 PUSH2 0x63F JUMP JUMPDEST PUSH2 0x2DC JUMP JUMPDEST PUSH1 0x40 MLOAD PUSH2 0xAF SWAP4 SWAP3 SWAP2 SWAP1 PUSH2 0x706 JUMP JUMPDEST PUSH1 0x40 MLOAD DUP1 SWAP2 SUB SWAP1 RETURN JUMPDEST PUSH2 0xC0 PUSH2 0x3AD JUMP JUMPDEST PUSH1 0x40 MLOAD PUSH2 0xCD SWAP2 SWAP1 PUSH2 0x742 JUMP JUMPDEST PUSH1 0x40 MLOAD DUP1 SWAP2 SUB SWAP1 RETURN JUMPDEST PUSH0 PUSH0 PUSH0 CALLER PUSH20 0xFFFFFFFFFFFFFFFFFFFFFFFFFFFFFFFFFFFFFFFF AND PUSH20 0xFFFFFFFFFFFFFFFFFFFFFFFFFFFFFFFFFFFFFFFF AND DUP2 MSTORE PUSH1 0x20 ADD SWAP1 DUP2 MSTORE PUSH1 0x20 ADD PUSH0 KECCAK256 DUP1 SLOAD SWAP1 POP SWAP1 POP PUSH0 PUSH0 CALLER PUSH20 0xFFFFFFFFFFFFFFFFFFFFFFFFFFFFFFFFFFFFFFFF AND PUSH20 0xFFFFFFFFFFFFFFFFFFFFFFFFFFFFFFFFFFFFFFFF AND DUP2 MSTORE PUSH1 0x20 ADD SWAP1 DUP2 MSTORE PUSH1 0x20 ADD PUSH0 KECCAK256 PUSH1 0x40 MLOAD DUP1 PUSH1 0x60 ADD PUSH1 0x40 MSTORE DUP1 DUP4 DUP2 MSTORE PUSH1 0x20 ADD DUP5 DUP2 MSTORE PUSH1 0x20 ADD PUSH0 ISZERO ISZERO DUP2 MSTORE POP SWAP1 DUP1 PUSH1 0x1 DUP2 SLOAD ADD DUP1 DUP3 SSTORE DUP1 SWAP2 POP POP PUSH1 0x1 SWAP1 SUB SWAP1 PUSH0 MSTORE PUSH1 0x20 PUSH0 KECCAK256 SWAP1 PUSH1 0x3 MUL ADD PUSH0 SWAP1 SWAP2 SWAP1 SWAP2 SWAP1 SWAP2 POP PUSH0 DUP3 ADD MLOAD DUP2 PUSH0 ADD SSTORE PUSH1 0x20 DUP3 ADD MLOAD DUP2 PUSH1 0x1 ADD SWAP1 DUP2 PUSH2 0x1B5 SWAP2 SWAP1 PUSH2 0x958 JUMP JUMPDEST POP PUSH1 0x40 DUP3 ADD MLOAD DUP2 PUSH1 0x2 ADD PUSH0 PUSH2 0x100 EXP DUP2 SLOAD DUP2 PUSH1 0xFF MUL NOT AND SWAP1 DUP4 ISZERO ISZERO MUL OR SWAP1 SSTORE POP POP POP PUSH32 0xA211005F5319202EE7AB6815FC340564635FB1EEE9BC5A55AA10048C5B471DC4 CALLER DUP3 DUP5 PUSH1 0x40 MLOAD PUSH2 0x20A SWAP4 SWAP3 SWAP2 SWAP1 PUSH2 0xA36 JUMP JUMPDEST PUSH1 0x40 MLOAD DUP1 SWAP2 SUB SWAP1 LOG1 POP POP JUMP JUMPDEST PUSH0 PUSH0 PUSH0 CALLER PUSH20 0xFFFFFFFFFFFFFFFFFFFFFFFFFFFFFFFFFFFFFFFF AND PUSH20 0xFFFFFFFFFFFFFFFFFFFFFFFFFFFFFFFFFFFFFFFF AND DUP2 MSTORE PUSH1 0x20 ADD SWAP1 DUP2 MSTORE PUSH1 0x20 ADD PUSH0 KECCAK256 DUP3 DUP2 SLOAD DUP2 LT PUSH2 0x265 JUMPI PUSH2 0x264 PUSH2 0xA72 JUMP JUMPDEST JUMPDEST SWAP1 PUSH0 MSTORE PUSH1 0x20 PUSH0 KECCAK256 SWAP1 PUSH1 0x3 MUL ADD SWAP1 POP DUP1 PUSH1 0x2 ADD PUSH0 SWAP1 SLOAD SWAP1 PUSH2 0x100 EXP SWAP1 DIV PUSH1 0xFF AND ISZERO DUP2 PUSH1 0x2 ADD PUSH0 PUSH2 0x100 EXP DUP2 SLOAD DUP2 PUSH1 0xFF MUL NOT AND SWAP1 DUP4 ISZERO ISZERO MUL OR SWAP1 SSTORE POP PUSH32 0xF684D89BB0F42287BF32838774E4B7F8A60C11804B3C6D1791FA55F306792643 CALLER DUP4 PUSH1 0x40 MLOAD PUSH2 0x2D0 SWAP3 SWAP2 SWAP1 PUSH2 0xA9F JUMP JUMPDEST PUSH1 0x40 MLOAD DUP1 SWAP2 SUB SWAP1 LOG1 POP POP JUMP JUMPDEST PUSH0 PUSH1 0x20 MSTORE DUP2 PUSH0 MSTORE PUSH1 0x40 PUSH0 KECCAK256 DUP2 DUP2 SLOAD DUP2 LT PUSH2 0x2F4 JUMPI PUSH0 DUP1 REVERT JUMPDEST SWAP1 PUSH0 MSTORE PUSH1 0x20 PUSH0 KECCAK256 SWAP1 PUSH1 0x3 MUL ADD PUSH0 SWAP2 POP SWAP2 POP POP DUP1 PUSH0 ADD SLOAD SWAP1 DUP1 PUSH1 0x1 ADD DUP1 SLOAD PUSH2 0x31A SWAP1 PUSH2 0x788 JUMP JUMPDEST DUP1 PUSH1 0x1F ADD PUSH1 0x20 DUP1 SWAP2 DIV MUL PUSH1 0x20 ADD PUSH1 0x40 MLOAD SWAP1 DUP2 ADD PUSH1 0x40 MSTORE DUP1 SWAP3 SWAP2 SWAP1 DUP2 DUP2 MSTORE PUSH1 0x20 ADD DUP3 DUP1 SLOAD PUSH2 0x346 SWAP1 PUSH2 0x788 JUMP JUMPDEST DUP1 ISZERO PUSH2 0x391 JUMPI DUP1 PUSH1 0x1F LT PUSH2 0x368 JUMPI PUSH2 0x100 DUP1 DUP4 SLOAD DIV MUL DUP4 MSTORE SWAP2 PUSH1 0x20 ADD SWAP2 PUSH2 0x391 JUMP JUMPDEST DUP3 ADD SWAP2 SWAP1 PUSH0 MSTORE PUSH1 0x20 PUSH0 KECCAK256 SWAP1 JUMPDEST DUP2 SLOAD DUP2 MSTORE SWAP1 PUSH1 0x1 ADD SWAP1 PUSH1 0x20 ADD DUP1 DUP4 GT PUSH2 0x374 JUMPI DUP3 SWAP1 SUB PUSH1 0x1F AND DUP3 ADD SWAP2 JUMPDEST POP POP POP POP POP SWAP1 DUP1 PUSH1 0x2 ADD PUSH0 SWAP1 SLOAD SWAP1 PUSH2 0x100 EXP SWAP1 DIV PUSH1 0xFF AND SWAP1 POP DUP4 JUMP JUMPDEST PUSH0 PUSH0 PUSH0 CALLER PUSH20 0xFFFFFFFFFFFFFFFFFFFFFFFFFFFFFFFFFFFFFFFF AND PUSH20 0xFFFFFFFFFFFFFFFFFFFFFFFFFFFFFFFFFFFFFFFF AND DUP2 MSTORE PUSH1 0x20 ADD SWAP1 DUP2 MSTORE PUSH1 0x20 ADD PUSH0 KECCAK256 DUP1 SLOAD SWAP1 POP SWAP1 POP SWAP1 JUMP JUMPDEST PUSH0 PUSH1 0x40 MLOAD SWAP1 POP SWAP1 JUMP JUMPDEST PUSH0 PUSH0 REVERT JUMPDEST PUSH0 PUSH0 REVERT JUMPDEST PUSH0 PUSH0 REVERT JUMPDEST PUSH0 PUSH0 REVERT JUMPDEST PUSH0 PUSH1 0x1F NOT PUSH1 0x1F DUP4 ADD AND SWAP1 POP SWAP2 SWAP1 POP JUMP JUMPDEST PUSH32 0x4E487B7100000000000000000000000000000000000000000000000000000000 PUSH0 MSTORE PUSH1 0x41 PUSH1 0x4 MSTORE PUSH1 0x24 PUSH0 REVERT JUMPDEST PUSH2 0x452 DUP3 PUSH2 0x40C JUMP JUMPDEST DUP2 ADD DUP2 DUP2 LT PUSH8 0xFFFFFFFFFFFFFFFF DUP3 GT OR ISZERO PUSH2 0x471 JUMPI PUSH2 0x470 PUSH2 0x41C JUMP JUMPDEST JUMPDEST DUP1 PUSH1 0x40 MSTORE POP POP POP JUMP JUMPDEST PUSH0 PUSH2 0x483 PUSH2 0x3F3 JUMP JUMPDEST SWAP1 POP PUSH2 0x48F DUP3 DUP3 PUSH2 0x449 JUMP JUMPDEST SWAP2 SWAP1 POP JUMP JUMPDEST PUSH0 PUSH8 0xFFFFFFFFFFFFFFFF DUP3 GT ISZERO PUSH2 0x4AE JUMPI PUSH2 0x4AD PUSH2 0x41C JUMP JUMPDEST JUMPDEST PUSH2 0x4B7 DUP3 PUSH2 0x40C JUMP JUMPDEST SWAP1 POP PUSH1 0x20 DUP2 ADD SWAP1 POP SWAP2 SWAP1 POP JUMP JUMPDEST DUP3 DUP2 DUP4 CALLDATACOPY PUSH0 DUP4 DUP4 ADD MSTORE POP POP POP JUMP JUMPDEST PUSH0 PUSH2 0x4E4 PUSH2 0x4DF DUP5 PUSH2 0x494 JUMP JUMPDEST PUSH2 0x47A JUMP JUMPDEST SWAP1 POP DUP3 DUP2 MSTORE PUSH1 0x20 DUP2 ADD DUP5 DUP5 DUP5 ADD GT ISZERO PUSH2 0x500 JUMPI PUSH2 0x4FF PUSH2 0x408 JUMP JUMPDEST JUMPDEST PUSH2 0x50B DUP5 DUP3 DUP6 PUSH2 0x4C4 JUMP JUMPDEST POP SWAP4 SWAP3 POP POP POP JUMP JUMPDEST PUSH0 DUP3 PUSH1 0x1F DUP4 ADD SLT PUSH2 0x527 JUMPI PUSH2 0x526 PUSH2 0x404 JUMP JUMPDEST JUMPDEST DUP2 CALLDATALOAD PUSH2 0x537 DUP5 DUP3 PUSH1 0x20 DUP7 ADD PUSH2 0x4D2 JUMP JUMPDEST SWAP2 POP POP SWAP3 SWAP2 POP POP JUMP JUMPDEST PUSH0 PUSH1 0x20 DUP3 DUP5 SUB SLT ISZERO PUSH2 0x555 JUMPI PUSH2 0x554 PUSH2 0x3FC JUMP JUMPDEST JUMPDEST PUSH0 DUP3 ADD CALLDATALOAD PUSH8 0xFFFFFFFFFFFFFFFF DUP2 GT ISZERO PUSH2 0x572 JUMPI PUSH2 0x571 PUSH2 0x400 JUMP JUMPDEST JUMPDEST PUSH2 0x57E DUP5 DUP3 DUP6 ADD PUSH2 0x513 JUMP JUMPDEST SWAP2 POP POP SWAP3 SWAP2 POP POP JUMP JUMPDEST PUSH0 DUP2 SWAP1 POP SWAP2 SWAP1 POP JUMP JUMPDEST PUSH2 0x599 DUP2 PUSH2 0x587 JUMP JUMPDEST DUP2 EQ PUSH2 0x5A3 JUMPI PUSH0 PUSH0 REVERT JUMPDEST POP JUMP JUMPDEST PUSH0 DUP2 CALLDATALOAD SWAP1 POP PUSH2 0x5B4 DUP2 PUSH2 0x590 JUMP JUMPDEST SWAP3 SWAP2 POP POP JUMP JUMPDEST PUSH0 PUSH1 0x20 DUP3 DUP5 SUB SLT ISZERO PUSH2 0x5CF JUMPI PUSH2 0x5CE PUSH2 0x3FC JUMP JUMPDEST JUMPDEST PUSH0 PUSH2 0x5DC DUP5 DUP3 DUP6 ADD PUSH2 0x5A6 JUMP JUMPDEST SWAP2 POP POP SWAP3 SWAP2 POP POP JUMP JUMPDEST PUSH0 PUSH20 0xFFFFFFFFFFFFFFFFFFFFFFFFFFFFFFFFFFFFFFFF DUP3 AND SWAP1 POP SWAP2 SWAP1 POP JUMP JUMPDEST PUSH0 PUSH2 0x60E DUP3 PUSH2 0x5E5 JUMP JUMPDEST SWAP1 POP SWAP2 SWAP1 POP JUMP JUMPDEST PUSH2 0x61E DUP2 PUSH2 0x604 JUMP JUMPDEST DUP2 EQ PUSH2 0x628 JUMPI PUSH0 PUSH0 REVERT JUMPDEST POP JUMP JUMPDEST PUSH0 DUP2 CALLDATALOAD SWAP1 POP PUSH2 0x639 DUP2 PUSH2 0x615 JUMP JUMPDEST SWAP3 SWAP2 POP POP JUMP JUMPDEST PUSH0 PUSH0 PUSH1 0x40 DUP4 DUP6 SUB SLT ISZERO PUSH2 0x655 JUMPI PUSH2 0x654 PUSH2 0x3FC JUMP JUMPDEST JUMPDEST PUSH0 PUSH2 0x662 DUP6 DUP3 DUP7 ADD PUSH2 0x62B JUMP JUMPDEST SWAP3 POP POP PUSH1 0x20 PUSH2 0x673 DUP6 DUP3 DUP7 ADD PUSH2 0x5A6 JUMP JUMPDEST SWAP2 POP POP SWAP3 POP SWAP3 SWAP1 POP JUMP JUMPDEST PUSH2 0x686 DUP2 PUSH2 0x587 JUMP JUMPDEST DUP3 MSTORE POP POP JUMP JUMPDEST PUSH0 DUP2 MLOAD SWAP1 POP SWAP2 SWAP1 POP JUMP JUMPDEST PUSH0 DUP3 DUP3 MSTORE PUSH1 0x20 DUP3 ADD SWAP1 POP SWAP3 SWAP2 POP POP JUMP JUMPDEST DUP3 DUP2 DUP4 MCOPY PUSH0 DUP4 DUP4 ADD MSTORE POP POP POP JUMP JUMPDEST PUSH0 PUSH2 0x6BE DUP3 PUSH2 0x68C JUMP JUMPDEST PUSH2 0x6C8 DUP2 DUP6 PUSH2 0x696 JUMP JUMPDEST SWAP4 POP PUSH2 0x6D8 DUP2 DUP6 PUSH1 0x20 DUP7 ADD PUSH2 0x6A6 JUMP JUMPDEST PUSH2 0x6E1 DUP2 PUSH2 0x40C JUMP JUMPDEST DUP5 ADD SWAP2 POP POP SWAP3 SWAP2 POP POP JUMP JUMPDEST PUSH0 DUP2 ISZERO ISZERO SWAP1 POP SWAP2 SWAP1 POP JUMP JUMPDEST PUSH2 0x700 DUP2 PUSH2 0x6EC JUMP JUMPDEST DUP3 MSTORE POP POP JUMP JUMPDEST PUSH0 PUSH1 0x60 DUP3 ADD SWAP1 POP PUSH2 0x719 PUSH0 DUP4 ADD DUP7 PUSH2 0x67D JUMP JUMPDEST DUP2 DUP2 SUB PUSH1 0x20 DUP4 ADD MSTORE PUSH2 0x72B DUP2 DUP6 PUSH2 0x6B4 JUMP JUMPDEST SWAP1 POP PUSH2 0x73A PUSH1 0x40 DUP4 ADD DUP5 PUSH2 0x6F7 JUMP JUMPDEST SWAP5 SWAP4 POP POP POP POP JUMP JUMPDEST PUSH0 PUSH1 0x20 DUP3 ADD SWAP1 POP PUSH2 0x755 PUSH0 DUP4 ADD DUP5 PUSH2 0x67D JUMP JUMPDEST SWAP3 SWAP2 POP POP JUMP JUMPDEST PUSH32 0x4E487B7100000000000000000000000000000000000000000000000000000000 PUSH0 MSTORE PUSH1 0x22 PUSH1 0x4 MSTORE PUSH1 0x24 PUSH0 REVERT JUMPDEST PUSH0 PUSH1 0x2 DUP3 DIV SWAP1 POP PUSH1 0x1 DUP3 AND DUP1 PUSH2 0x79F JUMPI PUSH1 0x7F DUP3 AND SWAP2 POP JUMPDEST PUSH1 0x20 DUP3 LT DUP2 SUB PUSH2 0x7B2 JUMPI PUSH2 0x7B1 PUSH2 0x75B JUMP JUMPDEST JUMPDEST POP SWAP2 SWAP1 POP JUMP JUMPDEST PUSH0 DUP2 SWAP1 POP DUP2 PUSH0 MSTORE PUSH1 0x20 PUSH0 KECCAK256 SWAP1 POP SWAP2 SWAP1 POP JUMP JUMPDEST PUSH0 PUSH1 0x20 PUSH1 0x1F DUP4 ADD DIV SWAP1 POP SWAP2 SWAP1 POP JUMP JUMPDEST PUSH0 DUP3 DUP3 SHL SWAP1 POP SWAP3 SWAP2 POP POP JUMP JUMPDEST PUSH0 PUSH1 0x8 DUP4 MUL PUSH2 0x814 PUSH32 0xFFFFFFFFFFFFFFFFFFFFFFFFFFFFFFFFFFFFFFFFFFFFFFFFFFFFFFFFFFFFFFFF DUP3 PUSH2 0x7D9 JUMP JUMPDEST PUSH2 0x81E DUP7 DUP4 PUSH2 0x7D9 JUMP JUMPDEST SWAP6 POP DUP1 NOT DUP5 AND SWAP4 POP DUP1 DUP7 AND DUP5 OR SWAP3 POP POP POP SWAP4 SWAP3 POP POP POP JUMP JUMPDEST PUSH0 DUP2 SWAP1 POP SWAP2 SWAP1 POP JUMP JUMPDEST PUSH0 PUSH2 0x859 PUSH2 0x854 PUSH2 0x84F DUP5 PUSH2 0x587 JUMP JUMPDEST PUSH2 0x836 JUMP JUMPDEST PUSH2 0x587 JUMP JUMPDEST SWAP1 POP SWAP2 SWAP1 POP JUMP JUMPDEST PUSH0 DUP2 SWAP1 POP SWAP2 SWAP1 POP JUMP JUMPDEST PUSH2 0x872 DUP4 PUSH2 0x83F JUMP JUMPDEST PUSH2 0x886 PUSH2 0x87E DUP3 PUSH2 0x860 JUMP JUMPDEST DUP5 DUP5 SLOAD PUSH2 0x7E5 JUMP JUMPDEST DUP3 SSTORE POP POP POP POP JUMP JUMPDEST PUSH0 PUSH0 SWAP1 POP SWAP1 JUMP JUMPDEST PUSH2 0x89D PUSH2 0x88E JUMP JUMPDEST PUSH2 0x8A8 DUP2 DUP5 DUP5 PUSH2 0x869 JUMP JUMPDEST POP POP POP JUMP JUMPDEST JUMPDEST DUP2 DUP2 LT ISZERO PUSH2 0x8CB JUMPI PUSH2 0x8C0 PUSH0 DUP3 PUSH2 0x895 JUMP JUMPDEST PUSH1 0x1 DUP2 ADD SWAP1 POP PUSH2 0x8AE JUMP JUMPDEST POP POP JUMP JUMPDEST PUSH1 0x1F DUP3 GT ISZERO PUSH2 0x910 JUMPI PUSH2 0x8E1 DUP2 PUSH2 0x7B8 JUMP JUMPDEST PUSH2 0x8EA DUP5 PUSH2 0x7CA JUMP JUMPDEST DUP2 ADD PUSH1 0x20 DUP6 LT ISZERO PUSH2 0x8F9 JUMPI DUP2 SWAP1 POP JUMPDEST PUSH2 0x90D PUSH2 0x905 DUP6 PUSH2 0x7CA JUMP JUMPDEST DUP4 ADD DUP3 PUSH2 0x8AD JUMP JUMPDEST POP POP JUMPDEST POP POP POP JUMP JUMPDEST PUSH0 DUP3 DUP3 SHR SWAP1 POP SWAP3 SWAP2 POP POP JUMP JUMPDEST PUSH0 PUSH2 0x930 PUSH0 NOT DUP5 PUSH1 0x8 MUL PUSH2 0x915 JUMP JUMPDEST NOT DUP1 DUP4 AND SWAP2 POP POP SWAP3 SWAP2 POP POP JUMP JUMPDEST PUSH0 PUSH2 0x948 DUP4 DUP4 PUSH2 0x921 JUMP JUMPDEST SWAP2 POP DUP3 PUSH1 0x2 MUL DUP3 OR SWAP1 POP SWAP3 SWAP2 POP POP JUMP JUMPDEST PUSH2 0x961 DUP3 PUSH2 0x68C JUMP JUMPDEST PUSH8 0xFFFFFFFFFFFFFFFF DUP2 GT ISZERO PUSH2 0x97A JUMPI PUSH2 0x979 PUSH2 0x41C JUMP JUMPDEST JUMPDEST PUSH2 0x984 DUP3 SLOAD PUSH2 0x788 JUMP JUMPDEST PUSH2 0x98F DUP3 DUP3 DUP6 PUSH2 0x8CF JUMP JUMPDEST PUSH0 PUSH1 0x20 SWAP1 POP PUSH1 0x1F DUP4 GT PUSH1 0x1 DUP2 EQ PUSH2 0x9C0 JUMPI PUSH0 DUP5 ISZERO PUSH2 0x9AE JUMPI DUP3 DUP8 ADD MLOAD SWAP1 POP JUMPDEST PUSH2 0x9B8 DUP6 DUP3 PUSH2 0x93D JUMP JUMPDEST DUP7 SSTORE POP PUSH2 0xA1F JUMP JUMPDEST PUSH1 0x1F NOT DUP5 AND PUSH2 0x9CE DUP7 PUSH2 0x7B8 JUMP JUMPDEST PUSH0 JUMPDEST DUP3 DUP2 LT ISZERO PUSH2 0x9F5 JUMPI DUP5 DUP10 ADD MLOAD DUP3 SSTORE PUSH1 0x1 DUP3 ADD SWAP2 POP PUSH1 0x20 DUP6 ADD SWAP5 POP PUSH1 0x20 DUP2 ADD SWAP1 POP PUSH2 0x9D0 JUMP JUMPDEST DUP7 DUP4 LT ISZERO PUSH2 0xA12 JUMPI DUP5 DUP10 ADD MLOAD PUSH2 0xA0E PUSH1 0x1F DUP10 AND DUP3 PUSH2 0x921 JUMP JUMPDEST DUP4 SSTORE POP JUMPDEST PUSH1 0x1 PUSH1 0x2 DUP9 MUL ADD DUP9 SSTORE POP POP POP JUMPDEST POP POP POP POP POP POP JUMP JUMPDEST PUSH2 0xA30 DUP2 PUSH2 0x604 JUMP JUMPDEST DUP3 MSTORE POP POP JUMP JUMPDEST PUSH0 PUSH1 0x60 DUP3 ADD SWAP1 POP PUSH2 0xA49 PUSH0 DUP4 ADD DUP7 PUSH2 0xA27 JUMP JUMPDEST PUSH2 0xA56 PUSH1 0x20 DUP4 ADD DUP6 PUSH2 0x67D JUMP JUMPDEST DUP2 DUP2 SUB PUSH1 0x40 DUP4 ADD MSTORE PUSH2 0xA68 DUP2 DUP5 PUSH2 0x6B4 JUMP JUMPDEST SWAP1 POP SWAP5 SWAP4 POP POP POP POP JUMP JUMPDEST PUSH32 0x4E487B7100000000000000000000000000000000000000000000000000000000 PUSH0 MSTORE PUSH1 0x32 PUSH1 0x4 MSTORE PUSH1 0x24 PUSH0 REVERT JUMPDEST PUSH0 PUSH1 0x40 DUP3 ADD SWAP1 POP PUSH2 0xAB2 PUSH0 DUP4 ADD DUP6 PUSH2 0xA27 JUMP JUMPDEST PUSH2 0xABF PUSH1 0x20 DUP4 ADD DUP5 PUSH2 0x67D JUMP JUMPDEST SWAP4 SWAP3 POP POP POP JUMP INVALID LOG2 PUSH5 0x6970667358 0x22 SLT KECCAK256 0x24 0xDD POP 0x2D SWAP8 0xD6 BLOCKHASH JUMPI 0x2E NOT DATALOADN 0xC348 MCOPY EOFCREATE 0x3E 0xDD 0xDC 0xD6 0xCE 0xC5 0xEA CODECOPY 0xB3 0xC2 EXTSTATICCALL EXP EXTCODECOPY BALANCE PUSH11 0x82B564736F6C634300081E STOP CALLER "
				},
				"gasEstimates": {
					"creation": {
						"codeDepositCost": "562400",
						"executionCost": "592",
						"totalCost": "562992"
					},
					"external": {
						"createTask(string)": "infinite",
						"getTaskCount()": "2570",
						"toggleCompleted(uint256)": "infinite",
						"userTasks(address,uint256)": "infinite"
					}
				},
				"methodIdentifiers": {
					"createTask(string)": "111002aa",
					"getTaskCount()": "c17a340e",
					"toggleCompleted(uint256)": "455f5024",
					"userTasks(address,uint256)": "66873a55"
				}
			},
			"storageLayout": {
				"storage": [
					{
						"astId": 14,
						"contract": "contracts/todoList.sol:TodoList",
						"label": "userTasks",
						"offset": 0,
						"slot": "0",
						"type": "t_mapping(t_address,t_array(t_struct(Task)8_storage)dyn_storage)"
					}
				],
				"types": {
					"t_address": {
						"encoding": "inplace",
						"label": "address",
						"numberOfBytes": "20"
					},
					"t_array(t_struct(Task)8_storage)dyn_storage": {
						"base": "t_struct(Task)8_storage",
						"encoding": "dynamic_array",
						"label": "struct TodoList.Task[]",
						"numberOfBytes": "32"
					},
					"t_bool": {
						"encoding": "inplace",
						"label": "bool",
						"numberOfBytes": "1"
					},
					"t_mapping(t_address,t_array(t_struct(Task)8_storage)dyn_storage)": {
						"encoding": "mapping",
						"key": "t_address",
						"label": "mapping(address => struct TodoList.Task[])",
						"numberOfBytes": "32",
						"value": "t_array(t_struct(Task)8_storage)dyn_storage"
					},
					"t_string_storage": {
						"encoding": "bytes",
						"label": "string",
						"numberOfBytes": "32"
					},
					"t_struct(Task)8_storage": {
						"encoding": "inplace",
						"label": "struct TodoList.Task",
						"members": [
							{
								"astId": 3,
								"contract": "contracts/todoList.sol:TodoList",
								"label": "id",
								"offset": 0,
								"slot": "0",
								"type": "t_uint256"
							},
							{
								"astId": 5,
								"contract": "contracts/todoList.sol:TodoList",
								"label": "content",
								"offset": 0,
								"slot": "1",
								"type": "t_string_storage"
							},
							{
								"astId": 7,
								"contract": "contracts/todoList.sol:TodoList",
								"label": "completed",
								"offset": 0,
								"slot": "2",
								"type": "t_bool"
							}
						],
						"numberOfBytes": "96"
					},
					"t_uint256": {
						"encoding": "inplace",
						"label": "uint256",
						"numberOfBytes": "32"
					}
				}
			},
			"userdoc": {
				"kind": "user",
				"methods": {},
				"version": 1
			}
		}
	}
}